:030000000287C5AF
:0C87C500787FE4F6D8FD75810702880C6F
:100026000000000000000000002F00000000070094
:10003600070000147F147F1400242A7F2A1200620E
:1000460064081323003649552250000005030000BA
:1000560000001C224100000041221C000014083E42
:1000660008140008083E0808000000A06000000808
:10007600080808080000606000000020100804025C
:10008600003E5149453E0000427F4000004261511A
:100096004946002141454B31001814127F100027B4
:1000A60045454539003C4A49493000017109050377
:1000B60000364949493600064949291E00003636A8
:1000C600000000005636000000081422410000140B
:1000D60014141414000041221408000201510906E8
:1000E60000324959513E007C1211127C007F494969
:1000F6004936003E41414122007F4141221C007F9A
:1001060049494941007F09090901003E4149497AA7
:10011600007F0808087F0000417F41000020404121
:100126003F01007F08142241007F40404040007F8D
:10013600020C027F007F0408107F003E4141413ED1
:10014600007F09090906003E4151215E007F091919
:1001560029460046494949310001017F0101003F16
:100166004040403F001F2040201F003F4038403F96
:1001760000631408146300070870080700615149FA
:10018600454300007F41410000552A552A5500008D
:1001960041417F000004020102040040404040400B
:1001A600000001020400002054545478007F4844A3
:1001B600443800384444442000384444487F0038DA
:1001C6005454541800087E0901020018A4A4A47C03
:1001D600007F080404780000447D400000408084CD
:1001E6007D00007F102844000000417F4000007C15
:1001F60004180478007C0804047800384444443821
:1002060000FC242424180018242418FC007C08046C
:10021600040800485454542000043F444020003C45
:100226004040207C001C2040201C003C4030403CCC
:10023600004428102844001CA0A0A07C004464545C
:100246004C441414141414140000000000000000A0
:100256000000000000000000000000F8F8000000A8
:100266000000001311000000000078000078000074
:1002760000000000000000000020F02820E03820E8
:10028600021E03021A0702000070D888FE1830000A
:10029600000C10107F110E00304848788040402036
:1002A600040201010E11110E0030F888081000003A
:1002B600001F10111A0E1B110000007838000000F4
:1002C60000000000000000000000C0F0080400006C
:1002D6000000031F3060000000000408F0C00000AA
:1002E600000060301F03000080C080F0B080C08036
:1002F6000004060303060400000000E0E00000001E
:100306000001010F0F0101000000000000000000C5
:100316000000403C0C00000000000000000000004F
:1003260000010101010101000000000000000000C1
:10033600000000181800000000000000E03C060065
:10034600004038070100000000F00804040408F02B
:10035600000F1810101008070000100808F8000019
:1003660000000000001F0000001008040484C830CC
:1003760000101814121110100010088484844830DC
:10038600000C18101010190F000080C02018F8007B
:100396000006050404041F0400E0988848888800C5
:1003A600000C10101010180F0080C0B08888800054
:1003B600000F10101010180F0008080808C8380899
:1003C6000000100C0300000000304884848448308C
:1003D600000F11101010110F00F08804040488F0AB
:1003E6000000001119050300000000606000000015
:1003F6000000001818000000000000606000000007
:10040600000040380800000000008080C040600006
:10041600000303060404080000404040404040003A
:100426000002020202020200006040C0808000005A
:1004360000080404060303000000088888F0200072
:10044600000010130000000000F018C86828F00033
:10045600003F604748080F000000C03838E0000041
:10046600001C030202031E0000F8888888587000EA
:10047600001F101010190F0000F01808081830009F
:10048600000F181010180C0000F808080818F000E3
:10049600001F101010180F0000F8888888880800C0
:1004A600001F10101010100000F888888888880037
:1004B600001F00000000000000F0180808183000B7
:1004C600000F181011190F0000F880808080F800C6
:1004D600001F000000001F00000808F8F8080800C8
:1004E6000010101F1F1010000000080808F8F80080
:1004F600000C1010100F070000F88080C07018085C
:10050600001F00000106181000F8F80000000000A7
:10051600001F1F101010100000F838C0C038F80077
:10052600001F000101001F0000F818E00000F8009D
:10053600001F0000071C1F0000F018080818F00034
:10054600000F181010180F0000F808080818F0001F
:10055600001F01010101000000F018080818F00052
:10056600000F181010784F0000F808080898F000DF
:10057600001F0101030D18000070D888881830008C
:10058600000C181011190E00000808F8F8080800E9
:100596000000001F1F00000000F800000000F80027
:1005A600000F181010180F000078C00000C0780067
:1005B6000000071C1C03000018F800F8F800F018EB
:1005C600001F1E01031C1F00001830C0C030180099
:1005D60000180E03030E18000818E08080E01808C3
:1005E6000000001F1F00000000080808C838180097
:1005F60000181E1310101000000000FE020200007A
:100606000000003F2020000000063CE00000000043
:10061600000000010738400000000202FE00000052
:10062600000020203F0000000080601C1C6080004D
:1006360000000000000000000000000000000000B4
:1006460000202020202020000000040408000000D4
:100656000000000000000000004060202060C00094
:10066600000E111111091F0000F840202060C00083
:10067600001F081010180F00008060202060C000C6
:100686000007181010180C0000C060202040F80069
:10069600000F181010081F0000C060202060C00066
:1006A600000F191111190900004040F84848480088
:1006B6000000001F0000000000C060202040E00095
:1006C60000074C4848643F0000F840202060C00006
:1006D600001F000000001F0000002028EC000000A2
:1006E600001010101F1010000000202028EC000041
:1006F60000404040601F000000F8000080C020203D
:10070600001F0101030C1810000808F80000000083
:100716000000000F1010100000E020E04020E00074
:10072600001F001F00001F0000E040202060C000E6
:10073600001F000000001F0000C060202060C000F5
:10074600000F181010180F0000E040202060C000B5
:10075600007F081010180F0000C060202040E00045
:10076600000F181010087F0000E0E0202020C000D5
:10077600001F1F000000000000C060202060400035
:1007860000081911131A0E00002020F8202020005E
:100796000000000F1010100000E000000000E00054
:1007A600000F181010180F00006080000080E00095
:1007B6000000031C1C07000020E000E0E000C02051
:1007C600001F180707181F000020E08080E02000A7
:1007D60000100C07070C10000060C00000806000CD
:1007E6000000437E1E03000000202020A0E06000E1
:1007F60000181C1211101000008080807C0202007C
:10080600000000003F202000000000FEFE00000067
:100816000000007F7F0000000002027C80808000D4
:100826000020203F0000000000C040C08000C00043
:1008360000010000010101000000000000000000AE
:1008460000000000000000000000000000000000A2
:100856000000000000000000000000000000000092
:1008660000E0E0000000000000000000007F7F00C4
:100876000000000000000000020606020000000062
:10088600000000E0E00000E0E000000000000007DB
:10089600070000070700000000000000000000003D
:1008A6000000000000000000E020000080E00000E2
:1008B6000063E3FF676363F37F6363000000070180
:1008C60000000407000000000000C0E060FCFC60BF
:1008D600E0C000000080870F0CFFFF1830E18000A9
:1008E60000000306043F3F040603010000C06060E9
:1008F60060C000000000000000C7442C1617E8384E
:100906003432E30000000000000003060606030080
:100916000000C0E0606060E0C000000000F0FB0F77
:100926001C3860C0E07010000003070606060203CC
:10093600030704000000000000E0E00000000000E3
:100946000000000000070700000000000000000093
:1009560000000000000000000000000080E0703091
:100966001818000000000000FFFF00000000000053
:100976000000000003070C181810000000001818EB
:100986003070E08000000000000000000000FFFF63
:100996000000000000001018180C070300000000FB
:1009A600000000000080800000000000000C189885
:1009B600D87F7FD8981C0C000000010300000000BF
:1009C600030100000000000000000000000000001D
:1009D6000018181818FFFF18181818000000000053
:1009E60000010100000000000000000000000000FF
:1009F60000000000000000000000000000000000F1
:100A0600000000203C1F0301000000000000000061
:100A16000000000000000000000018181818181840
:100A26001818000000000000000000000000000090
:100A360000000000000000000000000000000000B0
:100A4600000000000000000000000000020707028E
:100A56000000000000000000000000E0F81C040098
:100A660000000000E0F81F030000000000101C1F3B
:100A76000300000000000000000080C020202020AD
:100A86002060C08000FEFF00000000000000FFFFA5
:100A9600000003060C08080808040701000000808F
:100AA600804060E00000000000000001000000FF40
:100AB60000000000000000000000000F0000000021
:100AC6000000C040602020202060C080000101009E
:100AD6000080C06030180F0300000C0E0B090808D8
:100AE600080808080000C0C0602020202060C00060
:100AF6000001010000101018183C67C1000107042E
:100B06000C080808080C070300000000000000801D
:100B1600E0E000000080C070180C030100FF000038
:100B26000001010101010101010F01010000C0E006
:100B3600202020202020200000001F13080808087D
:100B4600081870E0000107040C0808080C040703E5
:100B5600000000000080E0602000000000E0F81CBB
:100B66001F090808081830E0000107040C080808E7
:100B76000804060300202020202020202020E060FA
:100B8600000000000080E0381C0701000000000C97
:100B96000E030000000000000000C04020202020BE
:100BA6002060C08000C0E73C18181818181C27E3FE
:100BB600000307040C080808080C06030000C040E0
:100BC600202020202060C08000071F103020202019
:100BD600B0F0380F0000000000080C07010000000C
:100BE60000000000000000000000000000000000FF
:100BF60002070702000000000000000002070702CB
:100C060000000000000000000000000000000000DE
:100C1600000000000207078200000000000000201C
:100C26003E1F03000000000000000000000000005E
:100C360000000000000038786C4CC6868203000075
:100C4600000000000000000001030000000000009A
:100C560000000000000000000000CCCCCCCCCCCCC6
:100C6600CCCC0000000000000000000000000000E6
:100C760000000000000000000000000000000382E9
:100C860086C64C6C783800000000030100000000A6
:100C9600000000000000006060606060C08000002E
:100CA60000000000787818180F0700000000000008
:100CB60006060200000000000000C0C06060606020
:100CC60060C0800000FFFF0000FC8E060688FF0063
:100CD60000071F1830313133010003000000000007
:100CE600C0E0E0C0000000000000E0FC4F40404FC4
:100CF600FEE00000000607000000000000070600F6
:100D06000000E0E060606060C0C000000000FFFF1F
:100D16001818181837F7C000000007070606060659
:100D260007030000000080C060606060C0C0000073
:100D36000000FFFF000000000081810000000103A9
:100D460006060606030300000000E0E0606060603F
:100D5600C08000000000FFFF0000000081FF0000CF
:100D66000000070706060606030100000000E0E093
:100D760060606060606000000000FFFF18181818CF
:100D860018180000000007070606060606060000FB
:100D96000000E0E060606060606060000000FFFFEF
:100DA600181818181818000000000707000000009F
:100DB600000000000000C0C060606060C0C00000AD
:100DC6000000FF000000181818F8010000000303D7
:100DD60006060606030300000000E0E0000000002F
:100DE600E0E000000000FFFF18181818FFFF0000E1
:100DF6000000070700000000070700000000606011
:100E060060E0E060606000000000000000FFFF009E
:100E1600000000000000060606070706060600009A
:100E26000000006060606060E0E00000008080001C
:100E360000000000FFFF000000010306060606068C
:100E4600030100000000E0E000000000C0E0200018
:100E56000000FFFF18183CFFC380000000000707D2
:100E660000000000010706040000E0E000000000AA
:100E7600000000000000FFFF00000000000000006E
:100E860000000707060606060606060000E0E0E084
:100E960080000080E0E0E00000FFFF00071C1C0768
:100EA60000FFFF0000070700000000000007070022
:100EB6000000E060C000000000E000000000FF004D
:100EC600031E78E000FF000000000700000000039A
:100ED600070700000000C0C060606060C0C000007E
:100EE6000000FF000000000000FF000000000303F8
:100EF60006060606030300000000E0E0606060608E
:100F060060C080000000FFFF18181818180F0700AF
:100F16000000070700000000000000000000C0C03D
:100F260060606060C0C000000000FF0000000000BC
:100F360000FF0000000003030606061E3B232000F8
:100F46000000E0E060606060E0C000000000FFFFBD
:100F5600181838F8DC0F070000000707000000002B
:100F6600030704000000C0C060606060C0C00000ED
:100F76000080870F0C18181830E1C000000003032A
:100F860006060606070300000060606060E0E06099
:100F9600606060000000000000FFFF00000000002D
:100FA6000000000000070700000000000000E0E06D
:100FB60000000000E0E000000000FFFF000000006D
:100FC600FFFF0000000003030606060603030000F9
:100FD6000060E0000000000000E060000000077F05
:100FE600F00000F03F0700000000000003070703C1
:100FF6000000000020E0000000E0E0000000E0202B
:10100600007FFF00FC0707FC00FE7F0000000704CE
:1010160007000007040700000020E0C000000000F1
:10102600C0E02000000000C1E73E3CE7C100000030
:101036000004070300000000030704000060E080CE
:101046000000000080E06000000001071EF8F81EA6
:101056000701000000000000000707000000000074
:101066000000606060606060E0E00000000000C0BA
:10107600E0381E0701000000000007070606060606
:101086000606000000000000FCFC0C0C0C00000032
:1010960000000000FFFF000000000000000000004C
:1010A6001F1F18181800000000041CF8E0000000BC
:1010B6000000000000000000031FF8E00000000030
:1010C60000000000000000031F1C10000000000CC0
:1010D6000C0CFCFC00000000000000000000FFFFFC
:1010E600000000000000001818181F1F0000000074
:1010F6000000000080E0E080000000000000180E04
:10110600030000030E1800000000000000000000AD
:1011160000000000000000000000000000000000C9
:101126000000000000000000000000000018181871
:101136001818181818181800000000080818302089
:101146000000000000000000000000000000000099
:101156000000000000000000000000000000000089
:10116600000000000000000000C0E66733333333A0
:10117600FEFE000000010306060606020107000047
:101186000000E0E000000000000000000000FFFF9B
:101196000203030307FE000000000701020606061D
:1011A600070300000000000000000000000000002F
:1011B6000000FCFE03030303068E88000000010303
:1011C60006060606030300000000000000000000FB
:1011D600E0E000000000FE0703030302FDFF00003D
:1011E60000000307060606020107000000000000D3
:1011F60000000000000000000000FE3633333333E9
:10120600363E000000000303060606060303000040
:101216000000000080C06060606060000006060696
:10122600FFFF06060606060000000000070700008E
:1012360000000000000000000000000000000000A8
:101246000078FE8703030302FCFF00000000013361
:10125600333333311F1F00000000E0E000000000C0
:10126600000000000000FFFF02030303FFFE000072
:10127600000007070000000007070000000000004C
:101286000030303000000000000003030303FFFFBE
:101296000000000000000606060607070606060010
:1012A60000000000000030303000000000000303A2
:1012B600030303FFFF000000000030303030181F2A
:1012C600070000000000E0E0000000000000000051
:1012D6000000FFFF606070D88E070100000007075E
:1012E600000000010306040000606060E0E000000A
:1012F6000000000000000000FFFF000000000000EA
:1013060000000000010306060606060000000000B5
:10131600000000000000000000FFFF0303FFFC03C5
:1013260003FFFE000007070000070700000707008D
:101336000000000000000000000000000000FFFCAC
:1013460002030303FFFE0000000007070000000081
:101356000707000000000000000000000000000079
:101366000000FE060303030306FE0000000003035D
:101376000606060603030000000000000000000049
:10138600000000000000FFFC0203030307FE00004C
:1013960000003F3F020606060703000000000000AB
:1013A60000000000000000000000FEFE0303030230
:1013B60004FF00000000030306060602013F0000CA
:1013C6000000000000000000000000000000FFFF19
:1013D60006030303031E1C000000070700000000AD
:1013E60000000000000000000000000000000000F7
:1013F60000001E3F3333236367C600000000030767
:10140600060606060703000000000000E0E00000F4
:101416000000000000030303FFFF030303030300B0
:10142600000000000103060606060000000000009A
:1014360000000000000000000000FFFF00000000A8
:10144600FFFF000000000103060606060303000076
:1014560000000000000000000000000000010F7CFA
:10146600E08000E07C0F0100000000000307070396
:101476000000000000000000000000000000000066
:10148600003FFC00F01F1FF000F83F0000000704BB
:10149600070000070407000000000000000000002D
:1014A6000000000000010387DC7878DC8703010078
:1014B600000406030100000103060400000000000A
:1014C600000000000000000000010F3EF0C080F0A8
:1014D6007E0F010000000000303F0F0100000000F9
:1014E6000000000000000000000000000000038370
:1014F600C363331B0F070000000007070606060636
:1015060006060000000000000000F8F8080C0000C5
:10151600000018181818F7E300000000000000008B
:1015260000000F1F181800000000000000FCFC005F
:10153600000000000000000000FFFF0000000000A7
:1015460000000000001F1F000000000000000C0843
:10155600F8F800000000000000000000E3F718188B
:1015660018180000000018181F0F000000000000E7
:1015760000000000000000000000000000303C04F5
:101586000C1C3820203C1C0000000000000000005D
:101596000000000000F0002C202024F42424242441
:1015A6002408F80000000000000000000000000011
:1015B6000000000000FF00001F01017F0101219FC4
:1015C6008000FF0000000000000000000000000096
:1015D6000000000000B08C88888800F01010FC1015
:1015E6001010F000000000000000000000000000E5
:1015F60000000000000404FF8444000F0808FF08F0
:1016060008080F00000000000000000000000000B5
:101616000000000000888888B8C8888E8888E89806
:101626008888800000000000000000000000000024
:101636000000000000007C92929292929292929206
:10164600FE00000000000000000000000000000096
:10165600000000000000F00808080404F404040474
:10166600040400000000000000000000000000006C
:101676000000000000C0211A068282827F02020654
:101686001A62800000000000000000000000000058
:101696000000000000808484848484FC8484848424
:1016A60084848000000000000000000000000000AC
:1016B6000000000000808040402018060304182027
:1016C6004040800000000000000000000000000014
:1016D60000000000002090A8A6A4A4A4A4A4A4A48A
:1016E60024040000000000000000000000000000CC
:1016F60000000000000000000000000000000000E4
:101706001FE0E000000000000000000000000000F4
:101716000000000000040404847C4444444444441F
:1017260044C40400000000000000000000000000A7
:1017360000000000008040300F0000408080808064
:10174600601F000000000000000000000000000014
:1017560000000000004020108C888888F88888885F
:1017660088888800000000000000000000000000DB
:10177600000000000008080F08080808FF0808080D
:10178600080808000000000000000000000000003B
:10179600000000000000FC44444444FC444444442B
:1017A60044C4040000000000000000000000000027
:1017B6000000000000700F80402018070080808025
:1017C600807F000000000000000000000000000014
:1017D600000000000000F8888888888E888888883D
:1017E60088780000000000000000000000000000F3
:1017F600000000000078077C8282828282828282D8
:1018060082FE000000000000000000000000000052
:101816000000000000405C6C6C6C6C6C6C6C6C6C5A
:101826007C404000000000000000000000000000B6
:10183600000000000080AEADADADADADFFADADAD0D
:10184600ADAE8000000000000000000000000000B7
:10185600000000000080F8060868A898989C9898F0
:10186600A86808000000000000000000000000005A
:10187600000000000201FF000E0A8A8A8AFA0A0A9C
:101886000A0A0E0000000000000000000000000030
:10189600000000000000FC44444444FC444444442A
:1018A60044FC0000000000000000000000000000F2
:1018B6000000000000601F040404047F0404848404
:1018C60084FF00000000000000000000000000008F
:1018D6000000000000840404040404040404040456
:1018E600FC000000000000000000000000000000F6
:1018F60000000000007F8181818181818181818159
:101906008180780000000000000000000000000058
:10191600000000000080F00E007C844444C444446F
:10192600447C0000000000000000000000000000F1
:10193600000000000001FF00424222120AFF061AC0
:1019460032224200000000000000000000000000FB
:10195600000000000008088848382C28282828A8F5
:10196600A848080000000000000000000000000079
:1019760000000000020201FF000404848485877CC5
:101986000404040000000000000000000000000045
:101996000000000000F80808F800F010909C9290F3
:1019A6009010F000000000000000000000000000A1
:1019B60000000000003F20203F00FF001F10109095
:1019C6009F80FF00000000000000000000000000F3
:1019D6000000000020108C8888884020102C448C41
:1019E6001020404000000000000000000000000041
:1019F60000000000000404FF84440212222242A2D6
:101A0600120A0600000000000000000000000000AE
:101A1600000000000000F010101010FE1010101052
:101A260010F00000000000000000000000000000B0
:101A36000000000000000F08080808FF0808080852
:101A4600080F000000000000000000000000000079
:101A56000000000000404CD8000000601C04040494
:101A66007C80400000000000000000000000000034
:101A7600000000000000007F40208081475921318E
:101A86004D83800000000000000000000000000000
:101A96000000000000586464645C64E4645C646490
:101AA600645C400000000000000000000000000030
:101AB60000000000808080FFB5B5B5B5B5B5B5B5F9
:101AC600FF80808000000000000000000000000091
:101AD60000000000000000FC0404040404040404E4
:101AE60004FC0000000000000000000000000000F0
:101AF600000000000000007F414141414141414159
:101B0600817F0000000000000000000000000000CF
:101B1600000000000008FC484848FC0800F844445F
:101B26004444F8000000000000000000000000002F
:101B36000000000000886F0909096F88D03F04047F
:101B46008404FF0000000000000000000000000008
:101B56000000000000404444FC444440F0080808EB
:101B66000808F80000000000000000000000000067
:101B76000000000000080601FF0102043F4040404B
:101B860040407F0000000000000000000000000050
:101B96000000000000F8080808F810901010101057
:101BA600FC10100000000000000000000000000013
:101BB60000000000007F8282827F000041868880CC
:101BC600FF00000000000000000000000000000010
:101BD6000000000000E00608C0402424242444C479
:101BE6000404F800000000000000000000000000EF
:101BF6000000000000FF00001F222222222222BF36
:101C060080807F000000000000000000000000004F
:101C16000000000000808C9000C44C2C34F4343456
:101C26002C44C0000000000000000000000000007E
:101C3600000000000080403F40BF8585859F85A548
:101C4600C5C5BF0000000000000000000000000045
:101C56000000000000601C08F808080800F80808E2
:101C66000808F80000000000000000000000000066
:101C760000000000008141310D071961817F8080DD
:101C860080807F00000000000000000000000000CF
:101C960000000000000000FC9090909090909090C2
:101CA600901000000000000000000000000000008E
:101CB60000000000000008080808080888888880D6
:101CC600807F00000000000000000000000000000F
:101CD60000000000001010FC100000FC9494949486
:101CE60094FC00000000000000000000000000005E
:101CF600000000000084847F8240303E4282FE92D3
:101D06009292900000000000000000000000000019
:101D16000000000000E424FCFC24C400FCA4A4A4ED
:101D2600A4A4F8000000000000000000000000006D
:101D36000000000000FF939093947F88979494FF8F
:101D460094949000000000000000000000000000D5
:101D5600000000000020FCE02008E83C2828283C81
:101D660028E8080000000000000000000000000055
:101D76000000000000067F0003909795553D15353D
:101D860055979000000000000000000000000000D1
:101D960000000000004040FC40001010FC10101035
:101DA60010F000000000000000000000000000002D
:101DB600000000000040203F929242320F020E3295
:101DC60042838200000000000000000000000000C6
:101DD6000000000000000404FC040404040404FCE5
:101DE60004040000000000000000000000000000E5
:101DF60000000000000181611F010101010101FFD6
:101E060001010100000000000000000000000000C9
:101E16000000000000001010141810F01010181424
:101E2600101000000000000000000000000000008C
:101E360000000000008181412121190707091121B5
:101E46004181810000000000000000000000000049
:101E5600000000000000040404040404FC0404045C
:101E66000404000000000000000000000000000064
:101E76000000000001010101818181C13F010101D2
:101E86000101010000000000000000000000000049
:101E960000000000007008C8484848CE4848484836
:101EA6004848380000000000000000000000000064
:101EB6000000000000C0300F1020407F848484841E
:101EC6008484800000000000000000000000000084
:101ED60000000000002010080C14A4C4C4C4241878
:101EE60008000000000000000000000000000000E4
:101EF6000000000000027D95959392FE92929393C6
:101F0600957D0200000000000000000000000000B7
:101F1600000000000020E0FCA06040A098848488B7
:101F2600102040000000000000000000000000003B
:101F360000000000080601FF0182829CA086B8808E
:101F4600F08C82000000000000000000000000008D
:101F5600000000004044840800FC04F404FC00F87F
:101F66000000FC000000000000000000000000006F
:101F76000000000000C0300C804F380F106F808FBB
:101F86008080FF000000000000000000000000004C
:101F960000000000000444B48C8484B4C404F80037
:101FA6000000FE000000000000000000000000002D
:101FB600000000000084848484FF848444400F80F1
:101FC6008080FF000000000000000000000000000C
:101FD6000000000000F000FC7008FC444444FC448F
:101FE6004444FC0000000000000000000000000067
:101FF6000000000000C1300F3040FFA098878186A6
:1020060098A0FF0000000000000000000000000093
:10201600000000000078686CECEC6C7C0C4C6C6C7E
:102026004C087800000000000000000000000000DE
:102036000000000000088A99995A3F1595971B9948
:102046006808080000000000000000000000000012
:102056000000000000404C900000A8A8A8A87CA89A
:10206600A8A8080000000000000000000000000012
:1020760000000000000000FF4040FE1515151595F4
:1020860095FF0000000000000000000000000000B6
:1020960000000000000004049C6484040404047C22
:1020A60040C000000000000000000000000000002A
:1020B600000000000040300C8380414224181028A4
:1020C6004641800000000000000000000000000003
:1020D6000000000000F8080808F810901010101012
:1020E600FC101000000000000000000000000000CE
:1020F60000000000007F8282827F00004186888087
:10210600FF000000000000000000000000000000CA
:102116000000000000888848482818FE081828484B
:102126004888800000000000000000000000000059
:1021360000000000008080BFA9A9A9A9A9A9A9A992
:10214600BF808000000000000000000000000000CA
:1021560000000000005054545454D4745C54545439
:102166005454500000000000000000000000000071
:1021760000000000000404FEA9A9A9A9A9A9A9A90B
:10218600AAFE0000000000000000000000000000A1
:102196000000000000808C901008C8B88C88E88881
:1021A6008888080000000000000000000000000011
:1021B600000000000080403F448484848484FF84BF
:1021C600848484000000000000000000000000007D
:1021D60000000000002020FC208088F8888E888877
:1021E600F8888000000000000000000000000000E9
:1021F600000000000088847F028494ACA6454464F5
:102206009C840400000000000000000000000000A4
:10221600000000000008C8083E08C80808E89C88B6
:102226008888880000000000000000000000000010
:10223600000000000080F39090F0979493F0919244
:1022460094F0800000000000000000000000000084
:1022560000000000000080748C848484848484FCE4
:1022660084848400000000000000000000000000DC
:10227600000000000040402120101088848282FF68
:102286000000000000000000000000000000000048
:102296000000000000104C465C4444F84C464C7468
:1022A60044440000000000000000000000000000A0
:1022B600000000000009090919294909898989FFCF
:1022C60009090900000000000000000000000000ED
:1022D60000000000002010CC40484848487E48488E
:1022E6004848400000000000000000000000000018
:1022F6000000000000047F0000020A12228282828F
:10230600FF020200000000000000000000000000C4
:102316000000000000F80404945454545454549497
:102326000404F800000000000000000000000000A7
:102336000000000000FF00001F1010101010909FFA
:1023460080807F0000000000000000000000000008
:102356000000000000808080FC808080FC909090CF
:1023660090908000000000000000000000000000C7
:102376000000000000809088868080807F402010CA
:102386000806000000000000000000000000000039
:10239600000000000080F00E08484848484C4848B5
:1023A600484808000000000000000000000000008F
:1023B600000000000001FF0000F9898989898989E8
:1023C60089F9000000000000000000000000000085
:1023D600000000000000F8A8A8A8A8AEA8A8A8A811
:1023E600A8F8000000000000000000000000000047
:1023F600000000000040330272828282BA8282F2BA
:102406000A13600000000000000000000000000049
:1024160000000000002020FC20E0908888EE8888DC
:102426008888F000000000000000000000000000A6
:1024360000000000008884FF0482888E51502058D6
:10244600478080000000000000000000000000003F
:10245600000000000080F00E0004040404FC0404E4
:10246600040400000000000000000000000000005E
:10247600000000000001FF000181818181FF818150
:1024860081818100000000000000000000000000C3
:10249600000000000020A4A4ACB4A4A6A4A4B4AC7C
:1024A600A4A42000000000000000000000000000BE
:1024B6000000000000403F0A7A8A8ABACA8ACA0A1D
:1024C6003A6FC0000000000000000000000000009D
:1024D6000000000000704EC84804E41C002828FED6
:1024E6002828F000000000000000000000000000A6
:1024F60000000000000004FF84C45F314F9595FF83
:102506009595940000000000000000000000000007
:102516000000000000808C900000FC949494949439
:1025260094FC000000000000000000000000000015
:10253600000000000080403F4080BFA0A192848838
:1025460094A28000000000000000000000000000CF
:102556000000000000F00000000000FC0000000089
:1025660000F0000000000000000000000000000075
:102576000000000000FC8181818181FF81818181D1
:102586008181FC0000000000000000000000000047
:10259600000000000000F0080808080C08080808F9
:1025A60008F000000000000000000000000000002D
:1025B600000000000000FF82828282828282828284
:1025C60082FF000000000000000000000000000084
:1025D60000000000000808C83808884EB8A8282857
:1025E60028E80800000000000000000000000000CD
:1025F60000000000000601FF0482838C5060235C0B
:10260600868180000000000000000000000000003D
:10261600000000000020F82020404474C4FC44C49C
:10262600645C4000000000000000000000000000A4
:10263600000000000484FD020502FE9594FF9494B8
:1026460095FE0200000000000000000000000000EF
:10265600000000000808F84A4C48C808F00E0808B0
:10266600887808000000000000000000000000005C
:102676000000000080700F8080807F8141463838DE
:10268600474080000000000000000000000000003D
:10269600000000000080BCA4A4A4BCC098A4A4E4CC
:1026A600A4BC800000000000000000000000000044
:1026B600000000000004FC8C8A89F80070898A8A70
:1026C6008CFC040000000000000000000000000078
:1026D6000000000000046494949494FC94949494F0
:1026E60094640400000000000000000000000000E8
:1026F6000000000000082929A9A9A9FF29292929DC
:10270600291E00000000000000000000000000007C
:10271600000000000080F00E00C038202020FE20BF
:102726002020200000000000000000000000000043
:10273600000000000001FF00000404040404FF047C
:102746000404040000000000000000000000000077
:102756000000000000808484848484FC8484848453
:1027660084848000000000000000000000000000DB
:102776000000000000804060300C03007F808080F5
:102786008080F00000000000000000000000000053
:1027960000000000008488000024A464342C246413
:1027A600A42420000000000000000000000000003B
:1027B6000000000000C0300D02710E8080FF001C7A
:1027C600621D620200000000000000000000000020
:1027D60000000000001010FE101010F000F80808AD
:1027E6000808F800000000000000000000000000DB
:1027F60000000000804038078080807F00FF8080D6
:1028060080807F0000000000000000000000000043
:1028160000000000002024C4080020202C30E02006
:102826003826200000000000000000000000000024
:10283600000000000000007F201010111111FF1190
:102846001111100000000000000000000000000050
:102856000000000000F0FC007040545454547C54B6
:102866005454540000000000000000000000000066
:102876000000000003007F000000FF151515959568
:1028860095FF0000000000000000000000000000AE
:10289600000000000008C8484A4C48C80808C80E8E
:1028A60008C808000000000000000000000000004A
:1028B600000000000000FF12129292FF0000BF808D
:1028C60080FF000000000000000000000000000083
:1028D60000000000000000000000000000000000F2
:1028E60000000000000000000000000000000000E2
:1028F60000000000000101010101010101010101C7
:1029060001010100000000000000000000000000BE
:102916000000000000040404048444F40C4484040D
:102926000404040000000000000000000000000095
:102936000000000000040402010000FF0000000186
:102946000204080000000000000000000000000073
:102956000000000000008C90A08080FC808080C079
:10296600B088000000000000000000000000000029
:102976000000000000008888888888888888888801
:1029860088887F00000000000000000000000000B2
:10299600000000000000C03C00041CE404040484A1
:1029A600740C0000000000000000000000000000A1
:1029B6000000000000037F0080404020130C0E1131
:1029C6002040800000000000000000000000000021
:1029D600000000000084FC44448424F02C26E434E7
:1029E6002C20C000000000000000000000000000D5
:1029F6000000000001007F40403FC03F09097F09F9
:102A06008989FF00000000000000000000000000AF
:102A1600000000000044840880A8A8A8A8FEA8A872
:102A2600A8A88800000000000000000000000000C8
:102A3600000000000080601D026A16151515159528
:102A460095FE0000000000000000000000000000ED
:102A56000000000000FC04E41C20605048C4444808
:102A660050502000000000000000000000000000A0
:102A76000000000000FF08104F20128A82FF0202A9
:102A86000A126200000000000000000000000000C2
:102A96000000000000F80808F80004F40404040428
:102AA600F408000000000000000000000000000024
:102AB60000000000003F20203F000809090989891D
:102AC60089817F0000000000000000000000000077
:102AD600000000000000FC24242424FC041CE40460
:102AE60004847800000000000000000000000000E0
:102AF6000000000000403F22221212FF88402116EB
:102B06001C234080000000000000000000000000C0
:102B1600000000000040C40800C44850403E404049
:102B26005844C00000000000000000000000000043
:102B3600000000000080601C00FF121212121292A8
:102B460092927F00000000000000000000000000DC
:102B560000000000007010101090507C90101010B3
:102B6600109070000000000000000000000000004F
:102B76000000000000080402FF81808041460C121C
:102B8600214040000000000000000000000000009E
:102B9600000000000000FC44444444FC4444444417
:102BA60044C4040000000000000000000000000013
:102BB6000000000000700F80402018070080808011
:102BC600807F000000000000000000000000000000
:102BD60000000000000000E0000000FC0000000013
:102BE60060800000000000000000000000000000FF
:102BF6000000000020180700808080FF0000000011
:102C0600000738000000000000000000000000007F
:102C1600000000000038A8A8A8F8A8A6A8A8F8A848
:102C2600A8A8380000000000000000000000000016
:102C3600000000002022120A06234A4A9292030646
:102C46000A12220000000000000000000000000040
:102C56000000000000202020202020FCA0202020B2
:102C660020202000000000000000000000000000FE
:102C76000000000000808040201806010106182090
:102C860040808000000000000000000000000000FE
:102C9600000000000038A8A8A8F8A8A6A8A8F8A8C8
:102CA600A8A8380000000000000000000000000096
:102CB600000000002022120A06234A4A92920306C6
:102CC6000A122200000000000000000000000000C0
:102CD60000000000000020E02020202C102020A072
:102CE600202000000000000000000000000000009E
:102CF6000000000000808081BEC080808080C0BF50
:102D0600808080000000000000000000000000003D
:102D160000000000008084A4A4A4E49EA4A4A4A4AB
:102D2600A4848000000000000000000000000000F5
:102D360000000000080804FC9295949494949592DF
:102D4600FE04080000000000000000000000000073
:102D56000000000000C42464A42424FC2464A424E9
:102D66002424C40000000000000000000000000051
:102D76000000000000FF0004183142FF00048891A3
:102D8600A2807F000000000000000000000000009C
:102D960000000000002020202020E000FC80804071
:102DA60020100000000000000000000000000000ED
:102DB60000000000002010088C8281807F01020C38
:102DC60010202000000000000000000000000000AD
:102DD6000000000000F000FCF008C828282A2C2873
:102DE60028E80800000000000000000000000000C5
:102DF60000000000020100FF0041219A8202FE024B
:102E0600021B60000000000000000000000000003F
:102E16000000000000484848FE482808A87CC888EA
:102E26007880C000000000000000000000000000E4
:102E36000000000000819DA6A5A4A47FA4A4A4A4CC
:102E4600A45F8100000000000000000000000000F8
:102E560000000000008084A4A4A4E49EA4A4A4A46A
:102E6600A4848000000000000000000000000000B4
:102E760000000000080804FC92959494949495929E
:102E8600FE04080000000000000000000000000032
:102E960000000000008080C0B08C808080828C9012
:102EA600A0408000000000000000000000000000BC
:102EB600000000000080804020180700808080808D
:102EC6007F0000010000000000000000000000007C
:102ED600000000000044840880A8A8A8A8FEA8A8AE
:102EE600A8A8880000000000000000000000000004
:102EF600000000000080601D026A16151515159564
:102F060095FE000000000000000000000000000028
:102F16000000000000F884848484F800FC444444E3
:102F26004444FC0000000000000000000000000017
:102F360000000000001F101010904F201F04048492
:102F46008484FF0000000000000000000000000074
:102F5600000000000010100888444220102044841D
:102F66000810000000000000000000000000000043
:102F760000000000000201FF828282828282828239
:102F8600FD0102000000000000000000000000003B
:102F96000000000000C42464A42424FC2464A424A7
:102FA6002424C4000000000000000000000000000F
:102FB6000000000000FF0004183142FF0004889161
:102FC600A2807F000000000000000000000000005A
:102FD60000000000000020E02020202C102020A06F
:102FE600202000000000000000000000000000009B
:102FF6000000000000808081BEC080808080C0BF4D
:10300600808080000000000000000000000000003A
:10301600000000000000F4ACACACACACACACACACAA
:10302600ACF40000000000000000000000000000FA
:103036000000000020A091929A9EAA4A4A4AAA9AA3
:103046009A818000000000000000000000000000DF
:1030560000000000000000E0000000FC000000008E
:10306600608000000000000000000000000000007A
:103076000000000020180700808080FF000000008C
:1030860000073800000000000000000000000000FB
:10309600000000004044881008485CC8484848DCE6
:1030A6004848080000000000000000000000000082
:1030B6000000000000C03807FE01310F0911318FF2
:1030C6009921FE0000000000000000000000000042
:1030D60000000000000808087E0808688808087EC6
:1030E60008080800000000000000000000000000C2
:1030F600000000000001017F818181818181818141
:103106008181810000000000000000000000000036
:1031160000000000404444FC444000E01010FE1053
:103126001010E00000000000000000000000000099
:1031360000000000000C03FF0304000F0808FF084E
:1031460008080F000000000000000000000000005A
:10315600000000000000F4ACACACACACACACACAC69
:10316600ACF40000000000000000000000000000B9
:103176000000000020A091929A9EAA4A4A4AAA9A62
:103186009A8180000000000000000000000000009E
:1031960000000000000484C4A4948C84848494A455
:1031A600C4840000000000000000000000000000D1
:1031B6000000000000808888888888FF88888888C2
:1031C6008889820000000000000000000000000066
:1031D60000000000000000E0000000FC000000000D
:1031E60060800000000000000000000000000000F9
:1031F6000000000020180700808080FF000000000B
:103206000007380000000000000000000000000079
:10321600000000000000BCB4B4B4B4F4B4B4B4B458
:10322600B4FC0000000000000000000000000000E8
:103236000000000010121252AAAAAAAFAEAAAAABA8
:10324600ABF20200000000000000000000000000D9
:103256000000000000202020202020FCA0202020AC
:1032660020202000000000000000000000000000F8
:10327600000000000080804020180601010618208A
:1032860040808000000000000000000000000000F8
:10329600000000000000BCB4B4B4B4F4B4B4B4B4D8
:1032A600B4FC000000000000000000000000000068
:1032B6000000000010121252AAAAAAAFAEAAAAAB28
:1032C600ABF2020000000000000000000000000059
:1032D60000000000000020E02020202C102020A06C
:1032E6002020000000000000000000000000000098
:1032F6000000000000808081BEC080808080C0BF4A
:103306008080800000000000000000000000000037
:1033160000000000004444FCC44440C03800FC00E7
:1033260000C038000000000000000000000000009F
:1033360000000000100806FF01028C41300C030655
:103346001821C0000000000000000000000000007E
:10335600000000000000C0FE101010D02000DC208D
:10336600C000000000000000000000000000000097
:1033760000000000008340412E18244340809F80B7
:1033860080818200000000000000000000000000B4
:10339600000000000000BCB4B4B4B4F4B4B4B4B4D7
:1033A600B4FC000000000000000000000000000067
:1033B6000000000010121252AAAAAAAFAEAAAAAB27
:1033C600ABF2020000000000000000000000000058
:1033D600000000000000F0080808080C08080808AB
:1033E60008F00000000000000000000000000000DF
:1033F600000000000000FF82828282828282828236
:1034060082FF000000000000000000000000000035
:10341600000000001008486C6C6C6CFC0CCC6C6CEA
:103426004C0838000000000000000000000000000A
:103436000000000000E385857D95578AEA9B9D95EF
:103446009DEB0000000000000000000000000000EE
:1034560000000000004444FCC44440C03800FC00A6
:1034660000C038000000000000000000000000005E
:1034760000000000100806FF01028C41300C030614
:103486001821C0000000000000000000000000003D
:1034960000000000008080C0B08C808080828C900C
:1034A600A0408000000000000000000000000000B6
:1034B6000000000000808040201807008080808087
:1034C6007F00000100000000000000000000000076
:1034D600000000000038A8A8A8F8A8A6A8A8F8A880
:1034E600A8A838000000000000000000000000004E
:1034F600000000002022120A06234A4A929203067E
:103506000A12220000000000000000000000000077
:10351600000000001008486C6C6C6CFC0CCC6C6CE9
:103526004C08380000000000000000000000000009
:103536000000000000E385857D95578AEA9B9D95EE
:103546009DEB0000000000000000000000000000ED
:10355600000000000078ACACACACACFC0CACACAC85
:10356600ACA8780000000000000000000000000089
:10357600000000000022120EFF0A3200FEAAAAAACC
:10358600AAFE00000000000000000000000000008D
:103596000000000000FC04E41C2010889C64E46425
:1035A6009C840000000000000000000000000000F5
:1035B6000000000000FF08080F053B222222FF2220
:1035C600222223000000000000000000000000008E
:1035D60000000000000020E02020202C102020A069
:1035E6002020000000000000000000000000000095
:1035F6000000000000808081BEC080808080C0BF47
:103606008080800000000000000000000000000034
:1036160000000000000020100C1624C4844424146A
:103626000C00000000000000000000000000000088
:1036360000000000000404022226252548494A828B
:1036460082040400000000000000000000000000EA
:1036560000000000000000E0000000FC0000000088
:103666006080000000000000000000000000000074
:103676000000000020180700808080FF0000000086
:1036860000073800000000000000000000000000F5
:103696000000000000E0145454545414FC545454D4
:1036A600541470000000000000000000000000003C
:1036B6000000000000008485A5A5A5A6A5A5A5A5D2
:1036C600A5FC000000000000000000000000000053
:1036D6000000000000202020202020FCA020202028
:1036E6002020200000000000000000000000000074
:1036F6000000000000808040201806010106182006
:103706004080800000000000000000000000000073
:103716000000000000E0145454545414FC54545453
:1037260054147000000000000000000000000000BB
:103736000000000000008485A5A5A5A6A5A5A5A551
:10374600A5FC0000000000000000000000000000D2
:1037560000000000000020100C1624C48444241429
:103766000C00000000000000000000000000000047
:1037760000000000000404022226252548494A824A
:1037860082040400000000000000000000000000A9
:1037960000000000000484C4A4948C84848494A44F
:1037A600C4840000000000000000000000000000CB
:1037B6000000000000808888888888FF88888888BC
:1037C6008889820000000000000000000000000060
:1037D60000000000000004C404040404FC04040403
:1037E60004040400000000000000000000000000C7
:1037F60000000000808080FF80808080FF818181C2
:103806008181800000000000000000000000000030
:1038160000000000000000000000000000000000A2
:103826000000000000000000000000000000000092
:103836000000000000010101010101010101010177
:10384600010101000000000000000000000000006F
:103856000000000000000808080808080808080812
:103866000808000000000000000000000000000042
:1038760000000000002020202020202020202020E2
:1038860020202000000000000000000000000000D2
:1038960000000000000008080808080808080808D2
:1038A6000808000000000000000000000000000002
:1038B6000000000000404141414141414141414138
:1038C6004140400000000000000000000000000031
:1038D600000000000000FC040404FC0404FC0404D2
:1038E60004FC0000000000000000000000000000D2
:1038F600000000000000FF88888681808087888815
:1039060088FF00000000000000000000000000002A
:1039160000000000000484848484FC8484848484FD
:103926008404000000000000000000000000000009
:10393600000000000080808080FE81808080808082
:10394600FF808080000000000000000000000000F2
:1039560000000000004040404040404C7040C040E5
:103966004040400000000000000000000000000091
:1039760000000000008040300C030000000001063B
:103986000830C00000000000000000000000000039
:103996000000000000404040FC40404040404040A5
:1039A60020202000000000000000000000000000B1
:1039B60000000000000000003FC080808080808002
:1039C6008040300000000000000000000000000001
:1039D6000000000000000000C03C0000001CE000E9
:1039E60000000000000000000000000000000000D1
:1039F6000000000000C0300C0300000000000007BB
:103A06001820C000000000000000000000000000B8
:103A1600000000000010101010907C101010D02034
:103A26000000000000000000000000000000000090
:103A360000000000008040201807000000007F8082
:103A460080807800000000000000000000000000F8
:103A56000000000000808080808080FC8080808064
:103A660080808000000000000000000000000000D0
:103A760000000000000000000000007F00000000C1
:103A86000000000000000000000000000000000030
:103A960000000000000020100C1624C484442414E6
:103AA6000C00000000000000000000000000000004
:103AB60000000000000404022226252548494A8207
:103AC6008204040000000000000000000000000066
:103AD600000000000000FC4444FC8888FE888888BA
:103AE600FE888800000000000000000000000000C2
:103AF6000000000000F8078484FF007C92929292F6
:103B060092FE00000000000000000000000000001F
:103B160000000000001010149860008404FC0404E7
:103B26000408F8000000000000000000000000008B
:103B360000000000000402FF020285403807808072
:103B460080C03F00000000000000000000000000F0
:103B560000000000004040FC4040404040404040E3
:103B6600FC404000000000000000000000000000D3
:103B7600000000000000007F8080808080808080C0
:103B86007F000000000000000000000000000000B0
:103B960000000000000000FC444444444444444403
:103BA600FC00000000000000000000000000000013
:103BB600000000000080700F040404040484848460
:103BC600FF000000000000000000000000000000F0
:103BD6000000000000F80484949494FC9494949457
:103BE60094FC00000000000000000000000000003F
:103BF60000000000807F00003E2222222222A2BE78
:103C060080FF00000000000000000000000000002F
:103C160000000000000000FC040404040404040482
:103C260004FC00000000000000000000000000008E
:103C3600000000000000007F4141414141414141F7
:103C4600817F00000000000000000000000000006E
:103C5600000000000000000000000000000000005E
:103C6600000000000000000000000000000000004E
:103C7600000000000000000000000000000000003E
:103C8600000000000000000000000000000000002E
:103C96000000000000FC0404FC88A8A8A8A8FEA850
:103CA600A8A8880000000000000000000000000036
:103CB60000000000007F81817F00FE29292929A9B3
:103CC600A9AA7E000000000000000000000000001D
:103CD6000000000000008060180000FC00000008E2
:103CE60030C00000000000000000000000000000DE
:103CF60000000000008281808080804F40201008F4
:103D060007000100000000000000000000000000A5
:103D160000000000008084848484848484848484F5
:103D26008484800000000000000000000000000005
:103D36000000000000004060504C434040404044BA
:103D46005860800000000000000000000000000035
:103D56000000000000002010182C2644844444244F
:103D66001C0400000000000000000000000000002D
:103D7600000000000082828A8989858B9151612129
:103D860021190600000000000000000000000000ED
:103D96000000000000808484848484848484848475
:103DA6008484800000000000000000000000000085
:103DB6000000000000004060504C4340404040443A
:103DC60058608000000000000000000000000000B5
:103DD6000000000000002010182C264484444424CF
:103DE6001C040000000000000000000000000000AD
:103DF600000000000082828A8989858B91516121A9
:103E0600211906000000000000000000000000006C
:103E160000000000008084848484848484848484F4
:103E26008484800000000000000000000000000004
:103E36000000000000004060504C434040404044B9
:103E46005860800000000000000000000000000034
:103E5600000000000000000000000000000000005C
:103E6600000000000000000000000000000000004C
:103E7600000000000000000000000000000000003C
:103E8600000000000000000000000000000000002C
:103E96000000000000F80404E41C00FC4444444410
:103EA60044FC0000000000000000000000000000CC
:103EB6000000000000FF0008110EC03F0404448407
:103EC600847F0000000000000000000000000000E9
:103ED60000000000008888C868584C4A484848488E
:103EE60048C80800000000000000000000000000B4
:103EF60000000000010000FF12121212121292922C
:103F060092FF00000000000000000000000000001A
:103F1600000000000000FC041464840404C43C0493
:103F2600FC0000000000000000000000000000008F
:103F3600000000008078074020100805030C1020C0
:103F46001F60C030000000000000000000000000FC
:103F56000000000000001824C40404FC04040484C7
:103F660044340000000000000000000000000000D3
:103F760000000000000404040405047F0404050492
:103F8600040404000000000000000000000000001F
:103F960000000000004848687E6868205846C868E7
:103FA60058C00000000000000000000000000000F3
:103FB60000000000006A15159595FF028292FF1217
:103FC600120F0200000000000000000000000000C8
:103FD60000000000002018E618A0A0BEA0BC80FCCF
:103FE6001010F000000000000000000000000000BB
:103FF600000000000002FF00807E02027E40A04317
:104006002C3FC0000000000000000000000000007F
:10401600000000000000FC041464840404C43C0492
:10402600FC0000000000000000000000000000008E
:10403600000000008078074020100805030C1020BF
:104046001F60C030000000000000000000000000FB
:104056000000000000404444FC444440F0080808C6
:104066000808F80000000000000000000000000042
:104076000000000000080601FF0102043F40404026
:1040860040407F000000000000000000000000002B
:10409600000000000000FC041464840404C43C0412
:1040A600FC0000000000000000000000000000000E
:1040B600000000008078074020100805030C10203F
:1040C6001F60C0300000000000000000000000007B
:1040D600000000000044840880A8A8A8A8FEA8A89C
:1040E600A8A88800000000000000000000000000F2
:1040F600000000000080601D026A16151515159552
:1041060095FE000000000000000000000000000016
:10411600000000000000FC041464840404C43C0491
:10412600FC0000000000000000000000000000008D
:10413600000000008078074020100805030C1020BE
:104146001F60C030000000000000000000000000FA
:104156000000000000C044443C0098A4A4A4E4A4C9
:10416600A49C000000000000000000000000000009
:104176000000000000838484FC808F8888887F4844
:10418600586FC000000000000000000000000000A2
:10419600000000000000FC041464840404C43C0411
:1041A600FC0000000000000000000000000000000D
:1041B600000000008078074020100805030C10203E
:1041C6001F60C0300000000000000000000000007A
:1041D60000000000003840F8088878484EC8484873
:1041E6004848080000000000000000000000000031
:1041F600000000000084621F00854424140F0C1484
:1042060024448400000000000000000000000000BC
:10421600000000000000FC041464840404C43C0490
:10422600FC0000000000000000000000000000008C
:10423600000000008078074020100805030C1020BD
:104246001F60C030000000000000000000000000F9
:104256000000000000202020202020FCA02020209C
:1042660020202000000000000000000000000000E8
:10427600000000000080804020180601010618207A
:1042860040808000000000000000000000000000E8
:10429600000000000000FC041464840404C43C0410
:1042A600FC0000000000000000000000000000000C
:1042B600000000008078074020100805030C10203D
:1042C6001F60C03000000000000000000000000079
:1042D600000000000084447C941414D43404FC00D0
:1042E6000000FC00000000000000000000000000CC
:1042F6000000000000C838080403F3000010E708B7
:104306000838C700000000000000000000000000A0
:10431600000000000000FC041464840404C43C048F
:10432600FC0000000000000000000000000000008B
:10433600000000008078074020100805030C1020BC
:104346001F60C030000000000000000000000000F8
:10435600000000000000FC041464840404C43C044F
:10436600FC0000000000000000000000000000004B
:10437600000000008078074020100805030C10207C
:104386001F60C030000000000000000000000000B8
:10439600000000000080BCACACECACACACACECAC4F
:1043A600ACBC80000000000000000000000000001F
:1043B60000000000000A8A864ED3A2FE0232534E47
:1043C600868A1200000000000000000000000000C5
:1043D6000000000000844830CC0004040404FC04FF
:1043E60004040400000000000000000000000000BB
:1043F6000000000000908886817E81818181FF8196
:104406008181810000000000000000000000000023
:10441600000000000000FC041464840404C43C048E
:10442600FC0000000000000000000000000000008A
:10443600000000008078074020100805030C1020BB
:104446001F60C030000000000000000000000000F7
:104456000000000000FC14E404E414FC00FC949446
:1044660094FC0000000000000000000000000000B6
:1044760000000000007F3008070D301F28679A8A69
:104486008AB7E00000000000000000000000000005
:10449600000000000000FC041464840404C43C040E
:1044A600FC0000000000000000000000000000000A
:1044B600000000008078074020100805030C10203B
:1044C6001F60C03000000000000000000000000077
:1044D600000000000000FC041464840404C43C04CE
:1044E600FC000000000000000000000000000000CA
:1044F600000000008078074020100805030C1020FB
:104506001F60C03000000000000000000000000036
:10451600000000000080BCACACECACACACACECACCD
:10452600ACBC80000000000000000000000000009D
:1045360000000000000A8A864ED3A2FE0232534EC5
:10454600868A120000000000000000000000000043
:104556000000000000000000000000000000000055
:104566000000000000000000000000000000000045
:104576000000000000000000000000000000000035
:104586000000000000000000000000000000000025
:104596000000000000786A5A5ADA5A3E0A5A5A5AF5
:1045A6005A0878000000000000000000000000002B
:1045B6000000000000AA6BD5ADAE79A4ABABFFAB93
:1045C600ABAFA000000000000000000000000000EB
:1045D600000000000000F010101010FE1010101067
:1045E60010F00000000000000000000000000000C5
:1045F6000000000000000F08080808FF0808080867
:10460600080F00000000000000000000000000008D
:104616000000000000786A5A5ADA5A3E0A5A5A5A74
:104626005A087800000000000000000000000000AA
:104636000000000000AA6BD5ADAE79A4ABABFFAB12
:10464600ABAFA0000000000000000000000000006A
:104656000000000000109454545454FC5454545414
:104666005490100000000000000000000000000050
:10467600000000000080AFAAAAAAAAFFAAAAAAAAB6
:10468600AAAF80000000000000000000000000004B
:104696000000000000786A5A5ADA5A3E0A5A5A5AF4
:1046A6005A0878000000000000000000000000002A
:1046B6000000000000AA6BD5ADAE79A4ABABFFAB92
:1046C600ABAFA000000000000000000000000000EA
:1046D6000000000000109454545454FC5454545494
:1046E60054901000000000000000000000000000D0
:1046F600000000000080AFAAAAAAAAFFAAAAAAAA36
:10470600AAAF8000000000000000000000000000CA
:104716000000000000786A5A5ADA5A3E0A5A5A5A73
:104726005A087800000000000000000000000000A9
:104736000000000000AA6BD5ADAE79A4ABABFFAB11
:10474600ABAFA00000000000000000000000000069
:104756000000000000FC04E41C008868180EE8084D
:10476600080808000000000000000000000000002B
:104776000000000000FF08100F0009090909FF09E1
:104786000909080000000000000000000000000009
:104796000000000000C42464A42424FC2464A4248F
:1047A6002424C400000000000000000000000000F7
:1047B6000000000000FF0004183142FF0004889149
:1047C600A2807F0000000000000000000000000042
:1047D6000000000000703034343454FC1434343497
:1047E60034507000000000000000000000000000CF
:1047F600000000000000FE93939393FF9292939320
:1048060093FC000000000000000000000000000013
:104816000000000000C42464A42424FC2464A4240E
:104826002424C40000000000000000000000000076
:104836000000000000FF0004183142FF00048891C8
:10484600A2807F00000000000000000000000000C1
:104856000000000000703034343454FC1434343416
:10486600345070000000000000000000000000004E
:10487600000000000000FE93939393FF929293939F
:1048860093FC000000000000000000000000000093
:104896000000000000C42464A42424FC2464A4248E
:1048A6002424C400000000000000000000000000F6
:1048B6000000000000FF0004183142FF0004889148
:1048C600A2807F0000000000000000000000000041
:1048D60000000000000000E0000000FC00000000F6
:1048E60060800000000000000000000000000000E2
:1048F6000000000020180700808080FF00000000F4
:104906000007380000000000000000000000000062
:104916000000000000C42464A42424FC2464A4240D
:104926002424C40000000000000000000000000075
:104936000000000000FF0004183142FF00048891C7
:10494600A2807F00000000000000000000000000C0
:10495600000000000000F010101010FE10101010E3
:1049660010F0000000000000000000000000000041
:104976000000000000000F08080808FF08080808E3
:10498600080F00000000000000000000000000000A
:104996000000000000C42464A42424FC2464A4248D
:1049A6002424C400000000000000000000000000F5
:1049B6000000000000FF0004183142FF0004889147
:1049C600A2807F0000000000000000000000000040
:1049D6000000000000202020202020FCA020202015
:1049E6002020200000000000000000000000000061
:1049F60000000000008080402018060101061820F3
:104A06004080800000000000000000000000000060
:104A16000000000000C42464A42424FC2464A4240C
:104A26002424C40000000000000000000000000074
:104A36000000000000FF0004183142FF00048891C6
:104A4600A2807F00000000000000000000000000BF
:104A5600000000000080BCACACECACACACACECAC88
:104A6600ACBC800000000000000000000000000058
:104A760000000000000A8A864ED3A2FE0232534E80
:104A8600868A1200000000000000000000000000FE
:104A96000000000000C42464A42424FC2464A4248C
:104AA6002424C400000000000000000000000000F4
:104AB6000000000000FF0004183142FF0004889146
:104AC600A2807F000000000000000000000000003F
:104AD600000000000080BCACACECACACACACECAC08
:104AE600ACBC8000000000000000000000000000D8
:104AF60000000000000A8A864ED3A2FE0232534E00
:104B0600868A12000000000000000000000000007D
:104B16000000000000C42464A42424FC2464A4240B
:104B26002424C40000000000000000000000000073
:104B36000000000000FF0004183142FF00048891C5
:104B4600A2807F00000000000000000000000000BE
:104B5600000000000080BCACACECACACACACECAC87
:104B6600ACBC800000000000000000000000000057
:104B760000000000000A8A864ED3A2FE0232534E7F
:104B8600868A1200000000000000000000000000FD
:104B96000000000000C42464A42424FC2464A4248B
:104BA6002424C400000000000000000000000000F3
:104BB6000000000000FF0004183142FF0004889145
:104BC600A2807F000000000000000000000000003E
:104BD6000000000000FC04E41C008868180EE808C9
:104BE60008080800000000000000000000000000A7
:104BF6000000000000FF08100F0009090909FF095D
:104C06000909080000000000000000000000000084
:104C16000000000000C42464A42424FC2464A4240A
:104C26002424C40000000000000000000000000072
:104C36000000000000FF0004183142FF00048891C4
:104C4600A2807F00000000000000000000000000BD
:104C56000000000000703034343454FC1434343412
:104C6600345070000000000000000000000000004A
:104C7600000000000000FE93939393FF929293939B
:104C860093FC00000000000000000000000000008F
:104C96000000000000C42464A42424FC2464A4248A
:104CA6002424C400000000000000000000000000F2
:104CB6000000000000FF0004183142FF0004889144
:104CC600A2807F000000000000000000000000003D
:104CD60000000000001090FED01404FCC40404641C
:104CE6005C408000000000000000000000000000A2
:104CF60000000000000E01FF8041B88741463830B1
:104D0600484780000000000000000000000000008E
:104D16000000000000C42464A42424FC2464A42409
:104D26002424C40000000000000000000000000071
:104D36000000000000FF0004183142FF00048891C3
:104D4600A2807F00000000000000000000000000BC
:104D560000000000006058C4601000F80404FC0461
:104D66000404FC0000000000000000000000000039
:104D760000000000000C4A49484400FF8181FF8181
:104D86008181FF000000000000000000000000001C
:104D96000000000000C42464A42424FC2464A42489
:104DA6002424C400000000000000000000000000F1
:104DB6000000000000FF0004183142FF0004889143
:104DC600A2807F000000000000000000000000003C
:104DD60000000000000000000000000000000000CD
:104DE60000000000000000000000000000000000BD
:104DF60000000000000000000000000000000000AD
:104E0600000000000000000000000000000000009C
:104E16000000000000C42464A42424FC2464A42408
:104E26002424C40000000000000000000000000070
:104E36000000000000FF0004183142FF00048891C2
:104E4600A2807F00000000000000000000000000BB
:104E560000000000000000E0000000FC0000000070
:104E6600608000000000000000000000000000005C
:104E76000000000020180700808080FF000000006E
:104E860000073800000000000000000000000000DD
:104E96000000000000C42464A42424FC2464A42488
:104EA6002424C400000000000000000000000000F0
:104EB6000000000000FF0004183142FF0004889142
:104EC600A2807F000000000000000000000000003B
:104ED600000000000000F010101010FE101010105E
:104EE60010F00000000000000000000000000000BC
:104EF6000000000000000F08080808FF080808085E
:104F0600080F000000000000000000000000000084
:104F16000000000000C42464A42424FC2464A42407
:104F26002424C4000000000000000000000000006F
:104F36000000000000FF0004183142FF00048891C1
:104F4600A2807F00000000000000000000000000BA
:104F56000000000000202020202020FCA02020208F
:104F660020202000000000000000000000000000DB
:104F7600000000000080804020180601010618206D
:104F860040808000000000000000000000000000DB
:104F96000000000000C42464A42424FC2464A42487
:104FA6002424C400000000000000000000000000EF
:104FB6000000000000FF0004183142FF0004889141
:104FC600A2807F000000000000000000000000003A
:104FD600000000000080BCACACECACACACACECAC03
:104FE600ACBC8000000000000000000000000000D3
:104FF60000000000000A8A864ED3A2FE0232534EFB
:10500600868A120000000000000000000000000078
:105016000000000000C42464A42424FC2464A42406
:105026002424C4000000000000000000000000006E
:105036000000000000FF0004183142FF00048891C0
:10504600A2807F00000000000000000000000000B9
:10505600000000000080BCACACECACACACACECAC82
:10506600ACBC800000000000000000000000000052
:1050760000000000000A8A864ED3A2FE0232534E7A
:10508600868A1200000000000000000000000000F8
:105096000000000000C42464A42424FC2464A42486
:1050A6002424C400000000000000000000000000EE
:1050B6000000000000FF0004183142FF0004889140
:1050C600A2807F0000000000000000000000000039
:1050D6000000000000C42464A42424FC2464A42446
:1050E6002424C400000000000000000000000000AE
:1050F6000000000000FF0004183142FF0004889100
:10510600A2807F00000000000000000000000000F8
:105116000000000000E0145454545414FC54545439
:1051260054147000000000000000000000000000A1
:105136000000000000008485A5A5A5A6A5A5A5A537
:10514600A5FC0000000000000000000000000000B8
:105156000000000000C42464A42424FC2464A424C5
:105166002424C4000000000000000000000000002D
:105176000000000000FF0004183142FF000488917F
:10518600A2807F0000000000000000000000000078
:105196000000000000E0145454545414FC545454B9
:1051A6005414700000000000000000000000000021
:1051B6000000000000008485A5A5A5A6A5A5A5A5B7
:1051C600A5FC000000000000000000000000000038
:1051D6000000000000C42464A42424FC2464A42445
:1051E6002424C400000000000000000000000000AD
:1051F6000000000000FF0004183142FF00048891FF
:10520600A2807F00000000000000000000000000F7
:105216000000000000E0145454545414FC54545438
:1052260054147000000000000000000000000000A0
:105236000000000000008485A5A5A5A6A5A5A5A536
:10524600A5FC0000000000000000000000000000B7
:1052560000000000000038C000088848380EC80862
:105266000808080000000000000000000000000020
:10527600000000000040300E0040338E82827F0224
:105286000E12620000000000000000000000000096
:105296000000000000C42464A42424FC2464A42484
:1052A6002424C400000000000000000000000000EC
:1052B6000000000000FF0004183142FF000488913E
:1052C600A2807F0000000000000000000000000037
:1052D60000000000000000000000000000000000C8
:1052E60000000000000000000000000000000000B8
:1052F60000000000000000000000000000000000A8
:105306000000000000000000000000000000000097
:105316000000000000E0145454545414FC54545437
:10532600541470000000000000000000000000009F
:105336000000000000008485A5A5A5A6A5A5A5A535
:10534600A5FC0000000000000000000000000000B6
:105356000000000000FC04E41C008868180EE80841
:10536600080808000000000000000000000000001F
:105376000000000000FF08100F0009090909FF09D5
:1053860009090800000000000000000000000000FD
:105396000000000000E0145454545414FC545454B7
:1053A600541470000000000000000000000000001F
:1053B6000000000000008485A5A5A5A6A5A5A5A5B5
:1053C600A5FC000000000000000000000000000036
:1053D60000000000000000E0000000FC00000000EB
:1053E60060800000000000000000000000000000D7
:1053F6000000000020180700808080FF00000000E9
:105406000007380000000000000000000000000057
:105416000000000000E0145454545414FC54545436
:10542600541470000000000000000000000000009E
:105436000000000000008485A5A5A5A6A5A5A5A534
:10544600A5FC0000000000000000000000000000B5
:10545600000000000000F010101010FE10101010D8
:1054660010F0000000000000000000000000000036
:105476000000000000000F08080808FF08080808D8
:10548600080F0000000000000000000000000000FF
:105496000000000000E0145454545414FC545454B6
:1054A600541470000000000000000000000000001E
:1054B6000000000000008485A5A5A5A6A5A5A5A5B4
:1054C600A5FC000000000000000000000000000035
:1054D6000000000000202020202020FCA02020200A
:1054E6002020200000000000000000000000000056
:1054F60000000000008080402018060101061820E8
:105506004080800000000000000000000000000055
:105516000000000000E0145454545414FC54545435
:10552600541470000000000000000000000000009D
:105536000000000000008485A5A5A5A6A5A5A5A533
:10554600A5FC0000000000000000000000000000B4
:10555600000000000080BCACACECACACACACECAC7D
:10556600ACBC80000000000000000000000000004D
:1055760000000000000A8A864ED3A2FE0232534E75
:10558600868A1200000000000000000000000000F3
:105596000000000000E0145454545414FC545454B5
:1055A600541470000000000000000000000000001D
:1055B6000000000000008485A5A5A5A6A5A5A5A5B3
:1055C600A5FC000000000000000000000000000034
:1055D60000000000000000E0000000FC00000000E9
:1055E60060800000000000000000000000000000D5
:1055F6000000000020180700808080FF00000000E7
:105606000007380000000000000000000000000055
:105616000000000000E0145454545414FC54545434
:10562600541470000000000000000000000000009C
:105636000000000000008485A5A5A5A6A5A5A5A532
:10564600A5FC0000000000000000000000000000B3
:10565600000000000000F010101010FE10101010D6
:1056660010F0000000000000000000000000000034
:105676000000000000000F08080808FF08080808D6
:10568600080F0000000000000000000000000000FD
:105696000000000000E0145454545414FC545454B4
:1056A600541470000000000000000000000000001C
:1056B6000000000000008485A5A5A5A6A5A5A5A5B2
:1056C600A5FC000000000000000000000000000033
:1056D6000000000000202020202020FCA020202008
:1056E6002020200000000000000000000000000054
:1056F60000000000008080402018060101061820E6
:105706004080800000000000000000000000000053
:105716000000000000E0145454545414FC54545433
:10572600541470000000000000000000000000009B
:105736000000000000008485A5A5A5A6A5A5A5A531
:10574600A5FC0000000000000000000000000000B2
:1057560000000000004484080818E88888B484849F
:10576600E41C000000000000000000000000000033
:10577600000000000080601F08080888888A8D796C
:1057860008080800000000000000000000000000FB
:105796000000000000008060180000FC0000000807
:1057A6001060800000000000000000000000000003
:1057B6000000000000808888888888FF888888889C
:1057C6008888800000000000000000000000000043
:1057D60000000000002020FE202080C4A4A4949491
:1057E6008C80800000000000000000000000000027
:1057F60000000000008484FF0220108C43209C835C
:1058060080807F0000000000000000000000000013
:1058160000000000008488100080780000FC000072
:1058260018E000000000000000000000000000007A
:105836000000000000C0310D00838080809F402062
:10584600100C03040000000000000000000000002F
:1058560000000000008488100080780000FC000032
:1058660018E000000000000000000000000000003A
:105876000000000000C0310D00838080809F402022
:10588600100C0304000000000000000000000000EF
:105896000000000000008060180000FC0000000806
:1058A6001060800000000000000000000000000002
:1058B6000000000000808888888888FF888888889B
:1058C6008888800000000000000000000000000042
:1058D6000000000000C044443C0098A4A4A4E4A432
:1058E600A49C000000000000000000000000000072
:1058F6000000000000838484FC808F8888887F48AD
:10590600586FC0000000000000000000000000000A
:105916000000000000008060180000FC0000000885
:105926001060800000000000000000000000000081
:105936000000000000808888888888FF888888881A
:1059460088888000000000000000000000000000C1
:105956000000000000FC14E404E414FC00FC949431
:1059660094FC0000000000000000000000000000A1
:1059760000000000007F3008070D301F28679A8A54
:105986008AB7E000000000000000000000000000F0
:10599600000000000000FC041464840404C43C04F9
:1059A600FC000000000000000000000000000000F5
:1059B600000000008078074020100805030C102026
:1059C6001F60C03000000000000000000000000062
:1059D60000000000000000000000000000000000C1
:1059E60000000000000000000000000000000000B1
:1059F60000000000000000000000000000000000A1
:105A06000000000000000000000000000000000090
:105A1600000000000078686CECEC6C7C0C4C6C6C44
:105A26004C087800000000000000000000000000A4
:105A36000000000000088A99995A3F1595971B990E
:105A460068080800000000000000000000000000D8
:105A560000000000004488081060101090F8101034
:105A660010107000000000000000000000000000A0
:105A760000000000008060190904067F8040430E84
:105A8600122141000000000000000000000000009C
:105A9600000000000078686CECEC6C7C0C4C6C6CC4
:105AA6004C08780000000000000000000000000024
:105AB6000000000000088A99995A3F1595971B998E
:105AC6006808080000000000000000000000000058
:105AD6000000000000C044443C0098A4A4A4E4A430
:105AE600A49C000000000000000000000000000070
