:030000000268FE95
:0C68FE00787FE4F6D8FD7581070269453B
:100026000000000000000000002F00000000070094
:10003600070000147F147F1400242A7F2A1200620E
:1000460064081323003649552250000005030000BA
:1000560000001C224100000041221C000014083E42
:1000660008140008083E0808000000A06000000808
:10007600080808080000606000000020100804025C
:10008600003E5149453E0000427F4000004261511A
:100096004946002141454B31001814127F100027B4
:1000A60045454539003C4A49493000017109050377
:1000B60000364949493600064949291E00003636A8
:1000C600000000005636000000081422410000140B
:1000D60014141414000041221408000201510906E8
:1000E60000324959513E007C1211127C007F494969
:1000F6004936003E41414122007F4141221C007F9A
:1001060049494941007F09090901003E4149497AA7
:10011600007F0808087F0000417F41000020404121
:100126003F01007F08142241007F40404040007F8D
:10013600020C027F007F0408107F003E4141413ED1
:10014600007F09090906003E4151215E007F091919
:1001560029460046494949310001017F0101003F16
:100166004040403F001F2040201F003F4038403F96
:1001760000631408146300070870080700615149FA
:10018600454300007F41410000552A552A5500008D
:1001960041417F000004020102040040404040400B
:1001A600000001020400002054545478007F4844A3
:1001B600443800384444442000384444487F0038DA
:1001C6005454541800087E0901020018A4A4A47C03
:1001D600007F080404780000447D400000408084CD
:1001E6007D00007F102844000000417F4000007C15
:1001F60004180478007C0804047800384444443821
:1002060000FC242424180018242418FC007C08046C
:10021600040800485454542000043F444020003C45
:100226004040207C001C2040201C003C4030403CCC
:10023600004428102844001CA0A0A07C004464545C
:100246004C441414141414140000000000000000A0
:100256000000000000000000000000F800000000A0
:10026600000000333000000000100C06100C0600E1
:10027600000000000000000040C07840C078400048
:10028600043F04043F040400007088FC08300000AA
:10029600001820FF211E0000F008F000E018000002
:1002A60000211C031E211E0000F0088870000000BB
:1002B6001E2123241927211010160E00000000000D
:1002C6000000000000000000000000E0180402002A
:1002D600000000071820400000020418E00000009B
:1002E6000040201807000000404080F08040400099
:1002F6000202010F01020200000000F000000000EF
:100306000101011F010101000000000000000000C2
:1003160080B0700000000000000000000000000037
:1003260000010101010101010000000000000000C0
:10033600003030000000000000000000806018045B
:10034600006018060100000000E010080810E00038
:10035600000F102020100F00001010F80000000001
:100366000020203F20200000007008080888700048
:1003760000302824222130000030088888483000C8
:100386000018202020110E000000C02010F80000E8
:1003960000070424243F240000F808888808080081
:1003A6000019212020110E0000E010888818000096
:1003B600000F112020110E0000380808C838080068
:1003C6000000003F000000000070880808887000E8
:1003D600001C222121221C0000E010080810E00069
:1003E6000000312222110F00000000C0C0000000F2
:1003F6000000003030000000000000800000000017
:10040600000080600000000000008040201008000E
:1004160000010204081020004040404040404000D7
:1004260004040404040404000008102040800000B2
:100436000020100804020100007048080808F000B7
:100446000000003036010000C030C828E810E00087
:100456000718272423140B000000C038E000000012
:10046600203C23020227382008F88888887000007C
:10047600203F202020110E00C03008080808380050
:10048600071820202010080008F808080810E000C7
:10049600203F202020100F0008F88888E808100068
:1004A600203F20202320180008F88888E80810003C
:1004B600203F200003000000C03008080838000074
:1004C60007182020221E020008F808000008F80875
:1004D600203F210101213F20000808F808080000FC
:1004E6000020203F2020000000000808F80808002F
:1004F600C08080807F00000008F888C028180800A7
:10050600203F20012638200008F8080000000000DF
:10051600203F20202020300008F8F800F8F80800D6
:10052600203F003F003F200008F830C00008F808D0
:10053600203F200007183F00E01008080810E000E0
:100546000F10202020100F0008F808080808F000F7
:10055600203F210101010000E01008080810E0001A
:100566000F18242438504F0008F8888888887000AF
:10057600203F2000030C302000708808080838004F
:100586000038202121221C00180808F80808180045
:100596000000203F2000000008F808000008F808C6
:1005A600001F202020201F000878880000C8380877
:1005B600000007380E010000F80800F80008F800EF
:1005C600033C0700073C0300081868808068180889
:1005D60020302C03032C30200838C800C838080007
:1005E6000000203F2000000010080808C838080056
:1005F6002038262120201800000000FE02020200FA
:100606000000007F40404000000C30C000000000A9
:10061600000000010638C00000020202FE000000D1
:10062600004040407F000000000004020202040077
:1006360000000000000000000000000000000000B4
:10064600808080808080808000020204000000009C
:100656000000000000000000000080808080000094
:100666000019242222223F2008F800808000000082
:10067600003F112020110E00000000808080000045
:10068600000E112020201100000000808088F80054
:10069600000E112020103F20000080808080000086
:1006A600001F222222221300008080F088888818EA
:1006B6000020203F202000000000808080808000F5
:1006C600006B94949493600008F80080808000008A
:1006D600203F210000203F20008098980000000065
:1006E6000020203F20200000000000809898000095
:1006F60000C08080807F000008F8000080808000B5
:10070600203F24022D302000000808F800000000D9
:100716000020203F20200000808080808080800094
:10072600203F20003F20003F808000808080000026
:10073600203F210000203F200000808080800000B4
:10074600001F202020201F008080008080000000E5
:1007560080FFA12020110E00000000808080800014
:10076600000E112020A0FF80808080008080800005
:1007760020203F2120000100000080808080800032
:100786000033242424241900008080E080800000A7
:100796000000001F202000008080000000808000F4
:1007A600001F202020103F20808080000080808055
:1007B60000010E30080601008080008000808080E5
:1007C6000F300C030C300F0000808000808080000A
:1007D6000020312E0E312000808080000080808035
:1007E60080818E70180601000080808080808000E5
:1007F6000021302C2221300000000000807C020203
:1008060000000000003F404000000000FF00000024
:1008160000000000FF0000000002027C80000000D3
:100826000040403F000000000006010102020404EF
:1008360000000000000000000000000000000000B2
:1008460000000000000000000000000000000000A2
:100856000000000000000000000000000000000092
:1008660000F0F000000000000000000000770F001C
:100876000000000000000000001C1C00000000003A
:1008860000008060301C8C60301C0C0000000000F2
:100896000000000000000000000000000000000052
:1008A6000000000000000000F000000000F0000062
:1008B600008383FF83838383FB87830000011F01FB
:1008C600010101011F010100000080C06020F82025
:1008D600E0C00000000003070C18FF71E181000072
:1008E6000000070F12107F100F070000C0301030F5
:1008F600C00000C03000000007181018CF38C631FD
:100906001030C00000001807000007181018070074
:100916000000E0F010F0E00000000000C0E0173F2B
:10092600F8C70308F8080800070F181010130F0E71
:100936001910100C00008C4C38000000000000005C
:1009460000000000000000000000000000000000A1
:1009560000000000000000000000000000008060B1
:10096600100804000000000000FE01000000000066
:10097600000000000000030C1020400000040810D6
:100986006080000000000000000000000001FE0082
:1009960000000000004020100C03000000000000D2
:1009A600000000000000C080000000000066662411
:1009B6003810FF183C2466660000000000000300A3
:1009C60000000000000000000000800000000000A1
:1009D600001010101010FF10101010100000000072
:1009E60000000300000000000000000000000000FE
:1009F60000000000000000000000000000000000F1
:100A060000008C4C380000000000000000000000D0
:100A16000000000000000000001010101010101060
:100A26001010100000000000000000000000000090
:100A360000000000000000000000000000000000B0
:100A4600000000000000000000001C1C1C0000004C
:100A5600000000000000000000000000E0380C006C
:100A66000000000080701C03000000000060380ECB
:100A76000100000000000000000080C0602020602F
:100A8600C080000000FEFF010000000001FFFE0024
:100A96000001070E181010180E0701000000404054
:100AA60040C0E000000000000000000000FFFF0062
:100AB6000000000000001010101F1F101010000092
:100AC6000080402020202060C0800000000303003A
:100AD60000C060301F07000000181C121110101013
:100AE600101E000000C0C020202060C08000000052
:100AF600000101001010182FE7800000000E0E10F4
:100B0600101010180F07000000000000000080E021
:100B1600E000000000C0A098848380FFFF808080F2
:100B2600000000000010101F1F1010000000E02041
:100B3600202020202020000000003F100808081870
:100B4600F0E0000000070B101010101C0F0300004F
:100B5600000080C040202020E0C0000000FCFF21F3
:100B66001008080818F0E0000001070C1810101013
:100B7600080F03000000C0602020202020E0600055
:100B8600000001000000E01807000000000000005F
:100B9600001F1F00000000000080C06020202020F1
:100BA60060C080000083CF6C1810303068CF83009F
:100BB60000070F0810101010180F07000000C0C023
:100BC60020202020C0800000001F3F6040404020C1
:100BD60010FFFE0000000C1C101010080F03000090
:100BE60000000000000000000000000000000000FF
:100BF600001C1C1C0000000000000000001C1C1C47
:100C060000000000000000000000000000000000DE
:100C160000000000000C0C000000000000000000B6
:100C260000D838000000000000000000000000802E
:100C3600402010000000102844820100000000003F
:100C4600000000000000010204081000000000007F
:100C560000000000000000000044444444444444B2
:100C660044444400000000000000000000000000B2
:100C7600000010204080000000000000000000007E
:100C86000000018244281000000010080402010040
:100C96000000000000008040402020202060C0802E
:100CA600000007060000E01018080F07000000000B
:100CB600001C1C1C000000000000C0E020109090EA
:100CC600A060800000FEFF00F8FF03FC07807F00A5
:100CD6000000070E18111111090C02000000000097
:100CE6008060E00000000000000080784740415F1F
:100CF600F0800000101C131000000000111F1810D7
:100D06000020E0E020202060C0C000000000FFFFBF
:100D1600101010182FE7800000101F1F1010101061
:100D2600180F0700000080C04020202060E08000EF
:100D360000FCFF0100000000000003000001070E98
:100D460018101010080C03002020E0E0202020409E
:100D5600C08000000000FFFF0000000001FFFE0051
:100D660010101F1F101010080E07010020E0E020D1
:100D7600202020206060800000FFFF10101010FC73
:100D860000000100101F1F10101010101018060090
:100D960020E0E020202020206060800000FFFF107F
:100DA600101010FC00000100101F1F1010000000A2
:100DB60000000000000080C060202020408000006D
:100DC60000FCFF0100004040C0C340400001070E88
:100DD600181010100F0F000020E0E02000000000A7
:100DE60020E0E02000FFFF101010101010FFFF00A1
:100DF600101F1F1000000000101F1F1000002020F1
:100E060020E0E020202000000000000000FFFF009E
:100E16000000000000001010101F1F10101000002E
:100E2600000000202020E0E020202000000000003C
:100E36000000FFFF000000000060E08080C07F3FF0
:100E46000000000020E0E0200000A0E0602000009C
:100E560000FFFF300C3AE18000000000101F1F1059
:100E6600000000131E18100020E0E0202000000003
:100E76000000000000FFFF0000000000000000006E
:100E8600101F1F10101010101018060020E0E000B0
:100E9600000000C0E0E0200000FF0FFFE0807C03C0
:100EA600FFFF0000101F10000F0700101F1F10008B
:100EB6000020E0E08000002020E020200000FF016C
:100EC600071E78C000FF000010101F10100000035E
:100ED6000F1F0000000080C060202060C08000005E
:100EE60000FEFF010000000000FFFE000001070EEB
:100EF600181010180C07010020E0E0202020202008
:100F060040C0800000FFFF2020202030101F0F006F
:100F1600101F1F101000000000000000000080C01D
:100F260060202060C080000000FEFF01000000007D
:100F360000FFFE000001070E1911173C6C67210027
:100F460020E0E0202020202060C0800000FFFF106D
:100F5600101070D0080F0700101F1F1000000001AE
:100F6600071E18100080C0602020202040E00000EE
:100F760000070F1C18383070E0E1800000070C08ED
:100F860010101010180F07008060202020E0E020CD
:100F9600202060800100000000FFFF00000000012B
:100FA60000000010101F1F10100000000020E0E0DD
:100FB6002000000020E020000000FFFF00000000ED
:100FC60000FF00000000070F1810101008070000AF
:100FD6002060E02000000000A06020000000077EE6
:100FE600E00080780700000000000000071E0300F4
:100FF6000000000020E020002060E0200020E0202B
:101006000003FFC0C03C3FF0807C03000000001FCF
:101016000300001F07000000002060E02000002001
:10102600E020200000000001877CE8860100000027
:1010360000101816010000131E1810002060E02092
:101046000000000020A060200000010F3CF8E0181E
:101056000601000000000010101F1F101000000005
:101066000080E06020202020A0E020000001000099
:10107600806018060300000000101C1711101010E5
:10108600101806000000000000000000000000002C
:10109600000000000000000000000000000000004A
:1010A600000000002018080808C838CF08080808FB
:1010B600A81800000000000000000000000000006A
:1010C6000000000010080402FF40200003040A117B
:1010D600204040000000000000000000000000006A
:1010E600000000000000FE0242424242FA42424232
:1010F60042C20200000000000000000000000000E4
:101106000000000080601F8040201806010040801B
:10111600403F00000000000000000000000000004A
:1011260000000000000000E0000000FF00000020BA
:1011360040800000000000000000000000000000E9
:1011460000000000080403000040807F000000004B
:1011560000010E000000000000000000000000007A
:1011660000000000100C445454FC555654FC5454D2
:1011760044140C0000000000000000000000000005
:1011860000000000111109050321254549910305B9
:10119600091111000000000000000000000000001E
:1011A6000000000020202020202020FF20202020DA
:1011B60020202000000000000000000000000000C9
:1011C6000000000080804020100C0300030C10205B
:1011D60040808000000000000000000000000000C9
:1011E60000000000100C445454FC555654FC545452
:1011F60044140C0000000000000000000000000085
:101206000000000011110905032125454991030538
:10121600091111000000000000000000000000009D
:10122600000000000010109010101116101010D0C1
:101236001010000000000000000000000000000088
:101246000000000040404040435C4040504C43405A
:1012560040404000000000000000000000000000C8
:101266000000000040445454D454745F5454D45481
:101276005444400000000000000000000000000090
:101286000000000004040201FE9292929292FE0176
:10129600020404000000000000000000000000003E
:1012A6000000000002E22222222222FE2222222224
:1012B60022E2020000000000000000000000000022
:1012C6000000000000FF00000912007F0009124024
:1012D600807F000000000000000000000000000009
:1012E6000000000000202020A06000FF6080402059
:1012F60018000000000000000000000000000000D0
:1013060000000000201008060140807F0001020452
:10131600081010000000000000000000000000009F
:101326000000000000E000FF102004E4242526242D
:1013360024E404000000000000000000000000009B
:1013460000000000010000FF0020100D41817F0118
:101356000509300000000000000000000000000049
:101366000000000024A424FF140084543F44047C9D
:1013760080E0000000000000000000000000000007
:10138600000000000040C15E5253527F5252525E2E
:1013960060C1000000000000000000000000000026
:1013A6000000000040445454D454745F5454D45440
:1013B600544440000000000000000000000000004F
:1013C6000000000004040201FE9292929292FE0135
:1013D60002040400000000000000000000000000FD
:1013E60000000000804020908886808080838C10DA
:1013F6002040800000000000000000000000000007
:1014060000000000008040201807004080403F0098
:1014160000000000000000000000000000000000C6
:10142600000000001060028C00445454547F545451
:1014360054444000000000000000000000000000CE
:101446000000000004047E010000FF1515155595E7
:101456007F00000000000000000000000000000007
:101466000000000000FC444444FC0000FE2222224E
:1014760022FE000000000000000000000000000046
:1014860000000000000F0404048F40300F020242E7
:10149600827F000000000000000000000000000045
:1014A60000000000001088844320100C10204182A8
:1014B600840800000000000000000000000000009A
:1014C60000000000010100FE42424242424242FE4A
:1014D6000001010000000000000000000000000004
:1014E6000000000002E22222222222FE22222222E2
:1014F60022E20200000000000000000000000000E0
:101506000000000000FF00000912007F00091240E1
:10151600807F0000000000000000000000000000C6
:10152600000000000010109010101116101010D0BE
:101536001010000000000000000000000000000085
:101546000000000040404040435C4040504C434057
:1015560040404000000000000000000000000000C5
:1015660000000000000101FD55555755555555FD24
:101576000101000000000000000000000000000063
:1015860000000000809088454F55252525554D457E
:1015960080808000000000000000000000000000C5
:1015A60000000000000000E0000000FF0000002036
:1015B6004080000000000000000000000000000065
:1015C60000000000080403000040807F00000000C7
:1015D60000010E00000000000000000000000000F6
:1015E600000000001060028C0024242FE42424E470
:1015F6002F2424000000000000000000000000006E
:101606000000000004047E0100FF11090719090704
:1016160049917F000000000000000000000000006B
:1016260000000000848484849F84A4C484849F84EE
:101636008484840000000000000000000000000018
:1016460000000000000000007F4040404040404055
:101656004040000000000000000000000000000004
:10166600000000002424A4FE232200F01010FF1026
:1016760010F0000000000000000000000000000064
:1016860000000000080601FF010600070202FF0233
:10169600020700000000000000000000000000003B
:1016A60000000000000101FD55555755555555FDE3
:1016B6000101000000000000000000000000000022
:1016C60000000000809088454F55252525554D453D
:1016D6008080800000000000000000000000000084
:1016E6000000000000024262524A464242425262F2
:1016F600C202000000000000000000000000000020
:1017060000000000404044444444447F4444444470
:1017160044404000000000000000000000000000FF
:1017260000000000000000E0000000FF00000020B4
:1017360040800000000000000000000000000000E3
:1017460000000000080403000040807F0000000045
:1017560000010E0000000000000000000000000074
:10176600000000000000005F5555F5555555955F82
:101776000000000000000000000000000000000063
:101786000000000011110909FD555757555555FD23
:101796000101010000000000000000000000000040
:1017A6000000000020202020202020FF20202020D4
:1017B60020202000000000000000000000000000C3
:1017C6000000000080804020100C0300030C102055
:1017D60040808000000000000000000000000000C3
:1017E600000000000000005F5555F5555555955F02
:1017F60000000000000000000000000000000000E3
:101806000000000011110909FD555757555555FDA2
:1018160001010100000000000000000000000000BF
:10182600000000000010109010101116101010D0BB
:101836001010000000000000000000000000000082
:101846000000000040404040435C4040504C434054
:1018560040404000000000000000000000000000C2
:10186600000000002424A4FE2322807000FF0080D4
:1018760040300000000000000000000000000000F2
:1018860000000000080601FF018640300E01061820
:101896002040800000000000000000000000000062
:1018A600000000000080609F0808F80000FF10207C
:1018B6004080000000000000000000000000000062
:1018C60000000000814020130C132020405F4040A0
:1018D6004041400000000000000000000000000041
:1018E600000000000000005F5555F5555555955F01
:1018F60000000000000000000000000000000000E2
:101906000000000011110909FD555757555555FDA1
:1019160001010100000000000000000000000000BE
:10192600000000000000F808080C0A09080808086A
:10193600F8000000000000000000000000000000A9
:10194600000000000000FF41414141414141414149
:10195600FF00000000000000000000000000000082
:1019660000000000100C05555555057F05D5555549
:1019760005140C000000000000000000000000003C
:101986000000000080F7857D5557000AE9ABA5A544
:10199600EB08080000000000000000000000000046
:1019A600000000002424A4FE2322807000FF008093
:1019B60040300000000000000000000000000000B1
:1019C60000000000080601FF018640300E010618DF
:1019D6002040800000000000000000000000000021
:1019E60000000000804020908886808080838C10D4
:1019F6002040800000000000000000000000000001
:101A060000000000008040201807004080403F0092
:101A160000000000000000000000000000000000C0
:101A260000000000100C445454FC555654FC545409
:101A360044140C000000000000000000000000003C
:101A460000000000111109050321254549910305F0
:101A56000911110000000000000000000000000055
:101A660000000000100C05555555057F05D5555548
:101A760005140C000000000000000000000000003B
:101A86000000000080F7857D5557000AE9ABA5A543
:101A9600EB08080000000000000000000000000045
:101AA60000000000100C05555555057F0555555588
:101AB60005140C00000000000000000000000000FB
:101AC6000000000020120A06FF0A1200FF555555B5
:101AD60055FF0000000000000000000000000000AC
:101AE6000000000000FE0222DA8690485724A45423
:101AF6004C84800000000000000000000000000090
:101B06000000000000FF0810080718121212FF124A
:101B1600121210000000000000000000000000008B
:101B2600000000000010109010101116101010D0B8
:101B3600101000000000000000000000000000007F
:101B46000000000040404040435C4040504C434051
:101B560040404000000000000000000000000000BF
:101B6600000000000020100894A7444444A4940CEC
:101B7600000000000000000000000000000000005F
:101B860000000000020201012024244448881001BC
:101B9600010202000000000000000000000000003A
:101BA60000000000000000E0000000FF0000002030
:101BB600408000000000000000000000000000005F
:101BC60000000000080403000040807F00000000C1
:101BD60000010E00000000000000000000000000F0
:101BE60000000000100C05555555057F0555555547
:101BF60005140C00000000000000000000000000BA
:101C060000000000000041494949494949494949FC
:101C1600FF000000000000000000000000000000BF
:101C26000000000020202020202020FF202020204F
:101C3600202020000000000000000000000000003E
:101C46000000000080804020100C0300030C1020D0
:101C5600408080000000000000000000000000003E
:101C660000000000100C05555555057F05555555C6
:101C760005140C0000000000000000000000000039
:101C8600000000000000414949494949494949497C
:101C9600FF0000000000000000000000000000003F
:101CA600000000000020100894A7444444A4940CAB
:101CB600000000000000000000000000000000001E
:101CC600000000000202010120242444488810017B
:101CD60001020200000000000000000000000000F9
:101CE6000000000000024262524A464242425262EC
:101CF600C20200000000000000000000000000001A
:101D060000000000404044444444447F444444446A
:101D160044404000000000000000000000000000F9
:101D260000000000000202C2020202FE82828282DB
:101D36008202000000000000000000000000000019
:101D4600000000004040407F4040407F404040400F
:101D560040404000000000000000000000000000BD
:101D6600000000008080808080808080808080806D
:101D760080808000000000000000000000000000DD
:101D8600000000000000000000000000000000004D
:101D9600000000000000000000000000000000003D
:101DA60000000000000008080808080808080808DD
:101DB6000800000000000000000000000000000015
:101DC600000000001010101010101010101010104D
:101DD60010101000000000000000000000000000CD
:101DE60000000000000484848484848484848484C1
:101DF6008404000000000000000000000000000055
:101E0600000000002020202020202020202020204C
:101E1600202020000000000000000000000000005C
:101E26000000000000FC040404FC040404FC040498
:101E360004FC00000000000000000000000000009C
:101E460000000000007F28242320202020212222B9
:101E5600227F0000000000000000000000000000DB
:101E6600000000000002424242C27E42424242C29A
:101E76000202000000000000000000000000000058
:101E86000000000040404040784740404040407FCE
:101E9600404040000000000000000000000000007C
:101EA6000000000020202020202021222C2020209D
:101EB60020202000000000000000000000000000BC
:101EC60000000000004020100C0300000001020486
:101ED6001860000000000000000000000000000084
:101EE60000000000808080808040FF40404020202D
:101EF600202000000000000000000000000000009C
:101F0600000000000000000000003F40404040404C
:101F16004078000000000000000000000000000003
:101F2600000000000000000000FC0000007E8000B1
:101F3600000000000000000000000000000000009B
:101F46000000000000806018070000000000030C7D
:101F5600304080000000000000000000000000008B
:101F6600000000000010101010FF10101010F000FC
:101F7600000000000000000000000000000000005B
:101F860000000000804020180700000000003F40CD
:101F96004040780000000000000000000000000043
:101FA6000000000040404040404040FF404040406C
:101FB600404040000000000000000000000000005B
:101FC6000000000000000000000000FF000000000C
:101FD60000000000000000000000000000000000FB
:101FE600000000000020100894A7444444A4940C68
:101FF60000000000000000000000000000000000DB
:102006000000000002020101202424444888100137
:1020160001020200000000000000000000000000B5
:102026000000000000FE2222FE4048487F48484843
:102036007F4848000000000000000000000000008B
:1020460000000000807F0282FF0000FF49494949E5
:1020560049FF000000000000000000000000000032
:1020660000000000080889EA1888000404FC04043B
:1020760004FC00000000000000000000000000005A
:1020860000000000020100FF018640201807408082
:10209600403F0000000000000000000000000000BB
:1020A6000000000020202020FF202020202020FFEC
:1020B60020202000000000000000000000000000BA
:1020C6000000000000000000FF404040404040FF8C
:1020D60000000000000000000000000000000000FA
:1020E60000000000000000FE2222222222222222DC
:1020F600FE000000000000000000000000000000DC
:10210600000000008040300F0202020202024282FA
:102116007F0000000000000000000000000000003A
:10212600000000000000FE82929292FE929292823D
:10213600FE0000000000000000000000000000009B
:102146000000000080601F00001E1212121E408058
:102156007F000000000000000000000000000000FA
:1021660000000000000000FE82828282828282FEDF
:102176000000000000000000000000000000000059
:1021860000000000000000FF40404040404040FF8B
:102196000000000000000000000000000000000039
:1021A6000000000000000000000000000000000029
:1021B6000000000000000000000000000000000019
:1021C6000000000000000000000000000000000009
:1021D60000000000000000000000000000000000F9
:1021E6000000000000FC8484FC00445454547F54D6
:1021F60054544400000000000000000000000000ED
:1022060000000000003F10103F0000FF1515155597
:10221600957F0000000000000000000000000000A4
:102226000000000000008060180000FF0000089019
:1022360020C00000000000000000000000000000B8
:102246000000000000818080404020130804020145
:102256000000000000000000000000000000000078
:1022660000000000404042424242C24242424242D4
:102276004240400000000000000000000000000096
:10228600000000000020702824232020202428306D
:10229600E000000000000000000000000000000058
:1022A600000000000000101098A44744A4540C0439
:1022B6000000000000000000000000000000000018
:1022C600000000000081898944444A312111090532
:1022D60003000000000000000000000000000000F5
:1022E60000000000404042424242C2424242424254
:1022F6004240400000000000000000000000000016
:1023060000000000002070282423202020242830EC
:10231600E0000000000000000000000000000000D7
:10232600000000000000101098A44744A4540C04B8
:102336000000000000000000000000000000000097
:10234600000000000081898944444A3121110905B1
:102356000300000000000000000000000000000074
:1023660000000000404042424242C24242424242D3
:102376004240400000000000000000000000000095
:10238600000000000020702824232020202428306C
:10239600E000000000000000000000000000000057
:1023A6000000000000FE0222DA0600FE222222229F
:1023B60022FE0000000000000000000000000000F7
:1023C6000000000000FF08108847300F020202429A
:1023D600827F0000000000000000000000000000F6
:1023E60000000000000000000000000000000000E7
:1023F60000000000000000000000000000000000D7
:1024060000000000000000000000000000000000C6
:1024160000000000000000000000000000000000B6
:102426000000000004040484E43C2724242424E45B
:10243600040404000000000000000000000000008A
:102446000000000004020100FF0909090949897F0B
:102456000000000000000000000000000000000076
:10246600000000000000FE021222C202C23202FE7A
:102476000000000000000000000000000000000056
:102486000000000080601F0020100C030C30000FBD
:102496003040F800000000000000000000000000CE
:1024A6000000000000020212620202FE0202423234
:1024B6000202000000000000000000000000000012
:1024C6000000000001010101010101FF01010101FC
:1024D60001010100000000000000000000000000F3
:1024E600000000004454547F545444202827E43408
:1024F6002CE00000000000000000000000000000CA
:102506000000000000FF1555957F000949897F09E5
:10251600091F01000000000000000000000000008C
:10252600000000001088C433809E909F909E20D8A3
:1025360017F010000000000000000000000000007E
:10254600000000000100FF80403E02023E10886746
:102556001867800000000000000000000000000076
:10256600000000000000FE021222C202C23202FE79
:102576000000000000000000000000000000000055
:102586000000000080601F0020100C030C30000FBC
:102596003040F800000000000000000000000000CD
:1025A60000000000202424A4FE23222000F80808AE
:1025B60008F8000000000000000000000000000015
:1025C6000000000010080601FF010600003F101081
:1025D600103F0000000000000000000000000000A6
:1025E600000000000000FE021222C202C23202FEF9
:1025F60000000000000000000000000000000000D5
:102606000000000080601F0020100C030C30000F3B
:102616003040F8000000000000000000000000004C
:10262600000000001060028C00445454547F54543F
:1026360054444000000000000000000000000000BC
:102646000000000004047E010000FF1515155595D5
:102656007F000000000000000000000000000000F5
:10266600000000000000FE021222C202C23202FE78
:102676000000000000000000000000000000000054
:102686000000000080601F0020100C030C30000FBB
:102696003040F800000000000000000000000000CC
:1026A6000000000002E222223E00809E9292F292F8
:1026B600929E800000000000000000000000000064
:1026C60000000000004382423E40474444447F44A9
:1026D6004454E70000000000000000000000000075
:1026E600000000000000FE021222C202C23202FEF8
:1026F60000000000000000000000000000000000D4
:102706000000000080601F0020100C030C30000F3A
:102716003040F8000000000000000000000000004B
:1027260000000000106000FC04847C2425E62424BC
:102736002424040000000000000000000000000047
:10274600000000008442310F828242221A071A22B8
:10275600428282000000000000000000000000002D
:10276600000000000000FE021222C202C23202FE77
:102776000000000000000000000000000000000053
:102786000000000080601F0020100C030C30000FBA
:102796003040F800000000000000000000000000CB
:1027A6000000000020202020202020FF20202020C4
:1027B60020202000000000000000000000000000B3
:1027C6000000000080804020100C0300030C102045
:1027D60040808000000000000000000000000000B3
:1027E600000000000000FE021222C202C23202FEF7
:1027F60000000000000000000000000000000000D3
:102806000000000080601F0020100C030C30000F39
:102816003040F8000000000000000000000000004A
:1028260000000000004222529E1292720200FC003A
:1028360000FF000000000000000000000000000093
:102846000000000088483404021160001060000295
:1028560014E300000000000000000000000000007B
:10286600000000000000FE021222C202C23202FE76
:102876000000000000000000000000000000000052
:102886000000000080601F0020100C030C30000FB9
:102896003040F800000000000000000000000000CA
:1028A600000000000000FE021222C202C23202FE36
:1028B6000000000000000000000000000000000012
:1028C6000000000080601F0020100C030C30000F79
:1028D6003040F8000000000000000000000000008A
:1028E600000000000040405FF55555555555F55F11
:1028F6004040000000000000000000000000000052
:1029060000000000090985452B51817D01112B45E9
:10291600850909000000000000000000000000001A
:102926000000000040221408F40200040404FC0421
:102936000404000000000000000000000000000089
:1029460000000000084482413F00404141417F4170
:1029560041414000000000000000000000000000AF
:10296600000000000000FE021222C202C23202FE75
:102976000000000000000000000000000000000051
:102986000000000080601F0020100C030C30000FB8
:102996003040F800000000000000000000000000C9
:1029A6000000000000FE428262FE0000FEAAAAAA03
:1029B600FE00000000000000000000000000000013
:1029C60000000000807F0403041F2042534A424A4D
:1029D60053426000000000000000000000000000FC
:1029E600000000000000FE021222C202C23202FEF5
:1029F60000000000000000000000000000000000D1
:102A06000000000080601F0020100C030C30000F37
:102A16003040F80000000000000000000000000048
:102A2600000000000000FE021222C202C23202FEB4
:102A36000000000000000000000000000000000090
:102A46000000000080601F0020100C030C30000FF7
:102A56003040F80000000000000000000000000008
:102A6600000000000040405FF55555555555F55F8F
:102A760040400000000000000000000000000000D0
:102A860000000000090985452B51817D01112B4568
:102A96008509090000000000000000000000000099
:102AA60000000000504CA535D59545DF4555D55558
:102AB60045D40C00000000000000000000000000EB
:102AC60000000000424A29A5927C005755557F55C3
:102AD6005557400000000000000000000000000004
:102AE60000000000000000000000000000000000E0
:102AF60000000000000000000000000000000000D0
:102B060000000000000000000000000000000000BF
:102B160000000000000000000000000000000000AF
:102B2600000000000000F010101010FF1010101030
:102B3600F00000000000000000000000000000009F
:102B46000000000000000F04040404FF0404040451
:102B56000F00000000000000000000000000000060
:102B660000000000504CA535D59545DF4555D55597
:102B760045D40C000000000000000000000000002A
:102B860000000000424A29A5927C005755557F5502
:102B96005557400000000000000000000000000043
:102BA60000000000101014D4545454FC525252D356
:102BB60012101000000000000000000000000000DD
:102BC60000000000404050575555557F5555555704
:102BD600504040000000000000000000000000001F
:102BE60000000000504CA535D59545DF4555D55517
:102BF60045D40C00000000000000000000000000AA
:102C060000000000424A29A5927C005755557F5581
:102C160055574000000000000000000000000000C2
:102C260000000000101014D4545454FC525252D3D5
:102C3600121010000000000000000000000000005C
:102C460000000000404050575555557F5555555783
:102C5600504040000000000000000000000000009E
:102C660000000000504CA535D59545DF4555D55596
:102C760045D40C0000000000000000000000000029
:102C860000000000424A29A5927C005755557F5501
:102C96005557400000000000000000000000000042
:102CA6000000000000FE0222DA0608C8B88FE88895
:102CB60088880800000000000000000000000000F6
:102CC6000000000000FF0810080708080808FF08B1
:102CD60008080800000000000000000000000000D6
:102CE6000000000002E22222222222FE22222222CA
:102CF60022E20200000000000000000000000000C8
:102D06000000000000FF00000912007F00091240C9
:102D1600807F0000000000000000000000000000AE
:102D26000000000020180AAAAAAA0AFE0AAAAAAA4D
:102D36000A28180000000000000000000000000043
:102D4600000000000000FE92929292FE92929292F1
:102D5600FE0000000000000000000000000000006F
:102D66000000000002E22222222222FE2222222249
:102D760022E2020000000000000000000000000047
:102D86000000000000FF00000912007F0009124049
:102D9600807F00000000000000000000000000002E
:102DA6000000000020180AAAAAAA0AFE0AAAAAAACD
:102DB6000A281800000000000000000000000000C3
:102DC600000000000000FE92929292FE9292929271
:102DD600FE000000000000000000000000000000EF
:102DE6000000000002E22222222222FE22222222C9
:102DF60022E20200000000000000000000000000C7
:102E06000000000000FF00000912007F00091240C8
:102E1600807F0000000000000000000000000000AD
:102E260000000000000000E0000000FF000000209D
:102E360040800000000000000000000000000000CC
:102E460000000000080403000040807F000000002E
:102E560000010E000000000000000000000000005D
:102E66000000000002E22222222222FE2222222248
:102E760022E2020000000000000000000000000046
:102E86000000000000FF00000912007F0009124048
:102E9600807F00000000000000000000000000002D
:102EA600000000000000F010101010FF10101010AD
:102EB600F00000000000000000000000000000001C
:102EC6000000000000000F04040404FF04040404CE
:102ED6000F000000000000000000000000000000DD
:102EE6000000000002E22222222222FE22222222C8
:102EF60022E20200000000000000000000000000C6
:102F06000000000000FF00000912007F00091240C7
:102F1600807F0000000000000000000000000000AC
:102F26000000000020202020202020FF202020203C
:102F3600202020000000000000000000000000002B
:102F46000000000080804020100C0300030C1020BD
:102F5600408080000000000000000000000000002B
:102F66000000000002E22222222222FE2222222247
:102F760022E2020000000000000000000000000045
:102F86000000000000FF00000912007F0009124047
:102F9600807F00000000000000000000000000002C
:102FA600000000000040405FF55555555555F55F4A
:102FB600404000000000000000000000000000008B
:102FC60000000000090985452B51817D01112B4523
:102FD6008509090000000000000000000000000054
:102FE6000000000002E22222222222FE22222222C7
:102FF60022E20200000000000000000000000000C5
:103006000000000000FF00000912007F00091240C6
:10301600807F0000000000000000000000000000AB
:10302600000000000040405FF55555555555F55FC9
:10303600404000000000000000000000000000000A
:1030460000000000090985452B51817D01112B45A2
:1030560085090900000000000000000000000000D3
:103066000000000002E22222222222FE2222222246
:1030760022E2020000000000000000000000000044
:103086000000000000FF00000912007F0009124046
:10309600807F00000000000000000000000000002B
:1030A600000000000040405FF55555555555F55F49
:1030B600404000000000000000000000000000008A
:1030C60000000000090985452B51817D01112B4522
:1030D6008509090000000000000000000000000053
:1030E6000000000002E22222222222FE22222222C6
:1030F60022E20200000000000000000000000000C4
:103106000000000000FF00000912007F00091240C5
:10311600807F0000000000000000000000000000AA
:103126000000000000FE0222DA0608C8B88FE88810
:103136008888080000000000000000000000000071
:103146000000000000FF0810080708080808FF082C
:103156000808080000000000000000000000000051
:103166000000000002E22222222222FE2222222245
:1031760022E2020000000000000000000000000043
:103186000000000000FF00000912007F0009124045
:10319600807F00000000000000000000000000002A
:1031A6000000000020180AAAAAAA0AFE0AAAAAAAC9
:1031B6000A281800000000000000000000000000BF
:1031C600000000000000FE92929292FE929292926D
:1031D600FE000000000000000000000000000000EB
:1031E6000000000002E22222222222FE22222222C5
:1031F60022E20200000000000000000000000000C3
:103206000000000000FF00000912007F00091240C4
:10321600807F0000000000000000000000000000A9
:10322600000000001010D0FF90100202FE020262A1
:103236005AC6000000000000000000000000000068
:1032460000000000040300FF0043308F80432C1071
:103256002C43800000000000000000000000000079
:103266000000000002E22222222222FE2222222244
:1032760022E2020000000000000000000000000042
:103286000000000000FF00000912007F0009124044
:10329600807F000000000000000000000000000029
:1032A600000000002030AC63201800FC0404FC047D
:1032B60004FC000000000000000000000000000008
:1032C6000000000022672212121200FF41417F41D6
:1032D60041FF0000000000000000000000000000A8
:1032E6000000000002E22222222222FE22222222C4
:1032F60022E20200000000000000000000000000C2
:103306000000000000FF00000912007F00091240C3
:10331600807F0000000000000000000000000000A8
:103326000000000002E22222222222FE2222222283
:1033360022E2020000000000000000000000000081
:103346000000000000FF00000912007F0009124083
:10335600807F000000000000000000000000000068
:103366000000000000000000000000000000000057
:103376000000000000000000000000000000000047
:103386000000000000000000000000000000000037
:103396000000000000000000000000000000000027
:1033A60000000000000000E0000000FF0000002018
:1033B6004080000000000000000000000000000047
:1033C60000000000080403000040807F00000000A9
:1033D60000010E00000000000000000000000000D8
:1033E6000000000002E22222222222FE22222222C3
:1033F60022E20200000000000000000000000000C1
:103406000000000000FF00000912007F00091240C2
:10341600807F0000000000000000000000000000A7
:10342600000000000000F010101010FF1010101027
:10343600F000000000000000000000000000000096
:103446000000000000000F04040404FF0404040448
:103456000F00000000000000000000000000000057
:103466000000000002E22222222222FE2222222242
:1034760022E2020000000000000000000000000040
:103486000000000000FF00000912007F0009124042
:10349600807F000000000000000000000000000027
:1034A6000000000020202020202020FF20202020B7
:1034B60020202000000000000000000000000000A6
:1034C6000000000080804020100C0300030C102038
:1034D60040808000000000000000000000000000A6
:1034E6000000000002E22222222222FE22222222C2
:1034F60022E20200000000000000000000000000C0
:103506000000000000FF00000912007F00091240C1
:10351600807F0000000000000000000000000000A6
:10352600000000000040405FF55555555555F55FC4
:103536004040000000000000000000000000000005
:1035460000000000090985452B51817D01112B459D
:1035560085090900000000000000000000000000CE
:103566000000000002E22222222222FE2222222241
:1035760022E202000000000000000000000000003F
:103586000000000000FF00000912007F0009124041
:10359600807F000000000000000000000000000026
:1035A600000000000040405FF55555555555F55F44
:1035B6004040000000000000000000000000000085
:1035C60000000000090985452B51817D01112B451D
:1035D600850909000000000000000000000000004E
:1035E6000000000002E22222222222FE22222222C1
:1035F60022E20200000000000000000000000000BF
:103606000000000000FF00000912007F00091240C0
:10361600807F0000000000000000000000000000A5
:103626000000000002E22222222222FE2222222280
:1036360022E202000000000000000000000000007E
:103646000000000000FF00000912007F0009124080
:10365600807F000000000000000000000000000065
:1036660000000000100C05555555057F05555555AC
:1036760005140C000000000000000000000000001F
:103686000000000000004149494949494949494962
:10369600FF00000000000000000000000000000025
:1036A6000000000002E22222222222FE2222222200
:1036B60022E20200000000000000000000000000FE
:1036C6000000000000FF00000912007F0009124000
:1036D600807F0000000000000000000000000000E5
:1036E60000000000100C05555555057F055555552C
:1036F60005140C000000000000000000000000009F
:1037060000000000000041494949494949494949E1
:10371600FF000000000000000000000000000000A4
:103726000000000002E22222222222FE222222227F
:1037360022E202000000000000000000000000007D
:103746000000000000FF00000912007F000912407F
:10375600807F000000000000000000000000000064
:1037660000000000100C05555555057F05555555AB
:1037760005140C000000000000000000000000001E
:103786000000000000004149494949494949494961
:10379600FF00000000000000000000000000000024
:1037A6000000000000020C8060088868180FE80816
:1037B60008080800000000000000000000000000EB
:1037C6000000000002027E010020110D41817F01F0
:1037D60005093000000000000000000000000000A5
:1037E6000000000002E22222222222FE22222222BF
:1037F60022E20200000000000000000000000000BD
:103806000000000000FF00000912007F00091240BE
:10381600807F0000000000000000000000000000A3
:1038260000000000100C05555555057F05555555EA
:1038360005140C000000000000000000000000005D
:1038460000000000000041494949494949494949A0
:10385600FF00000000000000000000000000000063
:103866000000000000000000000000000000000052
:103876000000000000000000000000000000000042
:103886000000000000000000000000000000000032
:103896000000000000000000000000000000000022
:1038A6000000000000FE0222DA0608C8B88FE88889
:1038B60088880800000000000000000000000000EA
:1038C6000000000000FF0810080708080808FF08A5
:1038D60008080800000000000000000000000000CA
:1038E60000000000100C05555555057F055555552A
:1038F60005140C000000000000000000000000009D
:1039060000000000000041494949494949494949DF
:10391600FF000000000000000000000000000000A2
:1039260000000000000000E0000000FF0000002092
:1039360040800000000000000000000000000000C1
:1039460000000000080403000040807F0000000023
:1039560000010E0000000000000000000000000052
:1039660000000000100C05555555057F05555555A9
:1039760005140C000000000000000000000000001C
:10398600000000000000414949494949494949495F
:10399600FF00000000000000000000000000000022
:1039A600000000000000F010101010FF10101010A2
:1039B600F000000000000000000000000000000011
:1039C6000000000000000F04040404FF04040404C3
:1039D6000F000000000000000000000000000000D2
:1039E60000000000100C05555555057F0555555529
:1039F60005140C000000000000000000000000009C
:103A060000000000000041494949494949494949DE
:103A1600FF000000000000000000000000000000A1
:103A26000000000020202020202020FF2020202031
:103A36002020200000000000000000000000000020
:103A46000000000080804020100C0300030C1020B2
:103A56004080800000000000000000000000000020
:103A660000000000100C05555555057F05555555A8
:103A760005140C000000000000000000000000001B
:103A8600000000000000414949494949494949495E
:103A9600FF00000000000000000000000000000021
:103AA600000000000040405FF55555555555F55F3F
:103AB6004040000000000000000000000000000080
:103AC60000000000090985452B51817D01112B4518
:103AD6008509090000000000000000000000000049
:103AE60000000000100C05555555057F0555555528
:103AF60005140C000000000000000000000000009B
:103B060000000000000041494949494949494949DD
:103B1600FF000000000000000000000000000000A0
:103B260000000000000000E0000000FF0000002090
:103B360040800000000000000000000000000000BF
:103B460000000000080403000040807F0000000021
:103B560000010E0000000000000000000000000050
:103B660000000000100C05555555057F05555555A7
:103B760005140C000000000000000000000000001A
:103B8600000000000000414949494949494949495D
:103B9600FF00000000000000000000000000000020
:103BA600000000000000F010101010FF10101010A0
:103BB600F00000000000000000000000000000000F
:103BC6000000000000000F04040404FF04040404C1
:103BD6000F000000000000000000000000000000D0
:103BE60000000000100C05555555057F0555555527
:103BF60005140C000000000000000000000000009A
:103C060000000000000041494949494949494949DC
:103C1600FF0000000000000000000000000000009F
:103C26000000000020202020202020FF202020202F
:103C3600202020000000000000000000000000001E
:103C46000000000080804020100C0300030C1020B0
:103C5600408080000000000000000000000000001E
:103C660000000000100C05555555057F05555555A6
:103C760005140C0000000000000000000000000019
:103C8600000000000000414949494949494949495C
:103C9600FF0000000000000000000000000000001F
:103CA600000000001060020CC00094A48494A2825C
:103CB600A31A000000000000000000000000000041
:103CC6000000000004047C030004040444847E0510
:103CD60004040400000000000000000000000000D2
:103CE60000000000004020100C00007F00000408C7
:103CF600106000000000000000000000000000004E
:103D060000000000404044444444447F444444444A
:103D160044404000000000000000000000000000D9
:103D260000000000101010FF10900042E2524AC638
:103D36004240C0000000000000000000000000003B
:103D4600000000000444827F0120108C43201847A5
:103D560080403F000000000000000000000000005E
:103D6600000000001060028C0080601800FF000058
:103D76008810600000000000000000000000000045
:103D86000000000004047E01008080404023100CE7
:103D9600030000000000000000000000000000001A
:103DA600000000001060028C0080601800FF000018
:103DB6008810600000000000000000000000000005
:103DC6000000000004047E01008080404023100CA7
:103DD60003000000000000000000000000000000DA
:103DE60000000000004020100C00007F00000408C6
:103DF600106000000000000000000000000000004D
:103E060000000000404044444444447F4444444449
:103E160044404000000000000000000000000000D8
:103E26000000000002E222223E00809E9292F29260
:103E3600929E8000000000000000000000000000CC
:103E460000000000004382423E40474444447F4411
:103E56004454E700000000000000000000000000DD
:103E660000000000004020100C00007F0000040845
:103E760010600000000000000000000000000000CC
:103E860000000000404044444444447F44444444C9
:103E96004440400000000000000000000000000058
:103EA6000000000000FE428262FE0000FEAAAAAAEE
:103EB600FE000000000000000000000000000000FE
:103EC60000000000807F0403041F2042534A424A38
:103ED60053426000000000000000000000000000E7
:103EE600000000000000FE021222C202C23202FEE0
:103EF60000000000000000000000000000000000BC
:103F06000000000080601F0020100C030C30000F22
:103F16003040F80000000000000000000000000033
:103F260000000000100C055555D5057F0555555563
:103F360005140C0000000000000000000000000056
:103F4600000000001010108AA96B352525ABE90882
:103F5600101010000000000000000000000000002B
:103F6600000000000000000000000000000000004B
:103F7600000000000000000000000000000000003B
:103F8600000000000000000000000000000000002B
:103F9600000000000000000000000000000000001B
:103FA600000000001060028C201808C838CF0808EE
:103FB600289800000000000000000000000000003B
:103FC6000000000004047E01040201FF4021060AED
:103FD600112040000000000000000000000000006A
:103FE60000000000100C055555D5057F05555555A3
:103FF60005140C0000000000000000000000000096
:10400600000000001010108AA96B352525ABE908C1
:10401600101010000000000000000000000000006A
:104026000000000002E222223E00809E9292F2925E
:10403600929E8000000000000000000000000000CA
:1040460000000000004382423E40474444447F440F
:104056004454E700000000000000000000000000DB
:1040660000000000100C055555D5057F0555555522
:1040760005140C0000000000000000000000000015
:10408600000000001010108AA96B352525ABE90841
:1040960010101000000000000000000000000000EA
:1040A60000000000C8B88FE8888880824222121A71
:1040B6002642800000000000000000000000000012
:1040C60000000000081808FF0404404242427E42F5
:1040D6004242400000000000000000000000000016
:1040E60000000000100C055555D5057F05555555A2
:1040F60005140C0000000000000000000000000095
:10410600000000001010108AA96B352525ABE908C0
:104116001010100000000000000000000000000069
:104126000000000020202020202020FF202020202A
:104136002020200000000000000000000000000019
:104146000000000080804020100C0300030C1020AB
:104156004080800000000000000000000000000019
:1041660000000000100C055555D5057F0555555521
:1041760005140C0000000000000000000000000014
:10418600000000001010108AA96B352525ABE90840
:1041960010101000000000000000000000000000E9
:1041A6000000000002E222223E00809E9292F292DD
:1041B600929E800000000000000000000000000049
:1041C60000000000004382423E40474444447F448E
:1041D6004454E7000000000000000000000000005A
:1041E60000000000100C055555D5057F05555555A1
:1041F60005140C0000000000000000000000000094
:10420600000000001010108AA96B352525ABE908BF
:104216001010100000000000000000000000000068
:1042260000000000080888FF4848000848FF080802
:10423600F800000000000000000000000000000080
:10424600000000008165080720C0080423C00300A1
:1042560023C40F0000000000000000000000000062
:104266000000000000000000000000000000000048
:104276000000000000000000000000000000000038
:104286000000000000000000000000000000000028
:104296000000000000000000000000000000000018
:1042A6000000000000020CC0004020100C23CC10BF
:1042B6002040400000000000000000000000000058
:1042C6000000000002027F00000001091121D10D4B
:1042D60003000000000000000000000000000000D5
:1042E60000000000000000000000000000000000C8
:1042F60000000000000000000000000000000000B8
:1043060000000000000000000000000000000000A7
:104316000000000000000000000000000000000097
:104326000000000080808888888888FF88888888C0
:1043360088808000000000000000000000000000EF
:104346000000000020201008040201FF01020408FA
:104356001020200000000000000000000000000007
:104366000000000020180F08F808080000FC0404EC
:1043760004FC000000000000000000000000000037
:10438600000000008141310D030D7101003F101046
:10439600103F0000000000000000000000000000C8
:0443A6000000000013
:10590A00E4FDFC7F8DFE127B137F14E4FDFCFE1286
:10591A007B13E4FDFC22F583E493F4FFE4F4FE7DBB
:10592A00017C00127B1309E92275F024900029E01A
:10593A00A429F582E435F0F583E58222900025E07A
:10594A00FFA3E0FD127992E4F922FA900023E07EA7
:10595A000029F9EE3AFA1248DFFF7D017C00127B3A
:10596A0013900024E004F0900023E004F0E0C394D4
:10597A001022F583E493FF7E0022E075F006900082
:10598A0026124A87E58229F582E4358322AC07127A
:10599A007CBD7F78120003027C04FDE4F0F9EB245D
:1059AA00E0F0EDD3947F22E0F5827583000248F897
:1059BA00900025E0FFA3E022900028E0FFA3E02268
:1059CA0090002CE075F0242290001FE0FFA3E02253
:1059DA00FF900025124A93E92FF9EA22E4F0A3E0A6
:1059EA002402F022EFF0A3EDF0A3124A9CE422FD78
:0959FA00127992E4900023F022DE
:097CBD00D297D296C296C297221A
:077CD800D297C296D296225A
:0B7BF900120003127C04AF0412000312
:057C0400D297C2972297
:10000300C297E4FEAD07ED5480B48004D29680021B
:0F001300C296EF25E0FFD297C2970EEEB408E534
:0100220022BB
:0B7C3400125997E4FF127BF9027CD884
:0B7C3F001259977F40127BF9027CD89D
:097B0A0024B0FFE433FEE4FDFCAD
:107B1300AB07AA06ED4C6003027C3FAF03127C3433
:017B2300223F
:10799200A907ED127B0AE954F0C4540F7E0044108B
:1079A200FFE4FDFC127B13E9540F2402FFE433FED3
:0679B200E4FDFC027B1362
:097CC60012590A7FAFFE027B1384
:1077F900E4F9E9127B0A7F021259157F10FE127B08
:1078090013E490001EF07D017C00E4FFFE127B135F
:1078190090001EE004F0E0C3948040EA09E9B4084E
:01782900D18D
:01782A00223B
:0A5F1B00900026EDF0900025EFF055
:105F25009000291259A440069000251259E69000C8
:105F350028E06410703D12594675F0101259362448
:105F45004EF582E583340212597C125929B408E9C9
:105F55001259BA0412594D900029E075F0101259E2
:105F65003A2456F582E583340212597C125929B434
:105F750008E522900028E0640C7013125946900041
:105F85002912598412597C125929B406F12290001C
:105F950028E06418704E125946125933243EF58292
:105FA500E583340812597C125929B40CEC1259BAFC
:105FB5000412594D125933244AF582E583340812E7
:105FC500597C125929B40CEC1259BA240212594DB4
:105FD5001259332456F582E583340812597C125937
:045FE50029B40CECE3
:015FE9002295
:0A5CA500900029EDF0900028EFF0C8
:105CAF0090002C1259A440069000281259E690003B
:105CBF002BE06410703E90002812594990002CE0A0
:105CCF0075F01012593A244EF582E58334021259B9
:105CDF0020B408E81259C20412594D90002CE075F7
:105CEF00F01012593A2456F582E5833402125920E6
:105CFF00B408E82290002BE0640C70139000281277
:105D0F00594990002C125984125920B406F422904C
:105D1F00002BE0641870519000281259491259CA8B
:105D2F0012593A243EF582E5833408125920B40CF7
:105D3F00EC1259C20412594D1259CA12593A244A37
:105D4F00F582E5833408125920B40CEC1259C224A1
:105D5F000212594D1259CA12593A2456F582E58347
:085D6F003408125920B40CECB9
:015D77002209
:0373EB0090001EF1
:1073EE001259EE900024F0900020124A939000243F
:1073FE001259B1FB602890001EE0FFA3E0FD900043
:10740E0023E0900028F0125F1B900023E0C313FFCF
:0E741E0090001EE02FF0900024E004F080C9E2
:01742C00223D
:03742D0090001EAE
:107430001259EE900024F0900020124A93900024FC
:107440001259B1FB602890001EE0FFA3E0FD900000
:1074500023E090002BF0125CA5900023E0C313FF03
:0E74600090001EE02FF0900024E004F080C9A0
:01746E0022FB
:08674B0090001FEFF0A3EDF038
:10675300E4900024F0EB14601214601714601C24FE
:106763000370267BFF7A10798A80167BFF7A1D7966
:106773002A800E7BFF7A1079AA80067BFF7A217923
:10678300AA900025124A9C800F1259D2FD90002B2B
:106793007410F07B3F025CA51259D21259F9900094
:1067A30022E075F040A41259DA35F012595440EE44
:1067B3001259D2041259F9900022E075F002A42470
:1067C30001FFE435F0FEEF7805C333CE33CED8F9BD
:0967D3001259DA3E12595440DE5D
:0167DC00229A
:0B705400900017EFF0A3EDF0A3EBF0AD
:10705F00E490001EF0F090001DE0FFA3E0FEC39F40
:10706F005037900017E0FFA3E0FD90001A124A93EB
:10707F008E821259B4900022F0900019E0FB126733
:10708F004B900017E02410F0E0D394704003125996
:09709F00E690001EE004F080BD43
:0170A80022C5
:0A686E00900000EFF0900002EBF044
:10687800E4900007F0A3F0900003E0FF54077008CD
:10688800EF131313541F800A900003E013131354DB
:106898001F0490000AF090000AEDF0900003E0FF5A
:1068A80090000AE0FDC39F504C900000E0FF127971
:1068B80092E0900009F0900002E0FF900009E0C328
:1068C8009F502A900004124A93900007E475F00143
:1068D800124A0C85F082F5831248F8FF7E007D018C
:1068E8007C00127B13900009E004F080C990000A34
:0568F800E004F080A6A1
:0168FD002278
:106A1600E4FDFC7FAE125918FF1259187F10125967
:106A2600187F401259187FB01259187F81125918D1
:106A36007FFF1259187FA11259187FA61259187F85
:106A4600A81259187F3F1259187FC81259187FD3B8
:106A5600125918FF1259187FD51259187F801259EA
:106A6600187FD81259187F051259187FD91259184C
:106A76007FF11259187FDA1259187F121259187FAE
:106A8600DB1259187F30FE127B1312590A7FAFFEB4
:036A9600027B136D
:1043AA00416C61726D004D75736963005765617484
:1043BA006865720043616C656E646172000000009A
:1043CA0000000000000000000000000000000000E3
:1043DA0000000000000000000000000000000000D3
:1043EA00000000000000000000008080C0E05030A3
:1043FA00301818188CEC0C0E02060606060606067D
:10440A0006060C060C0C1C189838306060C0C08078
:10441A000000000000000000000000000000000092
:10442A000000000000000000000000000000000082
:10443A000000000000000000000000000000000072
:10444A000000000000000000000000000000000062
:10445A000000000000000000000000000000000052
:10446A0000000080E070380C0E0703010000000015
:10447A00808040456E2D101018100808888818187A
:10448A0000181030106044C38D8000000000010342
:10449A0007060C3C70E0C0000000000000000000AD
:1044AA000000000000000000000000000000000002
:1044BA0000000000000000000000000000000000F2
:1044CA0000000000000000000000000000000000E2
:1044DA0000000000000000000000000000000000D2
:1044EA00E0FC1E070100022478068060300C0603F7
:1044FA00010000C0F0E0C0C080C0F0FC1F1F36FC05
:10450A00D0C0A0F0D0800000000103020C30F0C837
:10451A00302C06020600030F7CF880000000000021
:10452A000000000000000000000000000000000081
:10453A000000000000000000000000000000000071
:10454A000000000000000000000000000000000061
:10455A000000000000000000000000000000C0FF92
:10456A00AF0000000000000040FE0700183818D80D
:10457A007878761F1F78F95B3F1E1BF8F8BFF6E9BB
:10458A00EF3FFD79E1E77E7CE0E060E000000003B8
:10459A00FEA0000000000000000BFFF84000000031
:1045AA000000000000000000000000000000000001
:1045BA0000000000000000000000000000000000F1
:1045CA0000000000000000000000000000000000E1
:1045DA000000000000000000000000000000027F50
:1045EA00FA800030C018D000033EE0808898901806
:1045FA009818989810B81898089818989F8D1BBF03
:10460A00309039899899B09019999830B01098D00B
:10461A007D0300C03020200000D0FF1B02000000F4
:10462A000000000000000000000000000000000080
:10463A000000000000000000000000000000000070
:10464A000000000000000000000000000000000060
:10465A000000000000000000000000000000000050
:10466A00071F38F0C1021A52984060078D1931218C
:10467A00C38101010311B94381B309E921D989B978
:10468A00210119F90102010181C16131130D87204C
:10469A00502CA14B1282C078370F01000000000095
:1046AA000000000000000000000000000000000000
:1046BA0000000000000000000000000000000000F0
:1046CA0000000000000000000000000000000000E0
:1046DA0000000000000000000000000000000000D0
:1046EA0000000001030F0C383873C1CA82892628DA
:1046FA000859A162A28644884C88090808C8088813
:10470A000CC88C8446A6922148500C2A299186C549
:10471A00E170181C070701000000000000000000FB
:10472A00000000000000000000000000000000007F
:10473A00000000000000000000000000000000006F
:10474A00000000000000000000000000000000005F
:10475A00000000000000000000000000000000004F
:10476A00000000000000000000000001010307062D
:10477A000C0C0C1819383132323130203072227256
:10478A00123032311138081C0C0E060603030100E0
:10479A00000000000000000000000000000000000F
:1047AA0000000000000000000000000000000000FF
:0D47BA0000000000000000000000000000F2
:047531004100BE183F
:1079DB00900000E025E0FD9000287410F0227BFF62
:1079EB009000237410F022900000E0FAA3E0FBA3B8
:0279FB00E02288
:107B57009000BEE0FFB40C047418F022EFB41806CE
:077B67009000BE740CF02237
:105E4B00E4900000F01277F97A4379AA1279E9E429
:105E5B00FD7F181273EB7A4379B01279E97D027FDB
:105E6B00181273EB7BFF7A4379B61279EB7D047FC3
:105E7B00181273EB7BFF7A4379BE1279EB7D067FA9
:105E8B00181273EB1279DB7B3EFF125F1B126E87CE
:105E9B00EF6401701E1279DB7B20FF125F1B9000F9
:105EAB0000E070067403F0025E53900000E014F003
:105EBB00025E53126E87EF6402701E1279DB7B2039
:105ECB00FF125F1B900000E0B40305E4F0025E5389
:105EDB00900000E004F0025E53126E87BF030302D2
:105EEB0077F9126E87EF64046003025E5390000033
:105EFB00E014601014601324026003025E53125509
:105F0B0098025E53125FEA025E53126CEA025E5312
:106A990012778B900000EEF0A3EFF0127C8190004A
:106AA90002EFF0127C8B900003EFF01277F9127964
:106AB900F2900008F0900003E0900009F07D02E4F4
:106AC900FF1266B81279F2900008F0900003E09086
:106AD9000009F07D047F0C126B1C126E87BF011137
:106AE900900003E004F0E0D3941C40C2741CF080D1
:106AF900BD126E87BF0211900003E014F0E0C39449
:106B09000150AB7401F080A6126E87EF6403709E8A
:036B19000277F907
:037CF900025BD15A
:106585007F017E00127A98127CE5127B9B126A16B7
:10659500127CC61277F99000037408F07BFF7A43EA
:1065A50079C7A3124A9C7B80E4FDFF12686E7F19B0
:1065B5007E00127A981277F9127A1E12785C127997
:1065C500FD9000BEE0FB7D03E4FF125AF67D01E479
:1065D500FF126172E4FD7F2C12735E126E87EF2449
:1065E500FE600F14601114601324037012127B57A0
:1065F500800D126A998008125E4B8003127CF91295
:1066050078E9127AB67D06E4FF1275AF127940EF8C
:0B66150070AF7D067F0C12782B80A672
:0A7CB300100F100F000F0D0100016B
:107535005000660000000000000000000000000090
:0E75450000000048005E20240514175938028B
:105A0300EDC454F0FA7D0AE0FEA3E0FF7C000249F6
:105A13006BE0900060FF75F00A84C454F0FEEF75EC
:105A2300F00A84EE25F0F022FFC4540FF0EF540F78
:105A3300A3F022E0245AFFA3E0FD7B0190001A1299
:105A43004A9C90001D22EB75F00A84C454F0FFEBCE
:105A530075F00A84EF25F0A3F022AA057C037DE804
:105A6300E0FEA3E0FF02496B900006E0FEA3E0FF27
:105A7300A3E0FD22E075F00AA4FFA3E02FFF22A319
:105A8300E0FD1276A2A3E0FD22E0FEA3E0FF7C008E
:105A93007D6412496B7C007D0A02496B7D017BFFAB
:105AA3007E007F02024897E0FFA3E0FD7B019000A8
:105AB300237410F022E0FF75F00A84C454F0FEEF63
:105AC30075F00A84EE25F022127570A3EFF022EF31
:105AD300F0A3EDF0A322F0EF75F00A84A3E5F0F054
:105AE30022E0FFA3E0FD7B0122EFC454F02A9000E3
:035AF3005EF02240
:057CE500C2B6C2B4228A
:1076A200D2B6EF54FEFFE4FEEF30E004D2B5800222
:1076B200C2B5D2B4C2B4EFC313FF0EEEB408E9E40C
:1076C200FEED30E004D2B58002C2B5D2B4C2B4ED50
:0A76D200C313FD0EEEB408E9C2B6C2
:0176DC00228B
:10757000D2B6EF4401FFE4FDEF30E004D2B5800263
:10758000C2B5D2B4C2B4EFC313FF0DEDB408E9E441
:10759000FDEEC313FE30B5054480FE8004EE547F3B
:0E75A000FED2B4C2B40DEDB408E7C2B6AF0619
:0175AE0022BA
:1075ED00E4FD7F8E1276A27D807F801276A29000C0
:1075FD005FE0FD7F8C1276A27F88125A827F861201
:10760D005A857F84125A857F821276A27F80125A04
:0D761D00827F8A1276A27D807F8E0276A287
:1078BB007F8C12757090005FEFF07F88125ACB7F30
:1078CB0086125ACB7F84125ACB7F82125ACB7F807F
:0E78DB00127570EF547FA3F07F8A125ACB22F1
:085AF600900000125AD2EBF0FF
:105AFE00126C82900002E0640C702E127C95EFC343
:105B0E00940C90000C4004745080027441F0A37405
:105B1E004DF0EFD3940C400474F42FFFEF75F00AA0
:105B2E008490006E125AD9800890000C7420F0A355
:105B3E00F090006EE0FF70089000037420F0800873
:105B4E00127CEF900003EFF090006FE0FF127CEFFD
:105B5E00900004EFF0A3743AF0900070E0FF127C16
:105B6E00EF900006EFF0900071E0FF127CEF9000D6
:105B7E0007EFF0A3743AF0900072E0FF127CEF9002
:105B8E000009EFF0900073E0FF127CEF90000AEF37
:105B9E00F0E4A3F090000EF0900000E0FFA3E0040C
:105BAE00FD7B017A00790C125AB11273EB90000052
:105BBE00E02410125AE57A0079039000237418F04D
:035BCE000273EB74
:08617200900000EFF0A3EDF036
:10617A00780D7C007A7C79B3125A9F126C82900057
:10618A0066E0FF127CEF900002EFF0900067E0FFFC
:10619A00127CEF900003EFF0900068E0FF127CEFB2
:1061AA00900004EFF0900069E0FF127CEF90000588
:1061BA00EFF0A3742FF090006AE0FF127CEF9000DA
:1061CA0007EFF090006BE0FF127CEF900008EFF011
:1061DA00A3742FF090006CE0FF127CEF90000AEF9E
:1061EA00F090006DE0FF127CEF90000BEFF0E4A35B
:1061FA00F09000007A007902125AAA1273EB90000A
:10620A0074E0FF90000EB407057411F08002EFF0FD
:10621A009000007A00790D125A367402F002705416
:0B66B800900004125AD2EAF0A3EBF0AD
:1066C30078157C007A7C79B5125A9F900006E0FE1B
:1066D300A3E0FF7B017A00790A125D7890000E74C3
:1066E3002FF0900008E0FF7B017A00790F127718F2
:1066F300900011742FF0900009E0FF7B017A00797C
:1067030012127718E4900014F09000047A00790ACA
:10671300125AAA1273EB125A6BA3E0FB1267DDBF86
:1067230007089000167411F0800E125A6BA3E0FB59
:106733001267DD900016EFF09000047A00791512CD
:086743005A367402F002705492
:08698A0090000F125AD2EBF04D
:1069920078137C007D017BFF7A7C79B77E007F04CF
:1069A200124897900011E0FFD39401400790001322
:1069B200EFF08005E4900013F0900012E0FFD39412
:1069C2000A500B900015740DF0A3EFF08033EFC363
:1069D20094145007900015740A801A900012E0FF78
:1069E200B4140790001574028012EFC3941E900035
:1069F200155007740E125AD980077403F0A3740A53
:106A0200F090000F125AE47A007913125A3F74047C
:046A1200F0027054CA
:10782B00900000EFF0A3EDF012778BC006C00712AB
:10783B007C81C007127C8B900009EFF0900008D080
:10784B00E0F0900000E0FFA3E0FDD003D002026B5C
:01785B001C10
:0B6B1C00900004125AD2EAF0A3EBF044
:106B2700780C7C007D017BFF7A7C79BB125AA3909D
:106B37000006125A6EA3E0FB12719990000EEFF057
:106B4700900006125A6E7B017A00790A90001312A0
:106B57004A9C900009E0FB12714B900004E0242846
:106B6700FFA3E0FD90000AE0FBA3E0900012F01203
:106B7700698A90000EE090000CF004A3F0900004E6
:106B8700125AE47A00790C125A3F7402F00B027021
:016B970054A9
:106C82001278BB90005EE0900066125A2B90005F73
:106C9200E0900068125A2B900060E0FFC4540F90FD
:106CA200006A125A2F900061E0FFC4540F90006CEA
:106CB200125A2F900065E05407900074F090006221
:106CC200E0FFC4540F90006E125A2F900063E0FF51
:106CD200C4540F900070125A2F900064E0FFC45405
:086CE2000F900072125A2F22DC
:10796A00AB07AA06EB5403700AFC7D6412496BED5F
:10797A004C700FAE02AF037C017D9012496BED4C47
:08798A0070037F01227F00223F
:10778B00126C82900066E0FF7E007C037DE812495C
:10779B0059AC06AD07A3E075F064A42DFDEC35F0F4
:1077AB00FCA3E075F00AA42DFFE5F03CFEA3E07C02
:0777BB00002FFFEC3EFE224F
:0A7C8100126C8290006A125A7722FA
:0A7C8B00126C8290006C125A7722EE
:0A7C9500126C8290006E125A7722E2
:0A7C9F00126C82900070125A7722D6
:0A7CA900126C82900072125A7722CA
:097CCF00126C82900074E0FF22A7
:0A67DD00900031EEF0A3EFF0AA05E2
:1067E700EA64016004EAB4020E740C2AFA900031DC
:1067F70074FFF5F01249F6EA2401FFE433FE7C004A
:106807007D031249597D051249C0AC06AD07EA75EB
:10681700F002A47A002BFFEA35F0CF2DCF3CFE9093
:106827000031E0FCA3E0FD2FFBEC3EFAAE04ED786F
:1068370002CEC313CE13D8F92BFBEA3EFA900031F0
:106847007D64125A0AC3EB9FFBEA9EFA9000317CE3
:10685700017D90125A63EF2BFFEE3AFE7C007D0715
:0668670012496BED04FF75
:01686D002208
:106DBA0090001EEEF0A3EFF0A3EDF090001E125A21
:106DCA008C90001E125A5D125AEC90001E125A083C
:106DDA00125A9890001E125A03EA2D90005FF09002
:106DEA000020125A14125A49900022E090006212AE
:106DFA005A18900023125AB8900063F09000241297
:106E0A005AB8900064F090001E125A6E1267DD9014
:076E1A000065EFF00275EDC9
:1071E60090002EEEF0A3EFF0A3EDF01278BB900026
:1071F6002E125A8C90002E125A5D125AEC90002EC6
:10720600125A08125A9890002E125A03EA2D90002C
:107216005FF0900030125A14125A4990002E125AFA
:0C7226006E1267DD900065EFF00275ED60
:10788C00AC07AA051278BBEC75F00A84C454F0FF5F
:10789C00EC75F00A84EF25F0900062F0EA75F00ABE
:0F78AC0084C454F0FFEA125A53125A490275ED80
:107A7A00FD75F00A842430F0ED75F00A84E5F024EF
:0E7A8A0030A3F0A322EFF0127A5CA3EFF022FB
:037CFC00DFFE2286
:107A3E00D3EF9400EE940040147D7A7C00ED1D701F
:0D7A4E00011CED4C70F7EF1F70E61E80E389
:017A5B002208
:107B6E00D2827F02127CFCC2827F147E00127A3E89
:077B7E00D2827F1E027CFC95
:107A5C00E4FEFD3082FD7F08127CFCEE25E0FE305A
:0D7A6C0082010E2082FD0DEDB408E8AF068A
:017A790022EA
:10775200127B6E2082323082FD7F28127CFC127AEC
:107762005C900002127A8F127A5CAC07127A5CA3E8
:10777200127A8F7F19127CFCAF04EF124925900018
:0877820002E0900001124937FA
:01778A0022DC
:10735E00900000EFF0A3EDF07B017A0079AE12778A
:10736E00529000AEE09000A6127A7A7443F0A374A5
:10737E0020F09000AFE09000AA127A7A7425F0E423
:10738E00A3F0900000E0FFA3E0FD7A0079A6900044
:07739E0023740CF00273EBF5
:106E870020B0127F147E00127B8520B04C90001E2C
:106E97007401F0804420B1127F147E00127B85209C
:106EA700B13790001E7402F0802F20B2127F147E3B
:106EB70000127B8520B22290001E7403F0801A20F6
:106EC700B3127F147E00127B8520B30D90001E74D1
:0E6ED70004F08005E490001EF090001EE0FF25
:016EE500228A
:107BD7004D757369633100566F6C756D653A20207A
:017BE700009D
:047553004100BF0F25
:107AD4009000BFE0FF75F0051248BD2430900012FD
:0B7AE400F0227D017BFF7E000248972E
:056EE600900030EFF008
:106EEB00C2AFD2B77FE87E03127C4AC2B77F987ECF
:106EFB0008127C4AE4900031F0D2B7900030E030B9
:106F0B00E00F7FF47E01127C4AC2B77FD27E0080F5
:106F1B000D7FD27E00127C4AC2B77FF47E01127CB9
:106F2B004A900030E0C313F0A3E004F0E0C39408F0
:066F3B0040C7D2B7D2AF3F
:016F4100222D
:0574B100900014EFF053
:1074B600C3940A4023E0FF75F00A84A3F0EF75F049
:1074C6000A84A3E5F0F07F0A126EE6900015E0FF4D
:1074D600126EE690001680087F0A126EE69000147F
:0A74E600E0FF126EE67F0B126EE667
:0174F0002279
:057CEA007F13026EE6AD
:107B2400EF7F0A6007126EE67F018005126EE67F22
:0A7B340002126EE67F0E126EE622CA
