:0300000002336860
:0C336800787FE4F6D8FD7581070233AFD2
:100003000000000000000000002F000000000700B7
:10001300070000147F147F1400242A7F2A12006231
:1000230064081323003649552250000005030000DD
:1000330000001C224100000041221C000014083E65
:1000430008140008083E0808000000A0600000082B
:10005300080808080000606000000020100804027F
:10006300003E5149453E0000427F4000004261513D
:100073004946002141454B31001814127F100027D7
:1000830045454539003C4A4949300001710905039A
:1000930000364949493600064949291E00003636CB
:1000A300000000005636000000081422410000142E
:1000B300141414140000412214080002015109060B
:1000C30000324959513E007C1211127C007F49498C
:1000D3004936003E41414122007F4141221C007FBD
:1000E30049494941007F09090901003E4149497ACB
:1000F300007F0808087F0000417F41000020404145
:100103003F01007F08142241007F40404040007FB0
:10011300020C027F007F0408107F003E4141413EF4
:10012300007F09090906003E4151215E007F09193C
:1001330029460046494949310001017F0101003F39
:100143004040403F001F2040201F003F4038403FB9
:10015300006314081463000708700807006151491D
:10016300454300007F41410000552A552A550000B0
:1001730041417F000004020102040040404040402E
:10018300000001020400002054545478007F4844C6
:10019300443800384444442000384444487F0038FD
:1001A3005454541800087E0901020018A4A4A47C26
:1001B300007F080404780000447D400000408084F0
:1001C3007D00007F102844000000417F4000007C38
:1001D30004180478007C0804047800384444443844
:1001E30000FC242424180018242418FC007C080490
:1001F300040800485454542000043F444020003C69
:100203004040207C001C2040201C003C4030403CEF
:10021300004428102844001CA0A0A07C004464547F
:100223004C441414141414140000000000000000C3
:100233000000000000000000000000F800000000C3
:10024300000000333000000000100C06100C060004
:10025300000000000000000040C07840C07840006B
:10026300043F04043F040400007088FC08300000CD
:10027300001820FF211E0000F008F000E018000025
:1002830000211C031E211E0000F0088870000000DE
:100293001E2123241927211010160E000000000030
:1002A3000000000000000000000000E0180402004D
:1002B300000000071820400000020418E0000000BE
:1002C3000040201807000000404080F080404000BC
:1002D3000202010F01020200000000F00000000012
:1002E3000101011F010101000000000000000000E6
:1002F30080B070000000000000000000000000005B
:1003030000010101010101010000000000000000E3
:10031300003030000000000000000000806018047E
:10032300006018060100000000E010080810E0005B
:10033300000F102020100F00001010F80000000024
:100343000020203F2020000000700808088870006B
:1003530000302824222130000030088888483000EB
:100363000018202020110E000000C02010F800000B
:1003730000070424243F240000F8088888080800A4
:100383000019212020110E0000E0108888180000B9
:10039300000F112020110E0000380808C83808008B
:1003A3000000003F0000000000708808088870000B
:1003B300001C222121221C0000E010080810E0008C
:1003C3000000312222110F00000000C0C000000015
:1003D300000000303000000000000080000000003A
:1003E3000000806000000000000080402010080032
:1003F30000010204081020004040404040404000FB
:1004030004040404040404000008102040800000D5
:100413000020100804020100007048080808F000DA
:100423000000003036010000C030C828E810E000AA
:100433000718272423140B000000C038E000000035
:10044300203C23020227382008F88888887000009F
:10045300203F202020110E00C03008080808380073
:10046300071820202010080008F808080810E000EA
:10047300203F202020100F0008F88888E80810008B
:10048300203F20202320180008F88888E80810005F
:10049300203F200003000000C03008080838000097
:1004A30007182020221E020008F808000008F80898
:1004B300203F210101213F20000808F8080800001F
:1004C3000020203F2020000000000808F808080052
:1004D300C08080807F00000008F888C028180800CA
:1004E300203F20012638200008F808000000000003
:1004F300203F20202020300008F8F800F8F80800FA
:10050300203F003F003F200008F830C00008F808F3
:10051300203F200007183F00E01008080810E00003
:100523000F10202020100F0008F808080808F0001A
:10053300203F210101010000E01008080810E0003D
:100543000F18242438504F0008F8888888887000D2
:10055300203F2000030C3020007088080808380072
:100563000038202121221C00180808F80808180068
:100573000000203F2000000008F808000008F808E9
:10058300001F202020201F000878880000C838089A
:10059300000007380E010000F80800F80008F80012
:1005A300033C0700073C03000818688080681808AC
:1005B30020302C03032C30200838C800C83808002A
:1005C3000000203F2000000010080808C838080079
:1005D3002038262120201800000000FE020202001D
:1005E3000000007F40404000000C30C000000000CD
:1005F300000000010638C00000020202FE000000F5
:10060300004040407F00000000000402020204009A
:1006130000000000000000000000000000000000D7
:1006230080808080808080800002020400000000BF
:1006330000000000000000000000808080800000B7
:100643000019242222223F2008F8008080000000A5
:10065300003F112020110E00000000808080000068
:10066300000E112020201100000000808088F80077
:10067300000E112020103F200000808080800000A9
:10068300001F222222221300008080F0888888180D
:100693000020203F20200000000080808080800018
:1006A300006B94949493600008F8008080800000AD
:1006B300203F210000203F20008098980000000088
:1006C3000020203F202000000000008098980000B8
:1006D30000C08080807F000008F8000080808000D8
:1006E300203F24022D302000000808F800000000FD
:1006F3000020203F202000008080808080808000B8
:10070300203F20003F20003F808000808080000049
:10071300203F210000203F200000808080800000D7
:10072300001F202020201F00808000808000000008
:1007330080FFA12020110E00000000808080800037
:10074300000E112020A0FF80808080008080800028
:1007530020203F2120000100000080808080800055
:100763000033242424241900008080E080800000CA
:100773000000001F20200000808000000080800017
:10078300001F202020103F20808080000080808078
:1007930000010E3008060100808000800080808008
:1007A3000F300C030C300F0000808000808080002D
:1007B3000020312E0E312000808080000080808058
:1007C30080818E7018060100008080808080800008
:1007D3000021302C2221300000000000807C020226
:1007E30000000000003F404000000000FF00000048
:1007F30000000000FF0000000002027C80000000F7
:100803000040403F00000000000601010202040412
:100813000000000000000000000080C0E060606095
:1008230060E0C080007FFFC1800000000080C1FF46
:1008330000000001030303030303010000008080A1
:10084300C0C060E0E000000000000000000000FF06
:10085300FF00000000000000000000030300000090
:100863000000C04060606060E0C080000080C06045
:10087300203010180C0703000003030303030303D2
:10088300030303000000C06060606060E0C080009C
:10089300000080800C0C0C0C0E9FFBF0000001018B
:1008A30003030303030101000000000000000080B4
:1008B300C0E0E000000060786C66636160FFFF6089
:1008C300000000000000000000030300000000E03F
:1008D300E06060606060600000008E8F07060606BF
:1008E300068EFCF80000010103030303030101006A
:1008F300000080C0C060606060606040007EFFC92F
:100903008C06060606068EFC0000000103030303A3
:1009130003030101006060606060606060E0E0E02C
:10092300000000000080E0781E07010000000000C6
:100933000303010000000000000080C060606060ED
:1009430060C0800000F0F39F0E0C0C0C0E9FF3F0C0
:100953000000010103030303030101000080C0C081
:100963006060606060C08000000F1F38303030303E
:1009730090CDFF3F000101030303030301010000C6
:10098300000000000000000000000000000303005E
:10099300000000000000000000030300000000004E
:1009A3000000000000000000000000000000000044
:1009B3000000000000000000000000000000000034
:1009C3000000000000000000000000000000000024
:1009D3000000000000000000000000000000000014
:1009E3000000000000000000000000000000000004
:1009F30000000000000000000000000000000000F4
:100A030000000000000000000000000000000000E3
:100A130000000000000000000000000000000000D3
:100A230000000000000000000000000000000000C3
:100A330000000000000000000000000000000000B3
:100A430000000000000000E0000000FF00000020A4
:100A530040800000000000000000000000000000D3
:100A630000000000080403000040807F0000000035
:100A730000010E0000000000000000000000000064
:100A830000000000100C445454FC555654FC5454BC
:100A930044140C00000000000000000000000000EF
:100AA30000000000111109050321254549910305A3
:100AB3000911110000000000000000000000000008
:100AC3000000000020202020202020FF20202020C4
:100AD30020202000000000000000000000000000B3
:100AE3000000000080804020100C0300030C102045
:100AF30040808000000000000000000000000000B3
:100B030000000000100C445454FC555654FC54543B
:100B130044140C000000000000000000000000006E
:100B23000000000011110905032125454991030522
:100B33000911110000000000000000000000000087
:100B4300000000000010109010101116101010D0AB
:100B53001010000000000000000000000000000072
:100B63000000000040404040435C4040504C434044
:100B730040404000000000000000000000000000B2
:100B83000000000040445454D454745F5454D4546B
:100B9300544440000000000000000000000000007A
:100BA3000000000004040201FE9292929292FE0160
:100BB3000204040000000000000000000000000028
:100BC3000000000002E22222222222FE222222220E
:100BD30022E202000000000000000000000000000C
:100BE3000000000000FF00000912007F000912400E
:100BF300807F0000000000000000000000000000F3
:100C03000000000000202020A06000FF6080402042
:100C130018000000000000000000000000000000B9
:100C230000000000201008060140807F000102043C
:100C33000810100000000000000000000000000089
:100C43000000000000E000FF102004E42425262417
:100C530024E4040000000000000000000000000085
:100C630000000000010000FF0020100D41817F0102
:100C73000509300000000000000000000000000033
:100C83000000000024A424FF140084543F44047C87
:100C930080E00000000000000000000000000000F1
:100CA300000000000040C15E5253527F5252525E18
:100CB30060C1000000000000000000000000000010
:100CC3000000000040445454D454745F5454D4542A
:100CD3005444400000000000000000000000000039
:100CE3000000000004040201FE9292929292FE011F
:100CF30002040400000000000000000000000000E7
:100D030000000000804020908886808080838C10C3
:100D130020408000000000000000000000000000F0
:100D230000000000008040201807004080403F0082
:100D330000000000000000000000000000000000B0
:100D4300000000001060028C00445454547F54543B
:100D530054444000000000000000000000000000B8
:100D63000000000004047E010000FF1515155595D1
:100D73007F000000000000000000000000000000F1
:100D83000000000000FC444444FC0000FE22222238
:100D930022FE000000000000000000000000000030
:100DA30000000000000F0404048F40300F020242D1
:100DB300827F00000000000000000000000000002F
:100DC30000000000001088844320100C1020418292
:100DD3008408000000000000000000000000000084
:100DE30000000000010100FE42424242424242FE34
:100DF30000010100000000000000000000000000EE
:100E03000000000002E22222222222FE22222222CB
:100E130022E20200000000000000000000000000C9
:100E23000000000000FF00000912007F00091240CB
:100E3300807F0000000000000000000000000000B0
:100E4300000000000010109010101116101010D0A8
:100E5300101000000000000000000000000000006F
:100E63000000000040404040435C4040504C434041
:100E730040404000000000000000000000000000AF
:100E830000000000000101FD55555755555555FD0E
:100E9300010100000000000000000000000000004D
:100EA30000000000809088454F55252525554D4568
:100EB30080808000000000000000000000000000AF
:100EC30000000000000000E0000000FF0000002020
:100ED300408000000000000000000000000000004F
:100EE30000000000080403000040807F00000000B1
:100EF30000010E00000000000000000000000000E0
:100F0300000000001060028C0024242FE42424E459
:100F13002F24240000000000000000000000000057
:100F23000000000004047E0100FF110907190907EE
:100F330049917F0000000000000000000000000055
:100F430000000000848484849F84A4C484849F84D8
:100F53008484840000000000000000000000000002
:100F630000000000000000007F404040404040403F
:100F730040400000000000000000000000000000EE
:100F8300000000002424A4FE232200F01010FF1010
:100F930010F000000000000000000000000000004E
:100FA30000000000080601FF010600070202FF021D
:100FB3000207000000000000000000000000000025
:100FC30000000000000101FD55555755555555FDCD
:100FD300010100000000000000000000000000000C
:100FE30000000000809088454F55252525554D4527
:100FF300808080000000000000000000000000006E
:101003000000000000024262524A464242425262DB
:10101300C202000000000000000000000000000009
:1010230000000000404044444444447F444444445A
:1010330044404000000000000000000000000000E9
:1010430000000000000000E0000000FF000000209E
:1010530040800000000000000000000000000000CD
:1010630000000000080403000040807F000000002F
:1010730000010E000000000000000000000000005E
:10108300000000000000005F5555F5555555955F6C
:10109300000000000000000000000000000000004D
:1010A3000000000011110909FD555757555555FD0D
:1010B300010101000000000000000000000000002A
:1010C3000000000020202020202020FF20202020BE
:1010D30020202000000000000000000000000000AD
:1010E3000000000080804020100C0300030C10203F
:1010F30040808000000000000000000000000000AD
:10110300000000000000005F5555F5555555955FEB
:1011130000000000000000000000000000000000CC
:101123000000000011110909FD555757555555FD8C
:1011330001010100000000000000000000000000A9
:10114300000000000010109010101116101010D0A5
:10115300101000000000000000000000000000006C
:101163000000000040404040435C4040504C43403E
:1011730040404000000000000000000000000000AC
:10118300000000002424A4FE2322807000FF0080BE
:1011930040300000000000000000000000000000DC
:1011A30000000000080601FF018640300E0106180A
:1011B300204080000000000000000000000000004C
:1011C300000000000080609F0808F80000FF102066
:1011D300408000000000000000000000000000004C
:1011E30000000000814020130C132020405F40408A
:1011F300404140000000000000000000000000002B
:10120300000000000000005F5555F5555555955FEA
:1012130000000000000000000000000000000000CB
:101223000000000011110909FD555757555555FD8B
:1012330001010100000000000000000000000000A8
:10124300000000000000F808080C0A090808080854
:10125300F800000000000000000000000000000093
:10126300000000000000FF41414141414141414133
:10127300FF0000000000000000000000000000006C
:1012830000000000100C05555555057F05D5555533
:1012930005140C0000000000000000000000000026
:1012A3000000000080F7857D5557000AE9ABA5A52E
:1012B300EB08080000000000000000000000000030
:1012C300000000002424A4FE2322807000FF00807D
:1012D300403000000000000000000000000000009B
:1012E30000000000080601FF018640300E010618C9
:1012F300204080000000000000000000000000000B
:1013030000000000804020908886808080838C10BD
:1013130020408000000000000000000000000000EA
:1013230000000000008040201807004080403F007C
:1013330000000000000000000000000000000000AA
:1013430000000000100C445454FC555654FC5454F3
:1013530044140C0000000000000000000000000026
:1013630000000000111109050321254549910305DA
:10137300091111000000000000000000000000003F
:1013830000000000100C05555555057F05D5555532
:1013930005140C0000000000000000000000000025
:1013A3000000000080F7857D5557000AE9ABA5A52D
:1013B300EB0808000000000000000000000000002F
:1013C30000000000100C05555555057F0555555572
:1013D30005140C00000000000000000000000000E5
:1013E3000000000020120A06FF0A1200FF5555559F
:1013F30055FF000000000000000000000000000096
:101403000000000000FE0222DA8690485724A4540C
:101413004C84800000000000000000000000000079
:101423000000000000FF0810080718121212FF1234
:101433001212100000000000000000000000000075
:10144300000000000010109010101116101010D0A2
:101453001010000000000000000000000000000069
:101463000000000040404040435C4040504C43403B
:1014730040404000000000000000000000000000A9
:10148300000000000020100894A7444444A4940CD6
:101493000000000000000000000000000000000049
:1014A30000000000020201012024244448881001A6
:1014B3000102020000000000000000000000000024
:1014C30000000000000000E0000000FF000000201A
:1014D3004080000000000000000000000000000049
:1014E30000000000080403000040807F00000000AB
:1014F30000010E00000000000000000000000000DA
:1015030000000000100C05555555057F0555555530
:1015130005140C00000000000000000000000000A3
:1015230000000000000041494949494949494949E6
:10153300FF000000000000000000000000000000A9
:101543000000000020202020202020FF2020202039
:101553002020200000000000000000000000000028
:101563000000000080804020100C0300030C1020BA
:101573004080800000000000000000000000000028
:1015830000000000100C05555555057F05555555B0
:1015930005140C0000000000000000000000000023
:1015A3000000000000004149494949494949494966
:1015B300FF00000000000000000000000000000029
:1015C300000000000020100894A7444444A4940C95
:1015D3000000000000000000000000000000000008
:1015E3000000000002020101202424444888100165
:1015F30001020200000000000000000000000000E3
:101603000000000000024262524A464242425262D5
:10161300C202000000000000000000000000000003
:1016230000000000404044444444447F4444444454
:1016330044404000000000000000000000000000E3
:1016430000000000000202C2020202FE82828282C5
:101653008202000000000000000000000000000003
:10166300000000004040407F4040407F40404040F9
:1016730040404000000000000000000000000000A7
:101683000000000080808080808080808080808057
:1016930080808000000000000000000000000000C7
:1016A3000000000000000000000000000000000037
:1016B3000000000000000000000000000000000027
:1016C30000000000000008080808080808080808C7
:1016D30008000000000000000000000000000000FF
:1016E3000000000010101010101010101010101037
:1016F30010101000000000000000000000000000B7
:1017030000000000000484848484848484848484AA
:10171300840400000000000000000000000000003E
:101723000000000020202020202020202020202036
:101733002020200000000000000000000000000046
:101743000000000000FC040404FC040404FC040482
:1017530004FC000000000000000000000000000086
:1017630000000000007F28242320202020212222A3
:10177300227F0000000000000000000000000000C5
:10178300000000000002424242C27E42424242C284
:101793000202000000000000000000000000000042
:1017A3000000000040404040784740404040407FB8
:1017B3004040400000000000000000000000000066
:1017C3000000000020202020202021222C20202087
:1017D30020202000000000000000000000000000A6
:1017E30000000000004020100C0300000001020470
:1017F300186000000000000000000000000000006E
:1018030000000000808080808040FF404040202016
:101813002020000000000000000000000000000085
:10182300000000000000000000003F404040404036
:1018330040780000000000000000000000000000ED
:10184300000000000000000000FC0000007E80009B
:101853000000000000000000000000000000000085
:101863000000000000806018070000000000030C67
:101873003040800000000000000000000000000075
:10188300000000000010101010FF10101010F000E6
:101893000000000000000000000000000000000045
:1018A30000000000804020180700000000003F40B7
:1018B300404078000000000000000000000000002D
:1018C3000000000040404040404040FF4040404056
:1018D3004040400000000000000000000000000045
:1018E3000000000000000000000000FF00000000F6
:1018F30000000000000000000000000000000000E5
:10190300000000000020100894A7444444A4940C51
:1019130000000000000000000000000000000000C4
:101923000000000002020101202424444888100121
:10193300010202000000000000000000000000009F
:101943000000000000FE2222FE4048487F4848482D
:101953007F48480000000000000000000000000075
:1019630000000000807F0282FF0000FF49494949CF
:1019730049FF00000000000000000000000000001C
:1019830000000000080889EA1888000404FC040425
:1019930004FC000000000000000000000000000044
:1019A30000000000020100FF01864020180740806C
:1019B300403F0000000000000000000000000000A5
:1019C3000000000020202020FF202020202020FFD6
:1019D30020202000000000000000000000000000A4
:1019E3000000000000000000FF404040404040FF76
:1019F30000000000000000000000000000000000E4
:101A030000000000000000FE2222222222222222C5
:101A1300FE000000000000000000000000000000C5
:101A2300000000008040300F0202020202024282E4
:101A33007F00000000000000000000000000000024
:101A4300000000000000FE82929292FE9292928227
:101A5300FE00000000000000000000000000000085
:101A63000000000080601F00001E1212121E408042
:101A73007F000000000000000000000000000000E4
:041A8300000000005F
:102A6600E924B0FFE433FEE4FDFC1240F07F02E40B
:102A7600FDFCFE1240F0E4FDFC221225E37D0A90E7
:102A8600001FE0FEA3E0FF7C0002261790002AE06C
:102A960075F010A429F582E435F0F583E5822290DD
:102AA6000026E0FFA3E0FD123ED6E4F92212273FFE
:102AB60074301225D190002102273FE4F0A3E024D0
:102AC60002F022E075F006900003122733E5822912
:102AD600F582E4358322FA90001BE07E0029F9EEA8
:102AE6003AFA12258BFF2290001CE004F090001B9E
:102AF600E004F0E0C3941022F583E493F4FFE4F4D9
:102B0600FE22AC0712426E7F78123FF40241BAEF02
:102B1600F0A3EDF0A322E0F5827583000225A47FE1
:102B260010FE1240F0E422E004F0E0C3948022A4F8
:102B3600FF900062E02FFFA3E0FD22900017E0FF68
:102B4600A3E022FF90001D12273FE92FF9EA221287
:102B560026177C007D0A022617EFF0A3EDF0E4228B
:0A2B6600FD123ED6E490001BF022A1
:09426E00D280D281C281C28022FB
:07429100D280C281D281221C
:0B41AF00123FF41241BAAF04123FF4BB
:0541BA00D280C280224A
:103FF400C280E4FEAD07ED5480B48004D281800217
:0F400400C281EF25E0FFD280C2800EEEB408E546
:01401300228A
:0B41FA00122B08E4FF1241AF024291BB
:0B420500122B087F401241AF024291D3
:0B40E500F583E493FF7E007D017C006A
:1040F000AB07AA06ED4C6003024205AF031241FA7A
:01410000229C
:053FAC0090006BEFF036
:103FB100E4F9122A66122B2590006CF090006BE058
:0E3FC1001240E9A3122B2D40F309E9B408E4E5
:013FCF0022CF
:103ED600A907ED24B0FFE433FEE4FDFC1240F0E94F
:103EE60054F0C4540F7E004410FFE4FDFC1240F071
:0F3EF600E9540F2402FFE433FEE4FDFC0240F028
:1041BF007F8D122A757F14122A787FAFFE0240F08E
:10417900E4FDFC7F8D122A787F10122A787FAEFE2B
:034189000240F001
:103FD000E4F9122A66122B2590001FF07D017C0067
:103FE000E4FFFE1240F090001F122B2D40EE09E975
:033FF000B408DF33
:013FF30022AB
:103F8700E4F9122A66122B25900071F07D017C005E
:103F97007F017E001240F0900071122B2D40ED0939
:043FA700E9B408DE93
:013FAB0022F3
:0336A7009000266A
:1036AA00122B5F90002AF0F9900026E02402F0EB3A
:1036BA0024E090002AF0900026E0D3947F40031281
:1036CA002AC1900029E064107035122AA5122A92A4
:1036DA00242BF582E58334021240E509E9B408EDAA
:1036EA00900026E0FFA3E004122AAC122A922433A7
:1036FA00F582E58334021240E509E9B408ED229027
:10370A000029E0640C7011122AA590002A122AC915
:08371A001240E509E9B406F2D2
:013722002284
:0331B8009000265E
:1031BB00122B5F90002AF0F9900026E02402F0EB2E
:1031CB0024E090002AF0900026E0D3947F40031275
:1031DB002AC1900029E064107044900026122AA89E
:1031EB0090002A122A95242BF582E5833402122AA9
:1031FB00FE1240EC09E9B408E7900026E0FFA3E0DB
:10320B0004122AAC90002A122A952433F582E58306
:10321B003402122AFE1240EC09E9B408E7229000AE
:10322B0029E0640C7017900026122AA890002A122D
:0D323B002AC9122AFE1240EC09E9B406EF80
:013248002263
:07401400900072EFF0A90516
:10401B007F017E00AD0119ED600C900072E0FD7C1C
:06402B000012260580EEE4
:01403100226C
:0B311A00900062122B15EAF0A3EBF00E
:10312500E490006AF0900068F0900066E0FF90007F
:1031350068E0FEC39F507BC3EF9E14FD7F0A1240DB
:1031450014900064E0FCA3E0FDCFCDCFCECCCE1231
:103155002B55900069EDF0A3E0702E900066E01409
:10316500FF900068E0FEC39F501FA3E0701590001C
:1031750067E0FCC3138EF0122B35900029ECF07B31
:1031850020802390006A7401F0900067E0FEC3136D
:10319500FFA3E0FDEF8DF0122B35900069E02430A0
:1031A500FB900029EEF01236A7900068E004F002CB
:0231B500312EB9
:0131B70022F5
:093A2E0090001F122B151227480D
:103A3700E4900025F090001FE02402F0900021128E
:103A4700273F900025122B1CFB602B90001FE0FFE7
:103A5700A3E0FD900024E0900029F01236A7900023
:103A67001FE02408F0E0C394784003122AC19000B5
:063A770025E004F080C60A
:013A7D002226
:093A7E0090001F122B15122748BD
:103A8700E4900025F090001FE02402F0900021123E
:103A9700273F900025122B1CFB602B90001FE0FF97
:103AA700A3E0FD900024E0900029F01231B89000C7
:103AB7001FE02408F0E0C394784003122AC1900065
:063AC70025E004F080C6BA
:013ACD0022D6
:03324900900017DB
:10324C00122B5F90001CF0EB14600F14601424021E
:10325C00701E7BFF7A0979A7800E7BFF7A1679475F
:10326C0080067BFF7A0979C790001D122748800FD2
:10327C00122B41FD9000297410F07B3F0231B812E3
:10328C002B41122B6690001AE075F040A4122B49CA
:10329C0035F0122ADC1240EC122AED40E8122B41D8
:1032AC0004122B6690001AE075F002A42401FFE4CE
:1032BC0035F0FEEF7805C333CE33CED8F9122B4957
:0C32CC003E122ADC1240EC122AED40D821
:0132D80022D3
:08391A0090000F122B15EBF0D9
:10392200E4900016F090000FE02402F0E4900016FC
:10393200F0900015E0FFA3E0FEC39F503790000F08
:10394200E0FFA3E0FD90001212273F8E82122B1F90
:1039520090001AF0900011E0FB12324990000FE043
:103962002410F0E0C394704003122AC1900016E0C4
:0439720004F080BD20
:01397600222E
:0A359500900057EFF0900059EBF0A2
:10359F00E490005EF0A3F090005AE0FF540770082B
:1035AF00EF131313541F800A90005AE01313135490
:1035BF001F04900061F0900061EDF090005AE0FF61
:1035CF00900061E0FDC39F5045900057E0FF123E11
:1035DF00D6E0900060F0900059E0FF900060E0C3EB
:1035EF009F502390005B12273F90005EE475F0011F
:1035FF001226B885F082F5831225A41240E99000B7
:0E360F0060E004F080D0900061E004F080AD37
:01361D00228A
:10361E00E4FDFC7FAE122A78FF122A787F10122A60
:10362E00787F40122A787FB0122A787F81122A780A
:10363E007FFF122A787FA1122A787FA6122A787F1E
:10364E00A8122A787F3F122A787FC8122A787FD351
:10365E00122A78FF122A787FD5122A787F80122AB2
:10366E00787FD8122A787F05122A787FD9122A7885
:10367E007FF1122A787FDA122A787F12122A787F47
:10368E00DB122A787F30122A787F8D122A787F14E7
:09369E00122A787FAFFE0240F011
:10294A0090002112274890001FEEF0A3EFF0C394E5
:10295A000AEE9400501DA3122AB39000017430129B
:10296A0025E390000274301225E390001FA3E0FFD4
:10297A00022A07C3900020E0946490001FE09400AC
:10298A005020900021122AB39000017430122A803C
:10299A001242A8122ABB900002EF122A80AF050247
:1029AA002A07C3900020E094E890001FE0940350A7
:1029BA0015122ABB74301225D17D64122A85122A77
:1029CA001EAF05022A0790001FE0FEA3E0FFC39492
:1029DA0010EE942750347C037DE81226171242A881
:1029EA00122ABBEF1225D190001FE0FEA3E0FF7C64
:1029FA00007D64122B55AF05122A1EAF051242A89C
:102A0A00122ABB900003EF1225E3122ABB9000049E
:102A1A00E40225E31242A890002112273F90000108
:102A2A00EF1225E390001FE0FEA3E0FF7C007D0A81
:102A3A001226177C007D0A122617AF051242A890AB
:102A4A00002112273F900002EF1225E390001FE0B9
:0C2A5A00FEA3E0FF7C007D0A122617227C
:1038590090002012274890001FEFF0C3940A5010DF
:10386900A312273F74301225D190001FE0FF802159
:1038790090001FE0FFC394645021EF75F00A84FFA4
:103889001238B1EF1225D190001FE075F00A84AF0C
:10389900F01238B1900001EF1225E39000201227B1
:1038A9003F900002E40225E31242A890002012276B
:0238B9003F22AC
:1040C800416C61726D004D75736963005765617469
:0D40D8006865720053657474696E6773004B
:0C3E340045005100010203044100561833
:103F3300900000E025E0FD9000297410F0227BFF43
:103F43009000247410F022FD75F00A842430F0ED03
:0C3F530075F00A84E5F02430A3F0A322EE
:10413500900056E0FFB40C047418F022EFB4180692
:07414500900056740CF022FB
:102B7000E4900000F0123FD07A4079C8123F41E45F
:102B8000FD7F16123A2E7A4079CE123F417D027FA8
:102B900016123A2E7BFF7A4079D4123F437D047F90
:102BA00016123A2E7BFF7A4079DC123F437D067F76
:102BB00016123A2E123F337B3EFF1236A71238BB55
:102BC000EF64017017123F33122C3370067403F058
:102BD000022B78900000E014F0022B781238BBEF43
:102BE00064027017123F33122C33B40305E4F00271
:102BF0002B78900000E004F0022B781238BBBF0362
:102C000003023FD01238BBEF64046003022B7890BC
:102C10000000E014601124FE601324036003022B03
:102C200078122751022B78122DC2022B78122D0117
:032C3000022B78FC
:0B2C33007B20FF1236A7900000E0227B
:0142B00022EB
:0142B10022EA
:102FDB007F017E0012406E12429E12361E1241BFBE
:102FEB00123FD0123FD012411B900056E0FB7D02E6
:102FFB007F14122F2F7D04E4FF12307BE4FDFF12B0
:10300B003C01E4FD7F50123C477B017A00794F1263
:10301B003DFB90004FE0900043123F4A7443F0A3F6
:10302B007420F0900050E0900047123F4A7425F056
:10303B00E4A3F07B017A007943123F437D067F14B2
:10304B00123A2E1238BBEF24FE600F14601114607D
:10305B001324037012124135800D122B708008124D
:10306B0042B080031242B112408C1240AA022FF4DC
:08428900100F000F0D010001F0
:103E400050003300000000000000000000000000EF
:0E3E500000000048002B2024051417593802EA
:10350B007D0A90001FE0FEA3E0FF7C00022617E07F
:10351B00FF75F00A84C454F0FEEF75F00A84EE25B3
:10352B00F022FFC4540FF0EF540FA3F022E075F01C
:10353B000AA4FFA3E02FFF22A3E0FD123D85A3E029
:10354B00FD22E0FFA3E0FD7B0190001212274890C3
:10355B00001522FA90001FE0FEA3E0FF0226177D64
:10356B00017BFF7E007F02022543123CCDA3EFF0CF
:10357B0022E0FFA3E0FD7B019000247410F022F009
:0A358B00EF75F00A84A3E5F0F022CA
:05429E00C293C2912251
:103D8500D293EF54FEFFE4FEEF30E004D2928002BE
:103D9500C292D291C291EFC313FF0EEEB408E9E4CB
:103DA500FEED30E004D2928002C292D291C291ED32
:0A3DB500C313FD0EEEB408E9C2933B
:013DBF0022E1
:103CCD00D293EF4401FFE4FDEF30E004D292800285
:103CDD00C292D291C291EFC313FF0DEDB408E9E486
:103CED00FDEEC313FE3092054480FE8004EE547F3A
:0E3CFD00FED291C2910DEDB408E7C293AF065E
:013D0B002295
:103D0C00E4FD7F8E123D857D807F80123D85900085
:103D1C002CE0FD7F8C123D857F881235437F861207
:103D2C0035467F841235467F82123D857F80123561
:0D3D3C00437F8A123D857D807F8E023D858C
:103F05007F8C123CCD90002CEFF07F881235757FA9
:103F1500861235757F841235757F821235757F80DF
:0E3F2500123CCDEF547FA3F07F8A1235752237
:0B2F2F00900000EFF0A3EDF0A3EBF02A
:102F3A00123723900002E0640C702E124250EFC345
:102F4A00940C9000034004745080027441F0A374FE
:102F5A004DF0EFD3940C400474F42FFFEF75F00A90
:102F6A008490003B12358A80089000037420F0A3F5
:102F7A00F090003BE0FF70089000057420F0800795
:102F8A00EF2430900005F090003CE02430900006D9
:102F9A00F0A3743AF090003DE02430900008F090DD
:102FAA00003EE02430900009F0A3743AF090003F0C
:102FBA00E0243090000BF0900040E0243090000CA8
:102FCA00F0E4A3F09000007A00790312357C023A0B
:012FDA002EC8
:08307B00900000EFF0A3EDF05E
:10308300780D7C007A42798912356A1237239000D1
:1030930033E02430900002F0900034E024309000BC
:1030A30003F0900035E02430900004F0900036E007
:1030B3002430900005F0A3742FF0900037E0243003
:1030C300900007F0900038E02430900008F0A374DB
:1030D3002FF0900039E0243090000AF090003AE09D
:1030E300243090000BF0E4A3F09000007A00790202
:1030F30012357C123A2E900041E090000EF09000C1
:1031030000E0245AFFA3E0FD7B017A00790D12351C
:07311300547402F002391AA6
:0B33F400900004EFF0A3EDF0A3EBF05D
:1033FF0078087C007D017BFF7A42798B7E007F0409
:10340F00122543900006E0FFD39401400790000877
:10341F00EFF08005E4900008F0900007E0FFD394F0
:10342F000A500B90000A740DF0A3EFF08033EFC336
:10343F009414500790000A740A801A900007E0FF56
:10344F00B4140790000A74028012EFC3941E900008
:10345F000A5007740E12358A80077403F0A3740A9A
:10346F00F09000047A00790812354D7404F0023997
:01347F001A32
:083C0100900000EFF0A3EDF0CC
:103C0900123E6BC006C00712423CC007124246ABC7
:103C190007C0037B017A007902900008122748D077
:103C290003D005D007D006123ACE900000E0FFA3DA
:0E3C3900E0FDA3E0FBA3E0900007F00233F4EF
:083C4700900000EFF0A3EDF086
:103C4F0078027C007A42798F12356A123E6BC00679
:103C5F00C00712423CC007124246AB07D005D0073F
:103C6F00D006123B1C900002EFF004A3F09000006E
:0E3C7F007A00790212354D7402F00B02391AE8
:10372300123F0590002BE090003312352D90002CB2
:10373300E090003512352D90002DE0FFC4540F901A
:10374300003712353190002EE0FFC4540F9000393A
:10375300123531900032E05407900041F090002F71
:10376300E0FFC4540F90003B123531900030E0FF6E
:10377300C4540F90003D123531900031E0FFC45422
:083783000F90003F12353122C6
:103F5F00AB07AA06EB5403700AFC7D64122617ED1B
:103F6F004C700FAE02AF037C017D90122617ED4C03
:083F7F0070037F01227F002284
:103E6B00123723900033E0FF7E007C037DE812269F
:103E7B0005AC06AD07A3E075F064A42DFDEC35F0A1
:103E8B00FCA3E075F00AA42DFFE5F03CFEA3E07C5B
:073E9B00002FFFEC3EFE22A8
:0A423C0012372390003712353822A4
:0A4246001237239000391235382298
:0A42500012372390003B123538228C
:0A425A0012372390003D1235382280
:0A42640012372390003F1235382274
:09427700123723900041E0FF2200
:0A34800090001FEEF0A3EFF0AA0584
:10348A00EA64016004EAB4020E740C2AFA90001F7E
:10349A0074FFF5F01226A2EA2401FFE433FE7C0051
:1034AA007D031226057D0512266CAC06AD07EA756A
:1034BA00F002A47A002BFFEA35F0CF2DCF3CFE9024
:1034CA00001FE0FCA3E0FD2FFBEC3EFAAE04ED7812
:1034DA0002CEC313CE13D8F92BFBEA3E7C007D64DF
:1034EA0012355EC3EB9FFBEA9E7C017D9012355E2E
:1034FA00EF2BFFEE3AFE7C007D07122617ED04FF44
:01350A00229E
:1032D90090001FEEF0A3EFF0A3EDF07D6412350D21
:1032E9007C007D0A122617AA0590001FE0FEA3E0C4
:1032F900FF7C037DE8122617EFC454F02A90002BB7
:10330900F012350B7C007D0A122617EDC454F0FA31
:1033190012350BEA2D90002CF090002112351A90ED
:10332900002DF0EB75F00A84C454F0FFEB75F00A38
:1033390084EF25F0A3F090002312351A90002FF0A6
:1033490090002412351A900030F090002512351A99
:0F335900900031F0900026E0900032F0023D0C21
:09428000EFF0124050A3EFF02210
:0342AD00DFFE220F
:10403200D3EF9400EE940040147D7A7C00ED1D7065
:0D404200011CED4C70F7EF1F70E61E80E3CF
:01404F00224E
:10414C00D2A37F021242ADC2A37F147E0012403272
:07415C00D2A37F1E0242AD59
:10405000E4FEFD30A3FD7F081242ADEE25E0FE3008
:0D406000A3010E20A3FD0DEDB408E8AF068E
:01406D002230
:103DFB0012414C20A33230A3FD7F281242AD12405A
:103E0B0050900000124280124050AC07124050A359
:103E1B001242807F191242ADAF04EF1225D19000F0
:083E2B0000E09000011225E304
:013E3300226C
:1038BB0020B0127F147E0012416320B04C90001F89
:1038CB007401F0804420B1127F147E0012416320FA
:1038DB00B13790001F7402F0802F20B2127F147E3C
:1038EB000012416320B22290001F7403F0801A2053
:1038FB00B3127F147E0012416320B30D90001F742E
:0E390B0004F08005E490001FF090001FE0FF24
:01391900228B
:10419E004D757369633100566F6C756D653A2020ED
:0141AE000010
:043E5E004100730F9D
:10418C00900073E0FF75F005122569243090001142
:02419C00F0220F
:05397700900016EFF0C6
:10397C00C2AFD2907FE87E03124210C2907F987E35
:10398C0008124210E4900017F0D290900016E0302C
:10399C00E00F7FF47E01124210C2907FD27E008035
:1039AC000D7FD27E00124210C2907FF47E01124233
:1039BC0010900016E0C313F0A3E004F0E0C39408E9
:0639CC0040C7D290D2AF0B
:0139D20022D2
:053C8D00900013EFF0B0
:103C9200C3940A4023E0FF75F00A84A3F0EF75F0A5
:103CA2000A84A3E5F0F07F0A123977900014E0FF4E
:103CB20012397790001580087F0A12397790001325
:0A3CC200E0FF1239777F0B1239770B
:013CCC0022D5
:0542A3007F13023977D2
:10410100EF7F0A60071239777F0180051239777FC7
:0A411100021239777F0E123977226F
:06429800900073E0FF221C
:1039D300D3EF6480949E4008900073741EF08014AB
:1039E300C3EF648094805007E4900073F0800590E7
:1039F3000073EFF0900073E0FF75F00A12256990F1
:103A03000013F0EF75F00A122569AFF0900014EF80
:103A1300F07F0A123977900013E0FF123977900094
:0B3A230014E0FF1239777F0C023977A6
:102DC2009000017401F078027C00FD7BFF7A41796A
:102DD2009E7E007F0712254378097C007D017BFFE0
:102DE2007A4179A57E007F0A12254312418C123F57
:102DF200D0900073E0FF1239D37F01022E7C7B0159
:102E02007A0079029000247410F0E4FD7F20123AD7
:102E12002E7B017A0079099000247410F07D027FE4
:102E220014123A2E1238BBBF0108900073E0240539
:102E3200800C1238BBBF020F900073E024FBFF121C
:102E420039D312418C80B71238BBBF03061242A39A
:102E5200023FD01238BBEF640470A31242A3900069
:102E620001E004F0E0C3940A40037401F090000111
:102E7200E0FE2430900007F0AF06123C8D022E00D7
:10406E00D3EF9400EE940040147D657C18ED1D7026
:0D407E00011CED4C70F7EF1F70E61E80E393
:01408B002212
:10416300EF1FAA0670011E4A600BE4FDEDC3947AAB
:0541730050EE0D80F785
:014178002224
:0B421000EF1FAC0670011E4C70F62280
:0542A800EF2430FF22AD
:0C41ED007F147E147DF8DDFEDEFADFF6A4
:0141F90022A3
:103DC000456E61626C65640044697361626C650094
:103DD00053617665642100416C61726D20676F6983
:103DE0006E67206F666600416C61726D3100303025
:0B3DF000003030004D75736963200047
:103D49007D017BFF7E007F070225437BFF900024D6
:103D59007410F022900022E0D36480227D017BFF61
:103D69007E007F030225439000247410F0227B011A
:0C3D79007A007908227B017A00790B2285
:10411B0012425090004CEFF012425A90004BEFF0CD
:0A412B0090004D7401F0E4A3F022AF
:0B421B00D3EF6480948C40027F0122EE
:1037F30090001FEEF0A3EFF0900022EBF090002179
:10380300EDF06402702090001FE0FEA3E0FF123F82
:103813005FEF6009123D5D949D40358030123D5D40
:10382300949C402C8027900021E0FF6404600EEFFD
:1038330064066009EF64096004EFB40B09123D5D8F
:10384300949E400C8007123D5D949F40037401F0E9
:06385300900022E0FF22BC
:0B422600C3EF648094984002E4FF2284
:0B423100C3EF648094BC4002E4FF2255
:1027510078017C007A3D79E7123D4978087C007A5E
:102761003D79EE123D65780B7C007A3D79F1123DA1
:1027710065780E7C007A3D79F4123D49900015741C
:1027810001F0123FD078167C007D017B017A00793F
:102791004B7E007F0412254390004CE0FF123D77F1
:1027A10012385990004BE0FF123D7E123859022831
:1027B100CC7B017A007901123D56E4FD7F20123A6B
:1027C1002E900015E0123D77B4010C123D707D0290
:1027D1007F20123A7E800A123D567D027F20123AF6
:1027E1002E9000297410F07B3A7D027F321236A7B9
:1027F100900015E0123D7EB4020C123D707D027F07
:1028010038123A7E800A123D567D027F38123A2EE6
:10281100900015E07B017A00790EB4030C123D7033
:102821007D047F20123A7E800A123D567D047F206E
:10283100123A2E900015E06404701E90004EE07B69
:10284100FF60067A3D79C080047A3D79C8123D70F7
:102851007D067F20123A7E801C90004EE07BFF6057
:10286100067A3D79C080047A3D79C8123D567D06CD
:102871007F20123A2E1238BBEF6401706E90001562
:10288100E024FE601F1460321460502403600302D0
:1028910027B290004CE004F0E0FF124226EFF01264
:1028A1003D77801090004BE004F0E0FF124231EFE1
:1028B100F0123D7E1238590227B290004DE004F02B
:1028C100E0C36480948A40037401F090004DE0FFFE
:1028D1001242A8900013EFF00227B290004EE06080
:1028E10005E4F00227B290004E80151238BBBF02FA
:1028F10015900015E004F0E0D3940450030227B2D0
:102901007401F00227B21238BBBF0316123FD07810
:102911004B7C007D017B017A0079167E007F0402E9
:1029210025431238BBEF640460030227B2123FD083
:102931007A3D79D0123D547D027F20123A2E7FD00C
:082941007E07124163123FD032
:01294900226B
:10408C0090004EE0601712425090004CE0B5070DC6
:0E409C0012425A90004BE0B50703123EA222DA
:103EA200123FD07A3D79D7123D547D02E4FF123A97
:103EB2002E7F0112410190004DE0FF123C8D12381D
:103EC200BBEF60FAE490004EF01242A3E4FF12410D
:043ED20001023FD0DA
:10378B0053657420446174652654696D65005361FB
:10379B0076656421004E6F74696669636174696F45
:1037AB006E00456E61626C65640044697361626CA6
:1037BB006500446174652654696D650044697370D6
:1037CB006C61790041626F757400313937300030AC
:1037DB003100303100303000303000303000566F67
:0837EB006C756D653A202000A9
:103B69007A3779A07BFF9000247410F0227D017BC5
:103B7900FF7E007F03022543900001E025E0FD90D0
:103B890000297410F0229000247410F0229000167D
:103B9900E0FEA3E0FFA3E0FDA3E0FB227D017BFFA4
:0C3BA9007E000225437B017A0079022295
:101DDB0078027C007A3779D57F05123BA578077C92
:101DEB00007A3779DA123B76780A7C007A3779DD1C
:101DFB00123B76780D7C007D017BFF7A3779E01200
:101E0B003B7A78107C007D017BFF7A3779E3123BBC
:101E1B007A78137C007D017BFF7A3779E6123B7A67
:101E2B00123E6B900016EEF0A3EFF012423C9000C6
:101E3B0018EFF0124246900019EFF0124277900023
:101E4B001AEFF012425090001BEFF012425A900022
:101E5B001CEFF012426490001DEFF0A37401F0121E
:101E6B0020F8123BAE12294A900018E0FF12210411
:101E7B00900019E0FF12211C90001B7A00790D12C3
:101E8B00212690001C7A00791012212690001DE06B
:101E9B00FF7B017A0079131238597A37798B123B11
:101EAB006DE4FD7F08123A2E90001AE0FF1242A853
:101EBB00AB07123B887D027F681236A790001EE0AD
:101ECB00123BAEB4010B123B8F7D02FF123A7E80A8
:101EDB0009123B6F7D02FF123A2E123B887F3212A2
:101EEB0020EA7A007907B4020C123B8F7D027F380F
:101EFB00123A7E800A123B6F7D027F38123A2E1205
:101F0B003B887F4A1220EA7A00790AB4030C123B11
:101F1B008F7D027F50123A7E800A123B6F7D027FCB
:101F2B0050123A2E90001EE07B017A00790DB4041A
:101F3B000C123B8F7D047F20123A7E800A123B6F7E
:101F4B007D047F20123A2E123B887F3212210E7AAB
:101F5B00007910B4050C123B8F7D047F38123A7E4A
:101F6B00800A123B6F7D047F38123A2E123B887F1A
:101F7B004A12210E7A007913B4060C123B8F7D04A2
:101F8B007F50123A7E800A123B6F7D047F50123ACB
:101F9B002E1238BBEF6401600302207890001EE024
:101FAB0024FE6046146058146077147003022044BA
:101FBB0014700302205C24056003021EB39000160C
:101FCB00E475F0011226A2C3900017E09410900064
:101FDB0016E094274004E4F0A3F0900016E0FEA373
:101FEB00E0FF123BAE12294A801B900018E004F070
:101FFB00E0FF12421B900018EFF0122104800690B4
:10200B000019E004F0123B961237F3900019EFF031
:10201B0012211C123B9612348090001AEFF0021E14
:10202B00B390001BE004F0E0FF12422690001BEF80
:10203B00F07B017A00790D802E90001CE004F0E01B
:10204B00FF12423190001CEFF07B017A0079108077
:10205B001690001DE004F0E0FF12423190001DEFDE
:10206B00F07B017A007913123859021EB31238BB78
:10207B00BF021590001EE004F0E0D394065003025B
:10208B001EB37401F0021EB31238BBBF0302804BA8
:10209B001238BBEF64046003021EB31220F8123B2C
:1020AB009E90001BE0900023F090001CE090002419
:1020BB00F090001DE0900025F090001AE0900026B3
:1020CB00F01232D97BFF7A377999123B6F7D027F01
:0E20DB0020123A2E7FD07E07124163123FD0B2
:1020E900227B2F7D021236A790001EE07B0122126F
:1020F9003FD0900016E0FEA3E0FF227B017A007931
:1021090007123859227B3A7D041236A790001EE047
:102119007B01227B017A00790A12385922E0FF7B80
:052129000112385922EB
:102E820078027C007A3779E97F0A123BA5122F1E5D
:102E9200123FD0123B69E4FD7F10123A2E7B017A79
:102EA200007902123B6F7D027F14123A2E9000705D
:102EB200E07BFF60067A3779AD80047A3779B51204
:102EC2003B6F7D067F20123A2E1238BBBF010B12D8
:102ED20042A3124298EF2405800F1238BBBF02179B
:102EE2001242A3124298EF24FBFF1239D3122F1E73
:102EF2007F0A123C8D80A61238BBBF0303023FD06B
:102F02001238BBEF64047095900070E06005E4F045
:0C2F1200022E9F9000707401F0022E9FB0
:102F1E00124298EF75F005122569243090000AF0E0
:012F2E002280
:102D0100E4900001F0123FD07BFF7A3779BD123B8E
:102D11006FE4FD7F16123A2E123B697D027F161277
:102D21003A2E7BFF7A3779C7123B6F7D047F1612EB
:102D31003A2E7BFF7A3779CF123B6F7D067F1612D1
:102D41003A2E123B817B3EFF1236A71238BBEF644D
:102D5100017017123B81122DB770067403F0022D1A
:102D610009900001E014F0022D091238BBEF640252
:102D71007017123B81122DB7B40305E4F0022D093F
:102D8100900001E004F0022D091238BBBF030302D9
:102D91003FD01238BBEF64046003022D099000019B
:102DA100E014600C046003022D09121DDB022D09E1
:062DB100122E82022D0922
:0B2DB7007B20FF1236A7900001E022F5
:101A8700004D4AB8000D4A4C000DA5410025AAB6E5
:101A970000056A49007AADBD00025D5200092D4775
:101AA700005C95BA000A954E000B4A43004B553728
:101AB700000AD54A00955ABF0004BA53000A5B488A
:101AC70000652BBC00052B50000A934500474AB917
:101AD7000006AA4C000AD5410024DAB60004B64A2B
:101AE7000069573D000A4E51000D2646005E933AA5
:101AF700000D534D0005AA430036B53700096D4B5D
:101B070000B4AEBF0004AD53000A4D48006D25BCBC
:101B1700000D254F000D5244005DAA38000B5A4CAA
:101B270000056D410024ADB600049B4A007A4BBE08
:101B3700000A4B51000AA546005B52BA0006D24E76
:101B4700000ADA4200355B370009374B008497C13A
:101B57000004975300064B480066A53C000EA54FAE
:101B67000006B244004AB638000AAE4C00092E42BD
:101B7700003C9735000C9649007D4ABD000D4A513F
:101B8700000DA5450055AABA00056A4E000A6D4327
:101B970000452EB700052D4B008A95BF000A9553C7
:101BA700000B4A47006B553B000AD54F00055A45C5
:101BB700004A5D38000A5B4C00052B42003A93B699
:101BC70000069349007729BD0006AA51000AD546A9
:101BD7000054DABA0004B64E000A574300452738C6
:101BE700000D264A008E933E000D5252000DAA4763
:101BF7000066B53B00056D4F0004AE45004A4EB97F
:101C0700000A4D4C000D1541002D92B596B4A5B5AF
:101C1700A6A6878888788786A5B3A5A5A6A6888857
:101C270088788787A5B496A59696887878788787E1
:101C370095B496A5969788787869788796B4A5B568
:101C4700A6A6878888788786A5B3A5A5A6A6888827
:101C570088788787A5B496A5A69688887878878791
:101C670095B496A5969788787869788796B4A5B538
:101C7700A6A6878887788786A5B3A5B5A6A68888E8
:101C870088788787A5B496A5A69688887878878761
:101C970095B496A5969788787879788796B4A5B5F8
:101CA700A5A6878887788786A5B3A5B5A6A68788BA
:101CB70088788787A5B496A5A69688887878878731
:101CC70095B496A5969788787879778795B4A5B4CB
:101CD700A5A6878887788786A5C3A5B5A6A687887A
:101CE70088788787A5B4A6A5A696888878788787F1
:101CF700A5B496A5969688787879778795B4A5B48C
:101D0700A5A6978787788786A5C3A5B5A6A687883A
:101D170088788786A5B4A5A5A696888888788787B2
:101D2700A5B496A5969688787879778795B4A5B45B
:101D3700A5A6978787788796A5C3A5B5A6A68788FA
:101D470088788786A5B3A5A5A6A688888878878773
:101D5700A5B496A5969688787878878795B4A5B41C
:101D6700A5A6978787788796A5C3A5B5A6A68788CA
:101D770088788786A5B3A5A5A6A688888878878743
:101D8700A5B496A5969688787878878795B4A5B4EC
:101D9700A5A6978787788796A5C3A5B5A6A6888899
:101DA70088788786A5B3A5A5A6A688788878878723
:101DB700A5B496A5A6968888787887870000001F1F
:101DC700003B005A0078009700B500D400F30111DA
:041DD7000130014E88
:102C3E002443F58274FB3EF583122713E4FFFEED69
:102C4E0054F0FDE4FC78141226ECA804A905AA069B
:102C5E00AB0790000EE0FEA3E0FFEE3395E0FDFC27
:102C6E00C30226DBA3F090000CE0FEA3E078022264
:102C7E00F0A3F0900018A3E014F9E4FFFE7D08FC29
:102C8E00A8010226FF2443F58274FB3EF58322122F
:102C9E0026CEE4FBFAF9F8C30226DBFFE0FCA3C361
:102CAE00E0FD9FEE6480F8EC6480982274FFF5F0EE
:102CBE000226A2ED9FFFEC9EF0A3EFF02290006D96
:102CCE00E05403FEA3E054C0780622F974132FF5E6
:102CDE0082741C3EF583E4932290001AE0FEA3E07A
:102CEE00F4FFEEF422FF90000802273FE475F00196
:032CFE000226A209
:10212E0090000CEEF0A3EFF0A3ECF0A3EDF0A3EA19
:02213E00F0EBC4
:10214000122C72C333CE33CED8F9122C931227132C
:10215000EF5460FFE4FEFDFC78051226ECE47B0101
:10216000122CA2701D122C74C333CE33CED8F912A8
:102170002C93122713EF541FFFEF24FFFEE434FFCC
:10218000801A122C74C333CE33CED8F9122C93128A
:102190002713EF541FFFEF241EFEE433900012F0CC
:1021A000A3CEF090000EE0FAA3E0FB25E0FFEA33B7
:1021B000FE74C12FF582741D3EF583E493FE740115
:1021C00093FF900010E0FCA3E0FDEF2DFFEE3CCF6D
:1021D00024FFCF34FF900014F0A3EFF090000CE048
:1021E000FEA3E0FF7C007D0412266CED4C7011D341
:1021F000EB9402EA648094804006900014122CFA5A
:10220000900012E0FEA3E0A3122CA950030222F8D2
:10221000900012A3ED9FFFEC9EA3F0A3EFF09000BF
:102220000EE4F0A304F0900018E4F0A304F0E4A39B
:10223000122C7EC004C005C006C007122C74C33324
:10224000CE33CED8F9122C93122723D007D006D044
:1022500005D004122C9D90001670030222D0022299
:10226000D8900016E0FEA3E0900014122CA9407153
:10227000900014122CC1900018122CFA122C74C366
:1022800033CE33CED8F9122C3E7013122CE7FE90C9
:10229000001AF0A3EFF04E700C90000E8004900036
:1022A0000EE4122CFB122C81C004C005C006C0072E
:1022B000122C74C333CE33CED8F9122C93122723A9
:1022C000D007D006D005D004122C9D9000167008BF
:1022D000F0A3741DF0022261E4F0A3741EF0022248
:1022E00061900015E02401FE900014E0340090009D
:1022F00010F0A3CEF0022428900014E0FEA3E0FF2B
:10230000C3900013E09FF0900012E09EF090000C4C
:10231000122CBA90000EE4F0740C122C72C333CE5F
:1023200033CED8F9122C93122713E4FFFEED54F0AC
:10233000FDE4FC78141226EC122CA0900018700713
:10234000F0A3740CF08006E4F0A3740DF0E49000A8
:102350001A122C7EC004C005C006C007122C74C31C
:1023600033CE33CED8F9122C93122723D007D006C0
:10237000D005D004122C9D90001670030223F602A3
:1023800023FE900016E0FEA3E0FF900012E0FCA305
:10239000D3122CAE4071900012122CC19000181272
:1023A0002CBA90001AE07002A3E0700690000E12A2
:1023B0002CBA122C74C333CE33CED8F9122C3E7003
:1023C0000A122CE790001AF0A3EFF0122C81C0043F
:1023D000C005C006C007122C74C333CE33CED8F963
:1023E000122C93122723D007D006D005D004122C2C
:1023F0009D9000167008F0A3741DF0022382E4F093
:10240000A3741EF0022382900012E0FEA3E0FFC33B
:10241000900017E09FFF900016E09ECF2401CF347C
:1024200000900010F0A3EFF0900010E0FEA3E0FF9A
:1024300090006DEEF0FCA3EFF0FD90000EE0FEA327
:10244000E07806C333CE33CED8F9FFEC4EFEED4F25
:10245000FF90006DEEF0A3EF122C73C333CE33CE9A
:10246000D8F924D3F58274FC122C4470037F012226
:022470007F00EB
:012472002247
:103ACE00E490000BF0FCFA12212EEF6019122CCBB1
:103ADE00CEC313CE13D8F9122CF3EF1225D19000CA
:103AEE000B7401F08011122CCBCEC313CE13D8F968
:103AFE00122CF3EF1225D190006DA3E0543F122C3F
:0D3B0E00F3900001EF1225E390000BE0FFA3
:013B1B002287
:023B1C00AA05F8
:103B1E007C007D0C122605EA2FFFEC3ECF243FCF12
:103B2E0034A2FEEBC3940F5016C3740F9B122CD904
:103B3E00C4540FB50106EA25E01480187F0022EB6D
:103B4E00B40F037F0022EB24F1122CD9540FB501D0
:0A3B5E0007EA25E025E0FF227F00C2
:013B6800223A
:0F41DE00536D6F672044657465637465642100D9
:083E62004100700141006F00F6
:0F41CF0020B7091241ED20B7037F01227F0022A4
:103BB500123FD07BFF7A4179DE9000247410F07DAE
:103BC50002E4FF123A2E124298900000EFF07F1E99
:103BD5001239D37F011241017F13123C8D1238BB7C
:103BE500EF60FA1242A3E4FF124101900000E0FFEA
:0C3BF5001239D390006F7401F0023FD031
:1040AA00900070E060171241CFEF600990006FE056
:0E40BA00700B023BB590006FE06002E4F02254
:10337400022FDBE493A3F8E493A34003F68001F265
:1033840008DFF48029E493A3F85407240CC8C3335A
:10339400C4540F4420C8834004F456800146F6DF29
:1033A400E4800B0102040810204080903E34E47E47
:1033B400019360BCA3FF543F30E509541FFEE4931E
:1033C400A360010ECF54C025E060A840B8E493A3E5
:1033D400FAE493A3F8E493A3C8C582C8CAC583CA10
:1033E400F0A3C8C582C8CAC583CADFE9DEE780BEC8
:013E6A000057
:10247300E709F608DFFA8046E709F208DFFA803E4B
:1024830088828C83E709F0A3DFFA8032E309F60838
:10249300DFFA8078E309F208DFFA807088828C83A0
:1024A300E309F0A3DFFA806489828A83E0A3F60854
:1024B300DFFA805889828A83E0A3F208DFFA804C2E
:1024C30080D280FA80C680D4806980F28033801005
:1024D30080A680EA809A80A880DA80E280CA80336E
:1024E30089828A83ECFAE493A3C8C582C8CCC583E6
:1024F300CCF0A3C8C582C8CCC583CCDFE9DEE780B6
:102503000D89828A83E493A3F608DFF9ECFAA9F034
:10251300EDFB2289828A83ECFAE0A3C8C582C8CC8A
:10252300C583CCF0A3C8C582C8CCC583CCDFEADEA3
:10253300E880DB89828A83E493A3F208DFF980CC05
:1025430088F0EF60010E4E60C388F0ED2402B404FE
:102553000050B9F582EB2402B4040050AF232345A5
:0625630082239024C373E3
:10256900C2D530F707B2D563F0FF05F030E70CB2FA
:10257900D5F4048463F0FF05F080018430D502F4BA
:0225890004222A
:10258B00BB010689828A83E0225002E722BBFE024E
:09259B00E32289828A83E4932281
:1025A400BB010CE58229F582E5833AF583E02250EC
:1025B40006E92582F8E622BBFE06E92582F8E22236
:0D25C400E58229F582E5833AF583E4932250
:1025D100BB010689828A83F0225002F722BBFE01E9
:0225E100F322E3
:1025E300F8BB010DE58229F582E5833AF583E8F02E
:1025F300225006E92582C8F622BBFE05E92582C8DA
:02260300F222C1
:10260500EF8DF0A4A8F0CF8CF0A428CE8DF0A42EE9
:02261500FE22A3
:10261700BC000BBE0029EF8DF084FFADF022E4CCA7
:10262700F875F008EF2FFFEE33FEEC33FCEE9DEC70
:10263700984005FCEE9DFE0FD5F0E9E4CEFD22EDB6
:10264700F8F5F0EE8420D21CFEADF075F008EF2F00
:10265700FFED33FD4007985006D5F0F222C398FDF1
:052667000FD5F0EA228E
:10266C00C2D5EC30E709B2D5E4C39DFDE49CFCEE89
:10267C0030E715B2D5E4C39FFFE49EFE122617C3C4
:10268C00E49DFDE49CFC800312261730D507C3E4BF
:06269C009FFFE49EFE22F8
:1026A200C5F0F8A3E028F0C5F0F8E58215827002C3
:0626B2001583E038F02260
:1026B800A3F8E0C5F025F0F0E582158270021583D5
:0626C800E0C838F0E82232
:0D26CE00EF5BFFEE5AFEED59FDEC58FC22CB
:1026DB00EB9FF5F0EA9E42F0E99D42F0E89C45F055
:0126EB0022CC
:1026EC00E8600FECC313FCED13FDEE13FEEF13FFCC
:0326FC00D8F122F0
:1026FF00E86010ECA2E713FCED13FDEE13FEEF13F1
:04270F00FFD8F022DD
:10271300E493FC740193FD740293FE740393FF220C
:10272300E493F8740193F9740293FA740393FB220C
:0C273300A42582F582E5F03583F58322B1
:09273F00E0FBA3E0FAA3E0F9229B
:09274800EBF0A3EAF0A3E9F02292
:00000001FF
