:0300000002336860
:0C336800787FE4F6D8FD7581070233AFD2
:100003000000000000000000002F000000000700B7
:10001300070000147F147F1400242A7F2A12006231
:1000230064081323003649552250000005030000DD
:1000330000001C224100000041221C000014083E65
:1000430008140008083E0808000000A0600000082B
:10005300080808080000606000000020100804027F
:10006300003E5149453E0000427F4000004261513D
:100073004946002141454B31001814127F100027D7
:1000830045454539003C4A4949300001710905039A
:1000930000364949493600064949291E00003636CB
:1000A300000000005636000000081422410000142E
:1000B300141414140000412214080002015109060B
:1000C30000324959513E007C1211127C007F49498C
:1000D3004936003E41414122007F4141221C007FBD
:1000E30049494941007F09090901003E4149497ACB
:1000F300007F0808087F0000417F41000020404145
:100103003F01007F08142241007F40404040007FB0
:10011300020C027F007F0408107F003E4141413EF4
:10012300007F09090906003E4151215E007F09193C
:1001330029460046494949310001017F0101003F39
:100143004040403F001F2040201F003F4038403FB9
:10015300006314081463000708700807006151491D
:10016300454300007F41410000552A552A550000B0
:1001730041417F000004020102040040404040402E
:10018300000001020400002054545478007F4844C6
:10019300443800384444442000384444487F0038FD
:1001A3005454541800087E0901020018A4A4A47C26
:1001B300007F080404780000447D400000408084F0
:1001C3007D00007F102844000000417F4000007C38
:1001D30004180478007C0804047800384444443844
:1001E30000FC242424180018242418FC007C080490
:1001F300040800485454542000043F444020003C69
:100203004040207C001C2040201C003C4030403CEF
:10021300004428102844001CA0A0A07C004464547F
:100223004C441414141414140000000000000000C3
:100233000000000000000000000000F800000000C3
:10024300000000333000000000100C06100C060004
:10025300000000000000000040C07840C07840006B
:10026300043F04043F040400007088FC08300000CD
:10027300001820FF211E0000F008F000E018000025
:1002830000211C031E211E0000F0088870000000DE
:100293001E2123241927211010160E000000000030
:1002A3000000000000000000000000E0180402004D
:1002B300000000071820400000020418E0000000BE
:1002C3000040201807000000404080F080404000BC
:1002D3000202010F01020200000000F00000000012
:1002E3000101011F010101000000000000000000E6
:1002F30080B070000000000000000000000000005B
:1003030000010101010101010000000000000000E3
:10031300003030000000000000000000806018047E
:10032300006018060100000000E010080810E0005B
:10033300000F102020100F00001010F80000000024
:100343000020203F2020000000700808088870006B
:1003530000302824222130000030088888483000EB
:100363000018202020110E000000C02010F800000B
:1003730000070424243F240000F8088888080800A4
:100383000019212020110E0000E0108888180000B9
:10039300000F112020110E0000380808C83808008B
:1003A3000000003F0000000000708808088870000B
:1003B300001C222121221C0000E010080810E0008C
:1003C3000000312222110F00000000C0C000000015
:1003D300000000303000000000000080000000003A
:1003E3000000806000000000000080402010080032
:1003F30000010204081020004040404040404000FB
:1004030004040404040404000008102040800000D5
:100413000020100804020100007048080808F000DA
:100423000000003036010000C030C828E810E000AA
:100433000718272423140B000000C038E000000035
:10044300203C23020227382008F88888887000009F
:10045300203F202020110E00C03008080808380073
:10046300071820202010080008F808080810E000EA
:10047300203F202020100F0008F88888E80810008B
:10048300203F20202320180008F88888E80810005F
:10049300203F200003000000C03008080838000097
:1004A30007182020221E020008F808000008F80898
:1004B300203F210101213F20000808F8080800001F
:1004C3000020203F2020000000000808F808080052
:1004D300C08080807F00000008F888C028180800CA
:1004E300203F20012638200008F808000000000003
:1004F300203F20202020300008F8F800F8F80800FA
:10050300203F003F003F200008F830C00008F808F3
:10051300203F200007183F00E01008080810E00003
:100523000F10202020100F0008F808080808F0001A
:10053300203F210101010000E01008080810E0003D
:100543000F18242438504F0008F8888888887000D2
:10055300203F2000030C3020007088080808380072
:100563000038202121221C00180808F80808180068
:100573000000203F2000000008F808000008F808E9
:10058300001F202020201F000878880000C838089A
:10059300000007380E010000F80800F80008F80012
:1005A300033C0700073C03000818688080681808AC
:1005B30020302C03032C30200838C800C83808002A
:1005C3000000203F2000000010080808C838080079
:1005D3002038262120201800000000FE020202001D
:1005E3000000007F40404000000C30C000000000CD
:1005F300000000010638C00000020202FE000000F5
:10060300004040407F00000000000402020204009A
:1006130000000000000000000000000000000000D7
:1006230080808080808080800002020400000000BF
:1006330000000000000000000000808080800000B7
:100643000019242222223F2008F8008080000000A5
:10065300003F112020110E00000000808080000068
:10066300000E112020201100000000808088F80077
:10067300000E112020103F200000808080800000A9
:10068300001F222222221300008080F0888888180D
:100693000020203F20200000000080808080800018
:1006A300006B94949493600008F8008080800000AD
:1006B300203F210000203F20008098980000000088
:1006C3000020203F202000000000008098980000B8
:1006D30000C08080807F000008F8000080808000D8
:1006E300203F24022D302000000808F800000000FD
:1006F3000020203F202000008080808080808000B8
:10070300203F20003F20003F808000808080000049
:10071300203F210000203F200000808080800000D7
:10072300001F202020201F00808000808000000008
:1007330080FFA12020110E00000000808080800037
:10074300000E112020A0FF80808080008080800028
:1007530020203F2120000100000080808080800055
:100763000033242424241900008080E080800000CA
:100773000000001F20200000808000000080800017
:10078300001F202020103F20808080000080808078
:1007930000010E3008060100808000800080808008
:1007A3000F300C030C300F0000808000808080002D
:1007B3000020312E0E312000808080000080808058
:1007C30080818E7018060100008080808080800008
:1007D3000021302C2221300000000000807C020226
:1007E30000000000003F404000000000FF00000048
:1007F30000000000FF0000000002027C80000000F7
:100803000040403F00000000000601010202040412
:100813000000000000000000000080C0E060606095
:1008230060E0C080007FFFC1800000000080C1FF46
:1008330000000001030303030303010000008080A1
:10084300C0C060E0E000000000000000000000FF06
:10085300FF00000000000000000000030300000090
:100863000000C04060606060E0C080000080C06045
:10087300203010180C0703000003030303030303D2
:10088300030303000000C06060606060E0C080009C
:10089300000080800C0C0C0C0E9FFBF0000001018B
:1008A30003030303030101000000000000000080B4
:1008B300C0E0E000000060786C66636160FFFF6089
:1008C300000000000000000000030300000000E03F
:1008D300E06060606060600000008E8F07060606BF
:1008E300068EFCF80000010103030303030101006A
:1008F300000080C0C060606060606040007EFFC92F
:100903008C06060606068EFC0000000103030303A3
:1009130003030101006060606060606060E0E0E02C
:10092300000000000080E0781E07010000000000C6
:100933000303010000000000000080C060606060ED
:1009430060C0800000F0F39F0E0C0C0C0E9FF3F0C0
:100953000000010103030303030101000080C0C081
:100963006060606060C08000000F1F38303030303E
:1009730090CDFF3F000101030303030301010000C6
:10098300000000000000000000000000000303005E
:10099300000000000000000000030300000000004E
:1009A3000000000000000000000000000000000044
:1009B3000000000000000000000000000000000034
:1009C3000000000000000000000000000000000024
:1009D3000000000000000000000000000000000014
:1009E3000000000000000000000000000000000004
:1009F30000000000000000000000000000000000F4
:100A030000000000000000000000000000000000E3
:100A130000000000000000000000000000000000D3
:100A230000000000000000000000000000000000C3
:100A330000000000000000000000000000000000B3
:100A430000000000000000E0000000FF00000020A4
:100A530040800000000000000000000000000000D3
:100A630000000000080403000040807F0000000035
:100A730000010E0000000000000000000000000064
:100A830000000000100C445454FC555654FC5454BC
:100A930044140C00000000000000000000000000EF
:100AA30000000000111109050321254549910305A3
:100AB3000911110000000000000000000000000008
:100AC3000000000020202020202020FF20202020C4
:100AD30020202000000000000000000000000000B3
:100AE3000000000080804020100C0300030C102045
:100AF30040808000000000000000000000000000B3
:100B030000000000100C445454FC555654FC54543B
:100B130044140C000000000000000000000000006E
:100B23000000000011110905032125454991030522
:100B33000911110000000000000000000000000087
:100B4300000000000010109010101116101010D0AB
:100B53001010000000000000000000000000000072
:100B63000000000040404040435C4040504C434044
:100B730040404000000000000000000000000000B2
:100B83000000000040445454D454745F5454D4546B
:100B9300544440000000000000000000000000007A
:100BA3000000000004040201FE9292929292FE0160
:100BB3000204040000000000000000000000000028
:100BC3000000000002E22222222222FE222222220E
:100BD30022E202000000000000000000000000000C
:100BE3000000000000FF00000912007F000912400E
:100BF300807F0000000000000000000000000000F3
:100C03000000000000202020A06000FF6080402042
:100C130018000000000000000000000000000000B9
:100C230000000000201008060140807F000102043C
:100C33000810100000000000000000000000000089
:100C43000000000000E000FF102004E42425262417
:100C530024E4040000000000000000000000000085
:100C630000000000010000FF0020100D41817F0102
:100C73000509300000000000000000000000000033
:100C83000000000024A424FF140084543F44047C87
:100C930080E00000000000000000000000000000F1
:100CA300000000000040C15E5253527F5252525E18
:100CB30060C1000000000000000000000000000010
:100CC3000000000040445454D454745F5454D4542A
:100CD3005444400000000000000000000000000039
:100CE3000000000004040201FE9292929292FE011F
:100CF30002040400000000000000000000000000E7
:100D030000000000804020908886808080838C10C3
:100D130020408000000000000000000000000000F0
:100D230000000000008040201807004080403F0082
:100D330000000000000000000000000000000000B0
:100D4300000000001060028C00445454547F54543B
:100D530054444000000000000000000000000000B8
:100D63000000000004047E010000FF1515155595D1
:100D73007F000000000000000000000000000000F1
:100D83000000000000FC444444FC0000FE22222238
:100D930022FE000000000000000000000000000030
:100DA30000000000000F0404048F40300F020242D1
:100DB300827F00000000000000000000000000002F
:100DC30000000000001088844320100C1020418292
:100DD3008408000000000000000000000000000084
:100DE30000000000010100FE42424242424242FE34
:100DF30000010100000000000000000000000000EE
:100E03000000000002E22222222222FE22222222CB
:100E130022E20200000000000000000000000000C9
:100E23000000000000FF00000912007F00091240CB
:100E3300807F0000000000000000000000000000B0
:100E4300000000000010109010101116101010D0A8
:100E5300101000000000000000000000000000006F
:100E63000000000040404040435C4040504C434041
:100E730040404000000000000000000000000000AF
:100E830000000000000101FD55555755555555FD0E
:100E9300010100000000000000000000000000004D
:100EA30000000000809088454F55252525554D4568
:100EB30080808000000000000000000000000000AF
:100EC30000000000000000E0000000FF0000002020
:100ED300408000000000000000000000000000004F
:100EE30000000000080403000040807F00000000B1
:100EF30000010E00000000000000000000000000E0
:100F0300000000001060028C0024242FE42424E459
:100F13002F24240000000000000000000000000057
:100F23000000000004047E0100FF110907190907EE
:100F330049917F0000000000000000000000000055
:100F430000000000848484849F84A4C484849F84D8
:100F53008484840000000000000000000000000002
:100F630000000000000000007F404040404040403F
:100F730040400000000000000000000000000000EE
:100F8300000000002424A4FE232200F01010FF1010
:100F930010F000000000000000000000000000004E
:100FA30000000000080601FF010600070202FF021D
:100FB3000207000000000000000000000000000025
:100FC30000000000000101FD55555755555555FDCD
:100FD300010100000000000000000000000000000C
:100FE30000000000809088454F55252525554D4527
:100FF300808080000000000000000000000000006E
:101003000000000000024262524A464242425262DB
:10101300C202000000000000000000000000000009
:1010230000000000404044444444447F444444445A
:1010330044404000000000000000000000000000E9
:1010430000000000000000E0000000FF000000209E
:1010530040800000000000000000000000000000CD
:1010630000000000080403000040807F000000002F
:1010730000010E000000000000000000000000005E
:10108300000000000000005F5555F5555555955F6C
:10109300000000000000000000000000000000004D
:1010A3000000000011110909FD555757555555FD0D
:1010B300010101000000000000000000000000002A
:1010C3000000000020202020202020FF20202020BE
:1010D30020202000000000000000000000000000AD
:1010E3000000000080804020100C0300030C10203F
:1010F30040808000000000000000000000000000AD
:10110300000000000000005F5555F5555555955FEB
:1011130000000000000000000000000000000000CC
:101123000000000011110909FD555757555555FD8C
:1011330001010100000000000000000000000000A9
:10114300000000000010109010101116101010D0A5
:10115300101000000000000000000000000000006C
:101163000000000040404040435C4040504C43403E
:1011730040404000000000000000000000000000AC
:10118300000000002424A4FE2322807000FF0080BE
:1011930040300000000000000000000000000000DC
:1011A30000000000080601FF018640300E0106180A
:1011B300204080000000000000000000000000004C
:1011C300000000000080609F0808F80000FF102066
:1011D300408000000000000000000000000000004C
:1011E30000000000814020130C132020405F40408A
:1011F300404140000000000000000000000000002B
:10120300000000000000005F5555F5555555955FEA
:1012130000000000000000000000000000000000CB
:101223000000000011110909FD555757555555FD8B
:1012330001010100000000000000000000000000A8
:10124300000000000000F808080C0A090808080854
:10125300F800000000000000000000000000000093
:10126300000000000000FF41414141414141414133
:10127300FF0000000000000000000000000000006C
:1012830000000000100C05555555057F05D5555533
:1012930005140C0000000000000000000000000026
:1012A3000000000080F7857D5557000AE9ABA5A52E
:1012B300EB08080000000000000000000000000030
:1012C300000000002424A4FE2322807000FF00807D
:1012D300403000000000000000000000000000009B
:1012E30000000000080601FF018640300E010618C9
:1012F300204080000000000000000000000000000B
:1013030000000000804020908886808080838C10BD
:1013130020408000000000000000000000000000EA
:1013230000000000008040201807004080403F007C
:1013330000000000000000000000000000000000AA
:1013430000000000100C445454FC555654FC5454F3
:1013530044140C0000000000000000000000000026
:1013630000000000111109050321254549910305DA
:10137300091111000000000000000000000000003F
:1013830000000000100C05555555057F05D5555532
:1013930005140C0000000000000000000000000025
:1013A3000000000080F7857D5557000AE9ABA5A52D
:1013B300EB0808000000000000000000000000002F
:1013C30000000000100C05555555057F0555555572
:1013D30005140C00000000000000000000000000E5
:1013E3000000000020120A06FF0A1200FF5555559F
:1013F30055FF000000000000000000000000000096
:101403000000000000FE0222DA8690485724A4540C
:101413004C84800000000000000000000000000079
:101423000000000000FF0810080718121212FF1234
:101433001212100000000000000000000000000075
:10144300000000000010109010101116101010D0A2
:101453001010000000000000000000000000000069
:101463000000000040404040435C4040504C43403B
:1014730040404000000000000000000000000000A9
:10148300000000000020100894A7444444A4940CD6
:101493000000000000000000000000000000000049
:1014A30000000000020201012024244448881001A6
:1014B3000102020000000000000000000000000024
:1014C30000000000000000E0000000FF000000201A
:1014D3004080000000000000000000000000000049
:1014E30000000000080403000040807F00000000AB
:1014F30000010E00000000000000000000000000DA
:1015030000000000100C05555555057F0555555530
:1015130005140C00000000000000000000000000A3
:1015230000000000000041494949494949494949E6
:10153300FF000000000000000000000000000000A9
:101543000000000020202020202020FF2020202039
:101553002020200000000000000000000000000028
:101563000000000080804020100C0300030C1020BA
:101573004080800000000000000000000000000028
:1015830000000000100C05555555057F05555555B0
:1015930005140C0000000000000000000000000023
:1015A3000000000000004149494949494949494966
:1015B300FF00000000000000000000000000000029
:1015C300000000000020100894A7444444A4940C95
:1015D3000000000000000000000000000000000008
:1015E3000000000002020101202424444888100165
:1015F30001020200000000000000000000000000E3
:101603000000000000024262524A464242425262D5
:10161300C202000000000000000000000000000003
:1016230000000000404044444444447F4444444454
:1016330044404000000000000000000000000000E3
:1016430000000000000202C2020202FE82828282C5
:101653008202000000000000000000000000000003
:10166300000000004040407F4040407F40404040F9
:1016730040404000000000000000000000000000A7
:101683000000000080808080808080808080808057
:1016930080808000000000000000000000000000C7
:1016A3000000000000000000000000000000000037
:1016B3000000000000000000000000000000000027
:1016C30000000000000008080808080808080808C7
:1016D30008000000000000000000000000000000FF
:1016E3000000000010101010101010101010101037
:1016F30010101000000000000000000000000000B7
:1017030000000000000484848484848484848484AA
:10171300840400000000000000000000000000003E
:101723000000000020202020202020202020202036
:101733002020200000000000000000000000000046
:101743000000000000FC040404FC040404FC040482
:1017530004FC000000000000000000000000000086
:1017630000000000007F28242320202020212222A3
:10177300227F0000000000000000000000000000C5
:10178300000000000002424242C27E42424242C284
:101793000202000000000000000000000000000042
:1017A3000000000040404040784740404040407FB8
:1017B3004040400000000000000000000000000066
:1017C3000000000020202020202021222C20202087
:1017D30020202000000000000000000000000000A6
:1017E30000000000004020100C0300000001020470
:1017F300186000000000000000000000000000006E
:1018030000000000808080808040FF404040202016
:101813002020000000000000000000000000000085
:10182300000000000000000000003F404040404036
:1018330040780000000000000000000000000000ED
:10184300000000000000000000FC0000007E80009B
:101853000000000000000000000000000000000085
:101863000000000000806018070000000000030C67
:101873003040800000000000000000000000000075
:10188300000000000010101010FF10101010F000E6
:101893000000000000000000000000000000000045
:1018A30000000000804020180700000000003F40B7
:1018B300404078000000000000000000000000002D
:1018C3000000000040404040404040FF4040404056
:1018D3004040400000000000000000000000000045
:1018E3000000000000000000000000FF00000000F6
:1018F30000000000000000000000000000000000E5
:10190300000000000020100894A7444444A4940C51
:1019130000000000000000000000000000000000C4
:101923000000000002020101202424444888100121
:10193300010202000000000000000000000000009F
:101943000000000000FE2222FE4048487F4848482D
:101953007F48480000000000000000000000000075
:1019630000000000807F0282FF0000FF49494949CF
:1019730049FF00000000000000000000000000001C
:1019830000000000080889EA1888000404FC040425
:1019930004FC000000000000000000000000000044
:1019A30000000000020100FF01864020180740806C
:1019B300403F0000000000000000000000000000A5
:1019C3000000000020202020FF202020202020FFD6
:1019D30020202000000000000000000000000000A4
:1019E3000000000000000000FF404040404040FF76
:1019F30000000000000000000000000000000000E4
:101A030000000000000000FE2222222222222222C5
:101A1300FE000000000000000000000000000000C5
:101A2300000000008040300F0202020202024282E4
:101A33007F00000000000000000000000000000024
:101A4300000000000000FE82929292FE9292928227
:101A5300FE00000000000000000000000000000085
:101A63000000000080601F00001E1212121E408042
:101A73007F000000000000000000000000000000E4
:041A8300000000005F
:102A6A00E924B0FFE433FEE4FDFC1240877F02E470
:102A7A00FDFCFE124087E4FDFC221225E77D0A9048
:102A8A00001FE0FEA3E0FF7C0002261B90002AE064
:102A9A0075F010A429F582E435F0F583E5822290D9
:102AAA000026E0FFA3E0FD123E14E4F922122743B8
:102ABA0074301225D5900021022743E4F0A3E024C4
:102ACA0002F022E075F006900003122737E582290A
:102ADA00F582E4358322FA90001BE07E0029F9EEA4
:102AEA003AFA12258FFF2290001CE004F090001B96
:102AFA00E004F0E0C3941022F583E493F4FFE4F4D5
:102B0A00FE22AC071241C87F78123FA902413FEF6B
:102B1A00F0A3EDF0A322E0F5827583000225A87FD9
:102B2A0010FE124087E422E004F0E0C3948022A45D
:102B3A00FF900062E02FFFA3E0FD22900017E0FF64
:102B4A00A3E022FF90001D122743E92FF9EA22127F
:102B5A00261B7C007D0A02261BEFF0A3EDF0E4227F
:0A2B6A00FD123E14E490001BF0225F
:0941C800D280D281C281C28022A2
:0741E300D280C281D28122CB
:0B413400123FA912413FAF04123FA947
:05413F00D280C28022C5
:103FA900C280E4FEAD07ED5480B48004D281800262
:0F3FB900C281EF25E0FFD280C2800EEEB408E592
:013FC80022D6
:0B415400122B0CE4FF1241340241E387
:0B415F00122B0C7F401241340241E3A0
:0B407C00F583E493FF7E007D017C00D3
:10408700AB07AA06ED4C600302415FAF0312415430
:014097002206
:053F3F0090006BEFF0A3
:103F4400E4F9122A6A122B2990006CF090006BE0BD
:0E3F5400124080A3122B3140F309E9B408E4B7
:013F6200223C
:103E1400A907ED24B0FFE433FEE4FDFC124087E97A
:103E240054F0C4540F7E004410FFE4FDFC1240879C
:0F3E3400E9540F2402FFE433FEE4FDFC02408753
:104144007F8D122A797F14122A7C7FAFFE0240876A
:10411000E4FDFC7F8D122A7C7F10122A7C7FAEFE8C
:03412000024087D3
:103F6300E4F9122A6A122B2990001FF07D017C00CC
:103F7300E4FFFE12408790001F122B3140EE09E947
:033F8300B408DFA0
:013F86002218
:103F1A00E4F9122A6A122B2990006FF07D017C00C5
:103F2A007F017E0012408790006F122B3140ED090D
:043F3A00E9B408DE00
:013F3E002260
:03361D00900026F4
:10362000122B6390002AF0F9900026E02402F0EBC0
:1036300024E090002AF0900026E0D3947F4003120B
:103640002AC5900029E064107035122AA9122A9622
:10365000242BF582E583340212407C09E9B408ED9D
:10366000900026E0FFA3E004122AB0122A96243329
:10367000F582E583340212407C09E9B408ED22901A
:103680000029E0640C7011122AA990002A122ACD98
:0836900012407C09E9B406F2C6
:01369800220F
:0331B8009000265E
:1031BB00122B6390002AF0F9900026E02402F0EB2A
:1031CB0024E090002AF0900026E0D3947F40031275
:1031DB002AC5900029E064107044900026122AAC96
:1031EB0090002A122A99242BF582E5833402122BA4
:1031FB000212408309E9B408E7900026E0FFA3E040
:10320B0004122AB090002A122A992433F582E583FE
:10321B003402122B0212408309E9B408E722900012
:10322B0029E0640C7017900026122AAC90002A1229
:0D323B002ACD122B0212408309E9B406EFE0
:013248002263
:073FC900900070EFF0A90564
:103FD0007F017E00AD0119ED600C900070E0FD7C6A
:063FE0000012260980EE2C
:013FE60022B8
:0B2FEA00900062122B19EAF0A3EBF03C
:102FF500E490006AF0900068F0900066E0FF9000B1
:1030050068E0FEC39F507BC3EF9E14FD7F0A123F0D
:10301500C9900064E0FCA3E0FDCFCDCFCECCCE12AD
:103025002B59900069EDF0A3E0702E900066E01436
:10303500FF900068E0FEC39F501FA3E0701590004D
:1030450067E0FCC3138EF0122B39900029ECF07B5E
:1030550020802390006A7401F0900067E0FEC3139E
:10306500FFA3E0FDEF8DF0122B39900069E02430CD
:10307500FB900029EEF012361D900068E004F00286
:023085002FFE1C
:013087002226
:0939B40090001F122B1912274C80
:1039BD00E4900025F090001FE02402F09000211209
:1039CD002743900025122B20FB602B90001FE0FF5A
:1039DD00A3E0FD900024E0900029F012361D900028
:1039ED001FE02408F0E0C394784003122AC590002C
:0639FD0025E004F080C685
:013A030022A0
:093A040090001F122B1912274C2F
:103A0D00E4900025F090001FE02402F090002112B8
:103A1D002743900025122B20FB602B90001FE0FF09
:103A2D00A3E0FD900024E0900029F01231B8900041
:103A3D001FE02408F0E0C394784003122AC59000DB
:063A4D0025E004F080C634
:013A53002250
:03324900900017DB
:10324C00122B6390001CF0EB14600F14601424021A
:10325C00701E7BFF7A0979A7800E7BFF7A1679475F
:10326C0080067BFF7A0979C790001D12274C800FCE
:10327C00122B45FD9000297410F07B3F0231B812DF
:10328C002B45122B6A90001AE075F040A4122B4DBE
:10329C0035F0122AE0124083122AF140E8122B4535
:1032AC0004122B6A90001AE075F002A42401FFE4CA
:1032BC0035F0FEEF7805C333CE33CED8F9122B4D53
:0C32CC003E122AE0124083122AF140D882
:0132D80022D3
:0838A00090000F122B19EBF050
:1038A800E4900016F090000FE02402F0E490001677
:1038B800F0900015E0FFA3E0FEC39F503790000F83
:1038C800E0FFA3E0FD9000121227438E82122B2303
:1038D80090001AF0900011E0FB12324990000FE0BE
:1038E8002410F0E0C394704003122AC5900016E03B
:0438F80004F080BD9B
:0138FC0022A9
:0A350B00900057EFF0900059EBF02C
:10351500E490005EF0A3F090005AE0FF54077008B5
:10352500EF131313541F800A90005AE0131313541A
:103535001F04900061F0900061EDF090005AE0FFEB
:10354500900061E0FDC39F5045900057E0FF123E9B
:1035550014E0900060F0900059E0FF900060E0C337
:103565009F502390005B12274390005EE475F001A5
:103575001226BC85F082F5831225A81240809000A2
:0E35850060E004F080D0900061E004F080ADC2
:013593002215
:10359400E4FDFC7FAE122A7CFF122A7C7F10122AE3
:1035A4007C7F40122A7C7FB0122A7C7F81122A7C85
:1035B4007FFF122A7C7FA1122A7C7FA6122A7C7F9D
:1035C400A8122A7C7F3F122A7C7FC8122A7C7FD3D0
:1035D400122A7CFF122A7C7FD5122A7C7F80122A31
:1035E4007C7FD8122A7C7F05122A7C7FD9122A7C00
:1035F4007FF1122A7C7FDA122A7C7F12122A7C7FC6
:10360400DB122A7C7F30122A7C7F8D122A7C7F1465
:09361400122A7C7FAFFE02408700
:10294E0090002112274C90001FEEF0A3EFF0C394DD
:10295E000AEE9400501DA3122AB790000174301293
:10296E0025E790000274301225E790001FA3E0FFC8
:10297E00022A0BC3900020E0946490001FE09400A4
:10298E005020900021122AB79000017430122A8430
:10299E001241F4122ABF900002EF122A84AF0502F0
:1029AE002A0BC3900020E094E890001FE09403509F
:1029BE0015122ABF74301225D57D64122A89122A67
:1029CE0022AF05022A0B90001FE0FEA3E0FFC39486
:1029DE0010EE942750347C037DE812261B1241F42E
:1029EE00122ABFEF1225D590001FE0FEA3E0FF7C58
:1029FE00007D64122B59AF05122A22AF051241F445
:102A0E00122ABF900003EF1225E7122ABF9000048E
:102A1E00E40225E71241F4900021122743900001B1
:102A2E00EF1225E790001FE0FEA3E0FF7C007D0A79
:102A3E0012261B7C007D0A12261BAF051241F49054
:102A4E000021122743900002EF1225E790001FE0AD
:0C2A5E00FEA3E0FF7C007D0A12261B2274
:1037DF0090002012274C90001FEFF0C3940A501056
:1037EF00A312274374301225D590001FE0FF8021CC
:1037FF0090001FE0FFC394645021EF75F00A84FF1F
:10380F00123837EF1225D590001FE075F00A84AFFC
:10381F00F0123837900001EF1225E79000201227A1
:10382F0043900002E40225E71241F4900020122792
:02383F00432222
:10405F00416C61726D004D757369630057656174D2
:0D406F006865720053657474696E677300B4
:0C3E430045005100010203044100561824
:103EA000900000E025E0FD9000297410F0227BFFD7
:103EB0009000247410F022FD75F00A842430F0ED97
:0C3EC00075F00A84E5F02430A3F0A32282
:1040CC00900056E0FFB40C047418F022EFB41806FC
:0740DC00900056740CF02265
:102B7400E4900000F0123F637A40795F123EAEE4C5
:102B8400FD7F161239B47A407965123EAE7D027F1C
:102B9400161239B47BFF7A40796B123EB07D047F04
:102BA400161239B47BFF7A407973123EB07D067FEA
:102BB400161239B4123EA07B3EFF12361D12384164
:102BC400EF64017017123EA0122C3770067403F0E4
:102BD400022B7C900000E014F0022B7C123841EFB1
:102BE40064027017123EA0122C37B40305E4F002FD
:102BF4002B7C900000E004F0022B7C123841BF03D0
:102C040003023F63123841EF64046003022B7C909B
:102C14000000E014601124FE601324036003022BFF
:102C24007C122755022B7C122E98022B7C122D0E1F
:032C3400022B7CF4
:0B2C37007B20FF12361D900000E02201
:0141FC0022A0
:0141FD00229F
:103088007F017E001240231241EA12359412414416
:10309800123F63123F631240B2900056E0FB7D027C
:1030A8007F14122C427D04E4FF122F4BE4FDFF1223
:1030B8003B37E4FD7F50123B7D7B017A00794F124C
:1030C8003D7090004FE0900043123EB77443F0A368
:1030D8007420F0900050E0900047123EB77425F03D
:1030E800E4A3F07B017A007943123EB07D067F1499
:1030F8001239B4123841EF24FE600F1460111460C5
:1031080013240370121240CC800D122B7480081205
:0D31180041FC80031241FD1240410230A134
:10412300504D00414D00202000100F000F0D0100E5
:01413300018A
:103E4F0050003300000000000000000000000000E0
:0E3E5F0000000048002B2024051417593802DB
:103125007D0A90001FE0FEA3E0FF7C0002261BE065
:10313500FF75F00A84C454F0FEEF75F00A84EE259D
:10314500F022FFC4540FF0EF540FA3F022E075F006
:103155000AA4FFA3E02FFF22A3E0FD123CFAA3E09F
:10316500FD22E0FFA3E0FD7B0190001212274C90A9
:10317500001522E0FFA3E0FD7B019000247410F010
:1031850022FA90001FE0FEA3E0FF02261B7D017BD3
:10319500FF7E007F02022547123C03A3EFF02224A5
:1031A50048FFA3E0FD7BFF22F0EF75F00A84A3E55D
:0331B500F0F02215
:0541EA00C293C2912206
:103CFA00D293EF54FEFFE4FEEF30E004D29280024A
:103D0A00C292D291C291EFC313FF0EEEB408E9E456
:103D1A00FEED30E004D2928002C292D291C291EDBD
:0A3D2A00C313FD0EEEB408E9C293C6
:013D3400226C
:103C0300D293EF4401FFE4FDEF30E004D29280024F
:103C1300C292D291C291EFC313FF0DEDB408E9E450
:103C2300FDEEC313FE3092054480FE8004EE547F04
:0E3C3300FED291C2910DEDB408E7C293AF0628
:013C41002260
:103C8100E4FD7F8E123CFA7D807F80123CFA900029
:103C91002CE0FD7F8C123CFA7F8812315D7F861209
:103CA10031607F841231607F82123CFA7F80123151
:0D3CB1005D7F8A123CFA7D807F8E023CFA16
:103E72007F8C123C0390002CEFF07F8812319D7FE3
:103E82008612319D7F8412319D7F8212319D7F8007
:0E3E9200123C03EF547FA3F07F8A12319D2271
:0B2C4200900000EFF0A3EDF0A3EBF01A
:102C4D00123711900002E0640C70451241AA9000F9
:102C5D0003EFF0C3940C900000E040091231A47A08
:102C6D0041792380071231A47A41792612317F12DE
:102C7D0039B4900003E0D3940C4004E024F4F090B8
:102C8D000003E0FF75F00A8490003B1231AD801116
:102C9D00900000E01231A47A41792912317F123966
:102CAD00B490003BE0FF70089000047420F08007A2
:102CBD00EF2430900004F090003CE02430900005AB
:102CCD00F0A3743AF090003DE02430900007F090AE
:102CDD00003EE02430900008F0A3743AF090003FDD
:102CED00E0243090000AF0900040E0243090000B7A
:102CFD00F0E4A3F09000007A0079041231780239E3
:012D0D00B411
:082F4B00900000EFF0A3EDF08F
:102F5300780D7C007A41792C12319212371190004E
:102F630033E02430900002F0900034E024309000ED
:102F730003F0900035E02430900004F0900036E038
:102F83002430900005F0A3742FF0900037E0243034
:102F9300900007F0900038E02430900008F0A3740C
:102FA3002FF0900039E0243090000AF090003AE0CE
:102FB300243090000BF0E4A3F09000007A00790233
:102FC3001231781239B4900041E090000EF0900075
:102FD30000E0245AFFA3E0FD7B017A00790D123152
:072FE3006E7402F00238A039
:0B33F400900004EFF0A3EDF0A3EBF05D
:1033FF0078087C007D017BFF7A41792E7E007F0467
:10340F00122547900006E0FFD39401400790000873
:10341F00EFF08005E4900008F0900007E0FFD394F0
:10342F000A500B90000A740DF0A3EFF08033EFC336
:10343F009414500790000A740A801A900007E0FF56
:10344F00B4140790000A74028012EFC3941E900008
:10345F000A5007740E1231AD80077403F0A3740A7B
:10346F00F09000047A0079081231677404F0023882
:01347F00A0AC
:083B3700900000EFF0A3EDF097
:103B3F00123DA9C006C007124196C0071241A0ABA3
:103B4F0007C0037B017A00790290000812274CD03E
:103B5F0003D005D007D006123A54900000E0FFA31F
:0E3B6F00E0FDA3E0FBA3E0900007F00233F4BA
:083B7D00900000EFF0A3EDF051
:103B850078027C007A417932123192123DA9C00641
:103B9500C007124196C0071241A0AB07D005D00758
:103BA500D006123AA2900002EFF004A3F0900000B4
:0E3BB5007A0079021231677402F00B0238A018
:10371100123E7290002BE090003312314790002C42
:10372100E090003512314790002DE0FFC4540F9016
:10373100003712314B90002EE0FFC4540F90003936
:1037410012314B900032E05407900041F090002F6D
:10375100E0FFC4540F90003B12314B900030E0FF6A
:10376100C4540F90003D12314B900031E0FFC4541E
:083771000F90003F12314B22C2
:103ECC00AB07AA06EB5403700AFC7D6412261BEDAB
:103EDC004C700FAE02AF037C017D9012261BED4C93
:083EEC0070037F01227F002218
:103DA900123711900033E0FF7E007C037DE8122674
:103DB90009AC06AD07A3E075F064A42DFDEC35F060
:103DC900FCA3E075F00AA42DFFE5F03CFEA3E07C1E
:073DD900002FFFEC3EFE226B
:0A4196001237119000371231522247
:0A41A000123711900039123152223B
:0A41AA0012371190003B123152222F
:0A41B40012371190003D1231522223
:0A41BE0012371190003F1231522217
:0941D100123711900041E0FF22B9
:0A34800090001FEEF0A3EFF0AA0584
:10348A00EA64016004EAB4020E740C2AFA90001F7E
:10349A0074FFF5F01226A6EA2401FFE433FE7C004D
:1034AA007D031226097D05122670AC06AD07EA7562
:1034BA00F002A47A002BFFEA35F0CF2DCF3CFE9024
:1034CA00001FE0FCA3E0FD2FFBEC3EFAAE04ED7812
:1034DA0002CEC313CE13D8F92BFBEA3E7C007D64DF
:1034EA00123186C3EB9FFBEA9E7C017D90123186E6
:1034FA00EF2BFFEE3AFE7C007D0712261BED04FF40
:01350A00229E
:1032D90090001FEEF0A3EFF0A3EDF07D641231270B
:1032E9007C007D0A12261BAA0590001FE0FEA3E0C0
:1032F900FF7C037DE812261BEFC454F02A90002BB3
:10330900F01231257C007D0A12261BEDC454F0FA17
:10331900123125EA2D90002CF090002112313490C1
:10332900002DF0EB75F00A84C454F0FFEB75F00A38
:1033390084EF25F0A3F090002312313490002FF090
:10334900900024123134900030F09000251231346D
:0F335900900031F0900026E0900032F0023C81AD
:0941DA00EFF0124005A3EFF02202
:0341F900DFFE22C4
:103FE700D3EF9400EE940040147D7A7C00ED1D70B1
:0D3FF700011CED4C70F7EF1F70E61E80E31B
:014004002299
:1040E300D2A37F021241F9C2A37F147E00123FE7DD
:0740F300D2A37F1E0241F978
:10400500E4FEFD30A3FD7F081241F9EE25E0FE3008
:0D401500A3010E20A3FD0DEDB408E8AF06D9
:01402200227B
:103D70001240E320A33230A3FD7F281241F9124004
:103D8000059000001241DA124005AC07124005A36D
:103D90001241DA7F191241F9AF04EF1225D59000D4
:083DA00000E09000011225E78C
:013DA80022F8
:1038410020B0127F147E001240FA20B04C90001F6D
:103851007401F0804420B1127F147E001240FA20DE
:10386100B13790001F7402F0802F20B2127F147EB6
:10387100001240FA20B22290001F7403F0801A2037
:10388100B3127F147E001240FA20B30D90001F7412
:0E38910004F08005E490001FF090001FE0FF9F
:01389F002206
:103EF40053657420566F6C756D65004D75736963F9
:103F04003100566F6C756D653A202000566F6C75E4
:063F14006D653A2020005B
:043E6D004100710F90
:103F87007D017BFF7E007F0A122547900071E0FFCD
:103F970075F00512256D2430227B019000247410E2
:023FA700F02206
:0538FD00900016EFF041
:10390200C2AFD2907FE87E0312416AC2907F987E56
:103912000812416AE4900017F0D290900016E0304D
:10392200E00F7FF47E0112416AC2907FD27E008056
:103932000D7FD27E0012416AC2907FF47E01124155
:103942006A900016E0C313F0A3E004F0E0C3940809
:0639520040C7D290D2AF85
:01395800224C
:053BC300900013EFF07B
:103BC800C3940A4023E0FF75F00A84A3F0EF75F070
:103BD8000A84A3E5F0F07F0A1238FD900014E0FF94
:103BE8001238FD90001580087F0A1238FD900013E6
:0A3BF800E0FF1238FD7F0B1238FDCC
:013C0200229F
:0541EF007F130238FD02
:10409800EF7F0A60071238FD7F0180051238FD7F27
:0A40A800021238FD7F0E1238FD22CF
:10395900D3EF6480949E4008900071741EF0801427
:10396900C3EF648094805007E4900071F080059063
:103979000071EFF0900071E0FF75F00A12256D906B
:103989000013F0EF75F00A12256DAFF0900014EFF7
:10399900F07F0A1238FD900013E0FF1238FD900005
:0B39A90014E0FF1238FD7F0C0238FD17
:102E98009000017401F078027C00FD7BFF7A3E7996
:102EA800FF7E007F0712254778097C007A3F790664
:102EB800123F87900011F0123F63900071E0FF12FB
:102EC80039597F01022F457A007902123FA0E4FDAB
:102ED8007F201239B47A007909123FA07D027F144D
:102EE8001239B4123841BF0108900071E0240580FE
:102EF8000C123841BF0213900071E024FBFF123915
:102F080059123F92900011F080BD123841BF03065C
:102F18001241EF023F63123841EF640470A9124175
:102F2800EF900001E004F0E0C3940A40037401F05C
:102F3800900001E0FE2430900007F0AF06123BC37A
:032F4800022ECF87
:1036990078027C007A3F7910123F8790000AF01275
:1036A9003F637BFF7A3E79F4123FA2E4FD7F10125B
:1036B90039B47B017A007902123FA27D027F14128C
:1036C90039B4123841BF010B1241EF900071E02467
:1036D90005800F123841BF021B1241EF900071E0C3
:1036E90024FBFF123959123F9290000AF07F0A1207
:1036F9003BC380BE123841BF03028008123841EF34
:07370900640470AE123F637F
:013710002296
:10402300D3EF9400EE940040147D657C18ED1D7071
:0D403300011CED4C70F7EF1F70E61E80E3DE
:01404000225D
:1040FA00EF1FAA0670011E4A600BE4FDEDC3947A15
:05410A0050EE0D80F7EE
:01410F00228D
:0B416A00EF1FAC0670011E4C70F62227
:0541F400EF2430FF2262
:103D3500456E61626C65640044697361626C65001F
:103D450053617665642100416C61726D20676F690E
:103D55006E67206F666600416C61726D31003030B0
:0B3D6500003030004D757369632000D2
:103CBE007D017BFF7E007F070225477BFF9000245E
:103CCE007410F022900022E0D36480227D017BFFED
:103CDE007E007F030225479000247410F0227B01A2
:0C3CEE007A007908227B017A00790B2211
:1040B2001241AA90004CEFF01241B490004BEFF085
:0A40C20090004D7401F0E4A3F02219
:0B417500D3EF6480948C40027F012295
:1037790090001FEEF0A3EFF0900022EBF0900021F3
:10378900EDF06402702090001FE0FEA3E0FF123EFE
:10379900CCEF6009123CD2949D40358030123CD266
:1037A900949C402C8027900021E0FF6404600EEF78
:1037B90064066009EF64096004EFB40B09123CD296
:1037C900949E400C8007123CD2949F40037401F0F0
:0637D900900022E0FF2237
:0B418000C3EF648094984002E4FF222B
:0B418B00C3EF648094BC4002E4FF22FC
:1027550078017C007A3D795C123CBE78087C007A71
:102765003D7963123CDA780B7C007A3D7966123C40
:10277500DA780E7C007A3D7969123CBE90001574BA
:1027850001F0123F6378167C007D017B017A0079A8
:102795004B7E007F0412254790004CE0FF123CEC75
:1027A5001237DF90004BE0FF123CF31237DF0228AF
:1027B500D07B017A007901123CCBE4FD7F201239F0
:1027C500B4900015E0123CECB4010C123CE57D021E
:1027D5007F20123A04800A123CCB7D027F201239F9
:1027E500B49000297410F07B3A7D027F3212361DB9
:1027F500900015E0123CF3B4020C123CE57D027F1B
:1028050038123A04800A123CCB7D027F381239B463
:10281500900015E07B017A00790EB4030C123CE5BB
:102825007D047F20123A04800A123CCB7D047F2070
:102835001239B4900015E06404701E90004EE07BE0
:10284500FF60067A3D793580047A3D793D123CE595
:102855007D067F20123A04801C90004EE07BFF60CD
:10286500067A3D793580047A3D793D123CCB7D066B
:102875007F201239B4123841EF6401706E90001553
:10288500E024FE601F1460321460502403600302CC
:1028950027B690004CE004F0E0FF124180EFF01203
:1028A5003CEC801090004BE004F0E0FF12418BEF10
:1028B500F0123CF31237DF0227B690004DE004F02A
:1028C500E0C36480948A40037401F090004DE0FFFA
:1028D5001241F4900013EFF00227B690004EE0602D
:1028E50005E4F00227B690004E8015123841BF026C
:1028F50015900015E004F0E0D3940450030227B6C8
:102905007401F00227B6123841BF0316123F6378EF
:102915004B7C007D017B017A0079167E007F0402E5
:102925002547123841EF640460030227B6123F635E
:102935007A3D7945123CC97D027F201239B47FD09A
:082945007E071240FA123F6305
:01294D002267
:1040410090004EE060171241AA90004CE0B5070DB8
:0E4051001241B490004BE0B50703123DE0228F
:103DE000123F637A3D794C123CC97D02E4FF1239DF
:103DF000B47F0112409890004DE0FF123BC312388F
:103E000041EF60FAE490004EF01241EFE4FF1240FF
:043E100098023F6372
:103AEF0053657420446174652654696D6500536194
:103AFF007665642100446174652654696D650056CE
:103B0F006F6C756D6500446973706C61790041620B
:103B1F006F7574003139373000303100303100307B
:083B2F0030003030003030009E
:103C42007BFF9000247410F0227D017BFF7E007FB9
:103C520003022547900001E025E0FD900029741041
:103C6200F0229000247410F022900016E0FEA3E0EF
:0F3C7200FFA3E0FDA3E0FB227B017A0079022291
:101A870078027C007D017BFF7A3B79237E007F050E
:101A970012254778077C007A3B7928123C4B780A55
:101AA7007C007A3B792B123C4B780D7C007D017BC7
:101AB700FF7A3B792E123C4F78107C007D017BFF2B
:101AC7007A3B7931123C4F78137C007D017BFF7A9A
:101AD7003B7934123C4F123DA9900016EEF0A3EF6C
:101AE700F0124196900018EFF01241A0900019EF04
:101AF700F01241D190001AEFF01241AA90001BEFAB
:101B0700F01241B490001CEFF01241BE90001DEF9F
:101B1700F0A37401F0121DA8123C7A12294E90000E
:101B270018E0FF121DB4900019E0FF121DCC9000C1
:101B37001B7A00790D121DD690001C7A00791012BD
:101B47001DD690001DE0FF7B017A0079131237DF65
:101B57007A3A79EF123C42E4FD7F081239B49000DB
:101B67001AE0FF1241F4AB07123C5D7D027F681259
:101B7700361D90001EE0123C7AB4010B123C647DC6
:101B870002FF123A048009123C447D02FF1239B465
:101B9700123C5D7F32121D9A7A007907B4020C124B
:101BA7003C647D027F38123A04800A123C447D026D
:101BB7007F381239B4123C5D7F4A121D9A7A007938
:101BC7000AB4030C123C647D027F50123A04800A67
:101BD700123C447D027F501239B490001EE07B0115
:101BE7007A00790DB4040C123C647D047F20123A0C
:101BF70004800A123C447D047F201239B4123C5DF4
:101C07007F32121DBE7A007910B4050C123C647D38
:101C1700047F38123A04800A123C447D047F38124C
:101C270039B4123C5D7F4A121DBE7A007913B4069F
:101C37000C123C647D047F50123A04800A123C4423
:101C47007D047F501239B4123841EF6401600302FA
:101C57001D2A90001EE024FE604614605814607729
:101C6700147003021CF6147003021D0E2405600392
:101C7700021B65900016E475F0011226A6C39000BA
:101C870017E09410900016E094274004E4F0A3F0C6
:101C9700900016E0FEA3E0FF123C7A12294E801B4B
:101CA700900018E004F0E0FF124175900018EFF083
:101CB700121DB48006900019E004F0123C6B123735
:101CC70079900019EFF0121DCC123C6B1234809002
:101CD700001AEFF0021B6590001BE004F0E0FF1212
:101CE700418090001BEFF07B017A00790D802E90E8
:101CF700001CE004F0E0FF12418B90001CEFF07B2A
:101D0700017A007910801690001DE004F0E0FF12C0
:101D1700418B90001DEFF07B017A0079131237DFBA
:101D2700021B65123841BF021590001EE004F0E067
:101D3700D394065003021B657401F0021B65123829
:101D470041BF03028049123841EF64046003021B5C
:101D570065121DA8123C7390001BE0900023F090C1
:101D6700001CE0900024F090001DE0900025F0900A
:101D7700001AE0900026F01232D97A3A79FD123C27
:101D8700427D027F201239B47FD07E071240FA12BB
:021D97003F63A8
:101D9900227B2F7D0212361D90001EE07B0122124C
:101DA9003F63900016E0FEA3E0FF227B017A0079F1
:101DB900071237DF227B3A7D0412361D90001EE0A0
:101DC9007B01227B017A00790A1237DF22E0FF7B4F
:051DD900011237DF22BA
:102D0E00E4900001F0123F637BFF7A3B7904123CA2
:102D1E0044E4FD122DC27A3B790E123C447D021220
:102D2E002DC27A3B7915123C447D047F161239B4BC
:102D3E007BFF7A3B791D123C447D067F161239B417
:102D4E00123C567B3EFF12361D123841EF64017065
:102D5E0017123C56122DCA70067403F0022D1690EF
:102D6E000001E014F0022D16123841EF64027017C4
:102D7E00123C56122DCAB40305E4F0022D16900033
:102D8E0001E004F0022D16123841BF0303023F6327
:102D9E00123841EF64046003022D16900001E01416
:102DAE00600C046003022D16121A87022D161236BD
:042DBE0099022D1633
:102DC2007F161239B47BFF227B20FF12361D900042
:032DD20001E022FB
:101DDE00004D4AB8000D4A4C000DA5410025AAB68B
:101DEE0000056A49007AADBD00025D5200092D471B
:101DFE00005C95BA000A954E000B4A43004B5537CE
:101E0E00000AD54A00955ABF0004BA53000A5B482F
:101E1E0000652BBC00052B50000A934500474AB9BC
:101E2E000006AA4C000AD5410024DAB60004B64AD0
:101E3E000069573D000A4E51000D2646005E933A4A
:101E4E00000D534D0005AA430036B53700096D4B02
:101E5E0000B4AEBF0004AD53000A4D48006D25BC62
:101E6E00000D254F000D5244005DAA38000B5A4C50
:101E7E0000056D410024ADB600049B4A007A4BBEAE
:101E8E00000A4B51000AA546005B52BA0006D24E1C
:101E9E00000ADA4200355B370009374B008497C1E0
:101EAE000004975300064B480066A53C000EA54F54
:101EBE000006B244004AB638000AAE4C00092E4263
:101ECE00003C9735000C9649007D4ABD000D4A51E5
:101EDE00000DA5450055AABA00056A4E000A6D43CD
:101EEE0000452EB700052D4B008A95BF000A95536D
:101EFE00000B4A47006B553B000AD54F00055A456B
:101F0E00004A5D38000A5B4C00052B42003A93B63E
:101F1E0000069349007729BD0006AA51000AD5464E
:101F2E000054DABA0004B64E000A5743004527386B
:101F3E00000D264A008E933E000D5252000DAA4708
:101F4E000066B53B00056D4F0004AE45004A4EB924
:101F5E00000A4D4C000D1541002D92B596B4A5B555
:101F6E00A6A6878888788786A5B3A5A5A6A68888FD
:101F7E0088788787A5B496A5969688787878878787
:101F8E0095B496A5969788787869788796B4A5B50E
:101F9E00A6A6878888788786A5B3A5A5A6A68888CD
:101FAE0088788787A5B496A5A69688887878878737
:101FBE0095B496A5969788787869788796B4A5B5DE
:101FCE00A6A6878887788786A5B3A5B5A6A688888E
:101FDE0088788787A5B496A5A69688887878878707
:101FEE0095B496A5969788787879788796B4A5B59E
:101FFE00A5A6878887788786A5B3A5B5A6A6878860
:10200E0088788787A5B496A5A696888878788787D6
:10201E0095B496A5969788787879778795B4A5B470
:10202E00A5A6878887788786A5C3A5B5A6A687881F
:10203E0088788787A5B4A6A5A69688887878878796
:10204E00A5B496A5969688787879778795B4A5B431
:10205E00A5A6978787788786A5C3A5B5A6A68788E0
:10206E0088788786A5B4A5A5A69688888878878758
:10207E00A5B496A5969688787879778795B4A5B401
:10208E00A5A6978787788796A5C3A5B5A6A68788A0
:10209E0088788786A5B3A5A5A6A688888878878719
:1020AE00A5B496A5969688787878878795B4A5B4C2
:1020BE00A5A6978787788796A5C3A5B5A6A6878870
:1020CE0088788786A5B3A5A5A6A6888888788787E9
:1020DE00A5B496A5969688787878878795B4A5B492
:1020EE00A5A6978787788796A5C3A5B5A6A688883F
:1020FE0088788786A5B3A5A5A6A6887888788787C9
:10210E00A5B496A5A6968888787887870000001FC4
:10211E00003B005A0078009700B500D400F301117F
:04212E000130014E2D
:102DD500249AF58274FE3EF583122717E4FFFEED73
:102DE50054F0FDE4FC78141226F0A804A905AA06FF
:102DF500AB0790000EE0FEA3E0FFEE3395E0FDFC8F
:102E0500C30226DFA3F090000CE0FEA3E0780222C7
:102E1500F0A3F0900018A3E014F9E4FFFE7D08FC90
:102E2500A801022703249AF58274FE3EF583221237
:102E350026D2E4FBFAF9F8C30226DFFFE0FCA3C3C0
:102E4500E0FD9FEE6480F8EC6480982274FFF5F055
:102E55000226A6ED9FFFEC9EF0A3EFF02290006DF9
:102E6500E05403FEA3E054C0780622F9746A2FF5F6
:102E750082741F3EF583E4932290001AE0FEA3E0DE
:102E8500F4FFEEF422FF900008022743E475F001F9
:032E95000226A66C
:1021320090000CEEF0A3EFF0A3ECF0A3EDF0A3EA15
:02214200F0EBC0
:10214400122E09C333CE33CED8F9122E2A122717F2
:10215400EF5460FFE4FEFDFC78051226F0E47B01F9
:10216400122E39701D122E0BC333CE33CED8F91272
:102174002E2A122717EF541FFFEF24FFFEE434FF2B
:10218400801A122E0BC333CE33CED8F9122E2A1254
:102194002717EF541FFFEF241EFEE433900012F0C4
:1021A400A3CEF090000EE0FAA3E0FB25E0FFEA33B3
:1021B400FE74182FF58274213EF583E493FE7401B6
:1021C40093FF900010E0FCA3E0FDEF2DFFEE3CCF69
:1021D40024FFCF34FF900014F0A3EFF090000CE044
:1021E400FEA3E0FF7C007D04122670ED4C7011D339
:1021F400EB9402EA648094804006900014122E91BD
:10220400900012E0FEA3E0A3122E4050030222FC31
:10221400900012A3ED9FFFEC9EA3F0A3EFF09000BB
:102224000EE4F0A304F0900018E4F0A304F0E4A397
:10223400122E15C004C005C006C007122E0BC333EE
:10224400CE33CED8F9122E2A122727D007D006D0A3
:1022540005D004122E3490001670030222D40222F8
:10226400DC900016E0FEA3E0900014122E404071B2
:10227400900014122E58900018122E91122E0BC397
:1022840033CE33CED8F9122DD57013122E7EFE9094
:10229400001AF0A3EFF04E700C90000E8004900032
:1022A4000EE4122E92122E18C004C005C006C007F8
:1022B400122E0BC333CE33CED8F9122E2A1227276F
:1022C400D007D006D005D004122E34900016700822
:1022D400F0A3741DF0022265E4F0A3741EF0022240
:1022E40065900015E02401FE900014E03400900095
:1022F40010F0A3CEF002242C900014E0FEA3E0FF23
:10230400C3900013E09FF0900012E09EF090000C48
:10231400122E5190000EE4F0740C122E09C333CE29
:1023240033CED8F9122E2A122717E4FFFEED54F00B
:10233400FDE4FC78141226F0122E37900018700772
:10234400F0A3740CF08006E4F0A3740DF0E49000A4
:102354001A122E15C004C005C006C007122E0BC3E6
:1023640033CE33CED8F9122E2A122727D007D0061F
:10237400D005D004122E3490001670030223FA0202
:102384002402900016E0FEA3E0FF900012E0FCA3FC
:10239400D3122E454071900012122E58900018123C
:1023A4002E5190001AE07002A3E0700690000E1205
:1023B4002E51122E0BC333CE33CED8F9122DD57035
:1023C4000A122E7E90001AF0A3EFF0122E18C00409
:1023D400C005C006C007122E0BC333CE33CED8F9C6
:1023E400122E2A122727D007D006D005D004122E89
:1023F400349000167008F0A3741DF0022386E4F0F4
:10240400A3741EF0022386900012E0FEA3E0FFC333
:10241400900017E09FFF900016E09ECF2401CF3478
:1024240000900010F0A3EFF0900010E0FEA3E0FF96
:1024340090006DEEF0FCA3EFF0FD90000EE0FEA323
:10244400E07806C333CE33CED8F9FFEC4EFEED4F21
:10245400FF90006DEEF0A3EF122E0AC333CE33CEFD
:10246400D8F9242AF5827400122DDB70037F01222F
:022474007F00E7
:012476002243
:103A5400E490000BF0FCFA122132EF6019122E628E
:103A6400CEC313CE13D8F9122E8AEF1225D59000A7
:103A74000B7401F08011122E62CEC313CE13D8F949
:103A8400122E8AEF1225D590006DA3E0543F122E1A
:0D3A94008A900001EF1225E790000BE0FF83
:013AA1002202
:023AA200AA0573
:103AA4007C007D0C122609EA2FFFEC3ECF243FCF89
:103AB40034A2FEEBC3940F5016C3740F9B122E70E6
:103AC400C4540FB50106EA25E01480187F0022EBE8
:103AD400B40F037F0022EB24F1122E70540FB501B2
:0A3AE40007EA25E025E0FF227F003D
:013AEE0022B5
:10337400023088E493A3F8E493A34003F68001F2B7
:1033840008DFF48029E493A3F85407240CC8C3335A
:10339400C4540F4420C8834004F456800146F6DF29
:1033A400E4800B0102040810204080903E43E47E38
:1033B400019360BCA3FF543F30E509541FFEE4931E
:1033C400A360010ECF54C025E060A840B8E493A3E5
:1033D400FAE493A3F8E493A3C8C582C8CAC583CA10
:1033E400F0A3C8C582C8CAC583CADFE9DEE780BEC8
:013E71000050
:10247700E709F608DFFA8046E709F208DFFA803E47
:1024870088828C83E709F0A3DFFA8032E309F60834
:10249700DFFA8078E309F208DFFA807088828C839C
:1024A700E309F0A3DFFA806489828A83E0A3F60850
:1024B700DFFA805889828A83E0A3F208DFFA804C2A
:1024C70080D280FA80C680D4806980F28033801001
:1024D70080A680EA809A80A880DA80E280CA80336A
:1024E70089828A83ECFAE493A3C8C582C8CCC583E2
:1024F700CCF0A3C8C582C8CCC583CCDFE9DEE780B2
:102507000D89828A83E493A3F608DFF9ECFAA9F030
:10251700EDFB2289828A83ECFAE0A3C8C582C8CC86
:10252700C583CCF0A3C8C582C8CCC583CCDFEADE9F
:10253700E880DB89828A83E493A3F208DFF980CC01
:1025470088F0EF60010E4E60C388F0ED2402B404FA
:102557000050B9F582EB2402B4040050AF232345A1
:0625670082239024C773DB
:10256D00C2D530F707B2D563F0FF05F030E70CB2F6
:10257D00D5F4048463F0FF05F080018430D502F4B6
:02258D00042226
:10258F00BB010689828A83E0225002E722BBFE024A
:09259F00E32289828A83E493227D
:1025A800BB010CE58229F582E5833AF583E02250E8
:1025B80006E92582F8E622BBFE06E92582F8E22232
:0D25C800E58229F582E5833AF583E493224C
:1025D500BB010689828A83F0225002F722BBFE01E5
:0225E500F322DF
:1025E700F8BB010DE58229F582E5833AF583E8F02A
:1025F700225006E92582C8F622BBFE05E92582C8D6
:02260700F222BD
:10260900EF8DF0A4A8F0CF8CF0A428CE8DF0A42EE5
:02261900FE229F
:10261B00BC000BBE0029EF8DF084FFADF022E4CCA3
:10262B00F875F008EF2FFFEE33FEEC33FCEE9DEC6C
:10263B00984005FCEE9DFE0FD5F0E9E4CEFD22EDB2
:10264B00F8F5F0EE8420D21CFEADF075F008EF2FFC
:10265B00FFED33FD4007985006D5F0F222C398FDED
:05266B000FD5F0EA228A
:10267000C2D5EC30E709B2D5E4C39DFDE49CFCEE85
:1026800030E715B2D5E4C39FFFE49EFE12261BC3BC
:10269000E49DFDE49CFC800312261B30D507C3E4B7
:0626A0009FFFE49EFE22F4
:1026A600C5F0F8A3E028F0C5F0F8E58215827002BF
:0626B6001583E038F0225C
:1026BC00A3F8E0C5F025F0F0E582158270021583D1
:0626CC00E0C838F0E8222E
:0D26D200EF5BFFEE5AFEED59FDEC58FC22C7
:1026DF00EB9FF5F0EA9E42F0E99D42F0E89C45F051
:0126EF0022C8
:1026F000E8600FECC313FCED13FDEE13FEEF13FFC8
:03270000D8F122EB
:10270300E86010ECA2E713FCED13FDEE13FEEF13EC
:04271300FFD8F022D9
:10271700E493FC740193FD740293FE740393FF2208
:10272700E493F8740193F9740293FA740393FB2208
:0C273700A42582F582E5F03583F58322AD
:09274300E0FBA3E0FAA3E0F92297
:09274C00EBF0A3EAF0A3E9F0228E
:00000001FF
